{
  "_format": "hh-sol-artifact-1",
  "contractName": "KopoFolderHandler",
  "sourceName": "contracts/KopoFolderHandler.sol",
  "abi": [
    {
      "inputs": [
        {
          "internalType": "address",
          "name": "_addressProvider",
          "type": "address"
        },
        {
          "internalType": "bytes32",
          "name": "_folderId",
          "type": "bytes32"
        }
      ],
      "stateMutability": "nonpayable",
      "type": "constructor"
    },
    {
      "anonymous": false,
      "inputs": [
        {
          "indexed": true,
          "internalType": "address",
          "name": "owner",
          "type": "address"
        },
        {
          "indexed": true,
          "internalType": "address",
          "name": "approved",
          "type": "address"
        },
        {
          "indexed": true,
          "internalType": "uint256",
          "name": "tokenId",
          "type": "uint256"
        }
      ],
      "name": "Approval",
      "type": "event"
    },
    {
      "anonymous": false,
      "inputs": [
        {
          "indexed": true,
          "internalType": "address",
          "name": "owner",
          "type": "address"
        },
        {
          "indexed": true,
          "internalType": "address",
          "name": "operator",
          "type": "address"
        },
        {
          "indexed": false,
          "internalType": "bool",
          "name": "approved",
          "type": "bool"
        }
      ],
      "name": "ApprovalForAll",
      "type": "event"
    },
    {
      "anonymous": false,
      "inputs": [
        {
          "indexed": true,
          "internalType": "address",
          "name": "_from",
          "type": "address"
        },
        {
          "indexed": false,
          "internalType": "string",
          "name": "_oldname",
          "type": "string"
        },
        {
          "indexed": true,
          "internalType": "string",
          "name": "_name",
          "type": "string"
        }
      ],
      "name": "NameChanged",
      "type": "event"
    },
    {
      "anonymous": false,
      "inputs": [
        {
          "indexed": true,
          "internalType": "address",
          "name": "previousOwner",
          "type": "address"
        },
        {
          "indexed": true,
          "internalType": "address",
          "name": "newOwner",
          "type": "address"
        }
      ],
      "name": "OwnershipTransferred",
      "type": "event"
    },
    {
      "anonymous": false,
      "inputs": [
        {
          "indexed": true,
          "internalType": "address",
          "name": "from",
          "type": "address"
        },
        {
          "indexed": true,
          "internalType": "address",
          "name": "to",
          "type": "address"
        },
        {
          "indexed": true,
          "internalType": "uint256",
          "name": "tokenId",
          "type": "uint256"
        }
      ],
      "name": "Transfer",
      "type": "event"
    },
    {
      "inputs": [],
      "name": "MAX_SUPPLY",
      "outputs": [
        {
          "internalType": "uint256",
          "name": "",
          "type": "uint256"
        }
      ],
      "stateMutability": "view",
      "type": "function"
    },
    {
      "inputs": [
        {
          "internalType": "address",
          "name": "to",
          "type": "address"
        },
        {
          "internalType": "uint256",
          "name": "tokenId",
          "type": "uint256"
        }
      ],
      "name": "approve",
      "outputs": [],
      "stateMutability": "nonpayable",
      "type": "function"
    },
    {
      "inputs": [
        {
          "internalType": "address",
          "name": "owner",
          "type": "address"
        }
      ],
      "name": "balanceOf",
      "outputs": [
        {
          "internalType": "uint256",
          "name": "",
          "type": "uint256"
        }
      ],
      "stateMutability": "view",
      "type": "function"
    },
    {
      "inputs": [],
      "name": "folderId",
      "outputs": [
        {
          "internalType": "bytes32",
          "name": "",
          "type": "bytes32"
        }
      ],
      "stateMutability": "view",
      "type": "function"
    },
    {
      "inputs": [],
      "name": "folderName",
      "outputs": [
        {
          "internalType": "string",
          "name": "",
          "type": "string"
        }
      ],
      "stateMutability": "view",
      "type": "function"
    },
    {
      "inputs": [
        {
          "internalType": "uint256",
          "name": "tokenId",
          "type": "uint256"
        }
      ],
      "name": "getApproved",
      "outputs": [
        {
          "internalType": "address",
          "name": "",
          "type": "address"
        }
      ],
      "stateMutability": "view",
      "type": "function"
    },
    {
      "inputs": [
        {
          "internalType": "address",
          "name": "owner",
          "type": "address"
        },
        {
          "internalType": "address",
          "name": "operator",
          "type": "address"
        }
      ],
      "name": "isApprovedForAll",
      "outputs": [
        {
          "internalType": "bool",
          "name": "",
          "type": "bool"
        }
      ],
      "stateMutability": "view",
      "type": "function"
    },
    {
      "inputs": [],
      "name": "name",
      "outputs": [
        {
          "internalType": "string",
          "name": "",
          "type": "string"
        }
      ],
      "stateMutability": "view",
      "type": "function"
    },
    {
      "inputs": [
        {
          "internalType": "address",
          "name": "",
          "type": "address"
        },
        {
          "internalType": "address",
          "name": "",
          "type": "address"
        },
        {
          "internalType": "uint256",
          "name": "",
          "type": "uint256"
        },
        {
          "internalType": "bytes",
          "name": "",
          "type": "bytes"
        }
      ],
      "name": "onERC721Received",
      "outputs": [
        {
          "internalType": "bytes4",
          "name": "",
          "type": "bytes4"
        }
      ],
      "stateMutability": "pure",
      "type": "function"
    },
    {
      "inputs": [],
      "name": "owner",
      "outputs": [
        {
          "internalType": "address",
          "name": "",
          "type": "address"
        }
      ],
      "stateMutability": "view",
      "type": "function"
    },
    {
      "inputs": [
        {
          "internalType": "uint256",
          "name": "tokenId",
          "type": "uint256"
        }
      ],
      "name": "ownerOf",
      "outputs": [
        {
          "internalType": "address",
          "name": "",
          "type": "address"
        }
      ],
      "stateMutability": "view",
      "type": "function"
    },
    {
      "inputs": [],
      "name": "renounceOwnership",
      "outputs": [],
      "stateMutability": "nonpayable",
      "type": "function"
    },
    {
      "inputs": [
        {
          "internalType": "address",
          "name": "_to",
          "type": "address"
        },
        {
          "internalType": "string",
          "name": "CID",
          "type": "string"
        }
      ],
      "name": "safeMint",
      "outputs": [],
      "stateMutability": "nonpayable",
      "type": "function"
    },
    {
      "inputs": [
        {
          "internalType": "address",
          "name": "from",
          "type": "address"
        },
        {
          "internalType": "address",
          "name": "to",
          "type": "address"
        },
        {
          "internalType": "uint256",
          "name": "tokenId",
          "type": "uint256"
        }
      ],
      "name": "safeTransferFrom",
      "outputs": [],
      "stateMutability": "nonpayable",
      "type": "function"
    },
    {
      "inputs": [
        {
          "internalType": "address",
          "name": "from",
          "type": "address"
        },
        {
          "internalType": "address",
          "name": "to",
          "type": "address"
        },
        {
          "internalType": "uint256",
          "name": "tokenId",
          "type": "uint256"
        },
        {
          "internalType": "bytes",
          "name": "data",
          "type": "bytes"
        }
      ],
      "name": "safeTransferFrom",
      "outputs": [],
      "stateMutability": "nonpayable",
      "type": "function"
    },
    {
      "inputs": [
        {
          "internalType": "address",
          "name": "operator",
          "type": "address"
        },
        {
          "internalType": "bool",
          "name": "approved",
          "type": "bool"
        }
      ],
      "name": "setApprovalForAll",
      "outputs": [],
      "stateMutability": "nonpayable",
      "type": "function"
    },
    {
      "inputs": [
        {
          "internalType": "string",
          "name": "_newname",
          "type": "string"
        }
      ],
      "name": "setFolderName",
      "outputs": [],
      "stateMutability": "nonpayable",
      "type": "function"
    },
    {
      "inputs": [
        {
          "internalType": "bytes4",
          "name": "interfaceId",
          "type": "bytes4"
        }
      ],
      "name": "supportsInterface",
      "outputs": [
        {
          "internalType": "bool",
          "name": "",
          "type": "bool"
        }
      ],
      "stateMutability": "view",
      "type": "function"
    },
    {
      "inputs": [],
      "name": "symbol",
      "outputs": [
        {
          "internalType": "string",
          "name": "",
          "type": "string"
        }
      ],
      "stateMutability": "view",
      "type": "function"
    },
    {
      "inputs": [
        {
          "internalType": "uint256",
          "name": "_tokenId",
          "type": "uint256"
        }
      ],
      "name": "tokenURI",
      "outputs": [
        {
          "internalType": "string",
          "name": "",
          "type": "string"
        }
      ],
      "stateMutability": "view",
      "type": "function"
    },
    {
      "inputs": [
        {
          "internalType": "address",
          "name": "from",
          "type": "address"
        },
        {
          "internalType": "address",
          "name": "to",
          "type": "address"
        },
        {
          "internalType": "uint256",
          "name": "tokenId",
          "type": "uint256"
        }
      ],
      "name": "transferFrom",
      "outputs": [],
      "stateMutability": "nonpayable",
      "type": "function"
    },
    {
      "inputs": [
        {
          "internalType": "address",
          "name": "_newOwner",
          "type": "address"
        }
      ],
      "name": "transferOwnership",
      "outputs": [],
      "stateMutability": "nonpayable",
      "type": "function"
    }
  ],
  "bytecode": "0x60a06040523480156200001157600080fd5b5060405162003d7c38038062003d7c8339818101604052810190620000379190620002f6565b6040518060400160405280601181526020017f4b6f706f466f6c64657248616e646c65720000000000000000000000000000008152506040518060400160405280600381526020017f4b464800000000000000000000000000000000000000000000000000000000008152508160009081620000b49190620005b7565b508060019081620000c69190620005b7565b505050620000e9620000dd6200018060201b60201c565b6200018860201b60201c565b62000105670419d1b0284d4e9260c01b6200024e60201b60201c565b6200012167d460cc0a7b6f98eb60c01b6200024e60201b60201c565b806008819055506200014467179357e32486f40660c01b6200024e60201b60201c565b8173ffffffffffffffffffffffffffffffffffffffff1660808173ffffffffffffffffffffffffffffffffffffffff168152505050506200069e565b600033905090565b6000600660009054906101000a900473ffffffffffffffffffffffffffffffffffffffff16905081600660006101000a81548173ffffffffffffffffffffffffffffffffffffffff021916908373ffffffffffffffffffffffffffffffffffffffff1602179055508173ffffffffffffffffffffffffffffffffffffffff168173ffffffffffffffffffffffffffffffffffffffff167f8be0079c531659141344cd1fd0a4f28419497f9722a3daafe3b4186f6b6457e060405160405180910390a35050565b50565b600080fd5b600073ffffffffffffffffffffffffffffffffffffffff82169050919050565b6000620002838262000256565b9050919050565b620002958162000276565b8114620002a157600080fd5b50565b600081519050620002b5816200028a565b92915050565b6000819050919050565b620002d081620002bb565b8114620002dc57600080fd5b50565b600081519050620002f081620002c5565b92915050565b6000806040838503121562000310576200030f62000251565b5b60006200032085828601620002a4565b92505060206200033385828601620002df565b9150509250929050565b600081519050919050565b7f4e487b7100000000000000000000000000000000000000000000000000000000600052604160045260246000fd5b7f4e487b7100000000000000000000000000000000000000000000000000000000600052602260045260246000fd5b60006002820490506001821680620003bf57607f821691505b602082108103620003d557620003d462000377565b5b50919050565b60008190508160005260206000209050919050565b60006020601f8301049050919050565b600082821b905092915050565b6000600883026200043f7fffffffffffffffffffffffffffffffffffffffffffffffffffffffffffffffff8262000400565b6200044b868362000400565b95508019841693508086168417925050509392505050565b6000819050919050565b6000819050919050565b600062000498620004926200048c8462000463565b6200046d565b62000463565b9050919050565b6000819050919050565b620004b48362000477565b620004cc620004c3826200049f565b8484546200040d565b825550505050565b600090565b620004e3620004d4565b620004f0818484620004a9565b505050565b5b8181101562000518576200050c600082620004d9565b600181019050620004f6565b5050565b601f82111562000567576200053181620003db565b6200053c84620003f0565b810160208510156200054c578190505b620005646200055b85620003f0565b830182620004f5565b50505b505050565b600082821c905092915050565b60006200058c600019846008026200056c565b1980831691505092915050565b6000620005a7838362000579565b9150826002028217905092915050565b620005c2826200033d565b67ffffffffffffffff811115620005de57620005dd62000348565b5b620005ea8254620003a6565b620005f78282856200051c565b600060209050601f8311600181146200062f57600084156200061a578287015190505b62000626858262000599565b86555062000696565b601f1984166200063f86620003db565b60005b82811015620006695784890151825560018201915060208501945060208101905062000642565b8683101562000689578489015162000685601f89168262000579565b8355505b6001600288020188555050505b505050505050565b6080516136c2620006ba600039600061102401526136c26000f3fe608060405234801561001057600080fd5b50600436106101425760003560e01c8063715018a6116100b8578063a22cb4651161007c578063a22cb46514610365578063b88d4fde14610381578063c87b56dd1461039d578063d204c45e146103cd578063e985e9c5146103e9578063f2fde38b1461041957610142565b8063715018a6146102e5578063731ad412146102ef5780638da5cb5b1461030d57806395d89b411461032b5780639f0cb4ff1461034957610142565b806323b872dd1161010a57806323b872dd146102115780632a2e506a1461022d57806332cb6b0c1461024b57806342842e0e146102695780636352211e1461028557806370a08231146102b557610142565b806301ffc9a71461014757806306fdde0314610177578063081812fc14610195578063095ea7b3146101c5578063150b7a02146101e1575b600080fd5b610161600480360381019061015c9190612131565b610435565b60405161016e9190612179565b60405180910390f35b61017f610517565b60405161018c9190612224565b60405180910390f35b6101af60048036038101906101aa919061227c565b6105a9565b6040516101bc91906122ea565b60405180910390f35b6101df60048036038101906101da9190612331565b6105ef565b005b6101fb60048036038101906101f691906123d6565b610706565b604051610208919061246d565b60405180910390f35b61022b60048036038101906102269190612488565b610757565b005b6102356107b7565b60405161024291906124f4565b60405180910390f35b6102536107bd565b604051610260919061251e565b60405180910390f35b610283600480360381019061027e9190612488565b6107c2565b005b61029f600480360381019061029a919061227c565b6107e2565b6040516102ac91906122ea565b60405180910390f35b6102cf60048036038101906102ca9190612539565b610868565b6040516102dc919061251e565b60405180910390f35b6102ed61091f565b005b6102f7610933565b6040516103049190612224565b60405180910390f35b6103156109c1565b60405161032291906122ea565b60405180910390f35b6103336109eb565b6040516103409190612224565b60405180910390f35b610363600480360381019061035e91906125bc565b610a7d565b005b61037f600480360381019061037a9190612635565b610b7a565b005b61039b600480360381019061039691906127a5565b610b90565b005b6103b760048036038101906103b2919061227c565b610bf2565b6040516103c49190612224565b60405180910390f35b6103e760048036038101906103e29190612828565b610d6e565b005b61040360048036038101906103fe9190612888565b610f25565b6040516104109190612179565b60405180910390f35b610433600480360381019061042e9190612539565b610fb9565b005b60007f80ac58cd000000000000000000000000000000000000000000000000000000007bffffffffffffffffffffffffffffffffffffffffffffffffffffffff1916827bffffffffffffffffffffffffffffffffffffffffffffffffffffffff1916148061050057507f5b5e139f000000000000000000000000000000000000000000000000000000007bffffffffffffffffffffffffffffffffffffffffffffffffffffffff1916827bffffffffffffffffffffffffffffffffffffffffffffffffffffffff1916145b80610510575061050f82611221565b5b9050919050565b606060008054610526906128f7565b80601f0160208091040260200160405190810160405280929190818152602001828054610552906128f7565b801561059f5780601f106105745761010080835404028352916020019161059f565b820191906000526020600020905b81548152906001019060200180831161058257829003601f168201915b5050505050905090565b60006105b48261128b565b6004600083815260200190815260200160002060009054906101000a900473ffffffffffffffffffffffffffffffffffffffff169050919050565b60006105fa826107e2565b90508073ffffffffffffffffffffffffffffffffffffffff168373ffffffffffffffffffffffffffffffffffffffff160361066a576040517f08c379a00000000000000000000000000000000000000000000000000000000081526004016106619061299a565b60405180910390fd5b8073ffffffffffffffffffffffffffffffffffffffff166106896112d6565b73ffffffffffffffffffffffffffffffffffffffff1614806106b857506106b7816106b26112d6565b610f25565b5b6106f7576040517f08c379a00000000000000000000000000000000000000000000000000000000081526004016106ee90612a2c565b60405180910390fd5b61070183836112de565b505050565b600061071c6704880856d67e540360c01b611397565b61073067a58d242a6c808dc360c01b611397565b6107446796978577508373fd60c01b611397565b63150b7a0260e01b905095945050505050565b6107686107626112d6565b8261139a565b6107a7576040517f08c379a000000000000000000000000000000000000000000000000000000000815260040161079e90612abe565b60405180910390fd5b6107b283838361142f565b505050565b60085481565b600181565b6107dd83838360405180602001604052806000815250610b90565b505050565b6000806107ee83611728565b9050600073ffffffffffffffffffffffffffffffffffffffff168173ffffffffffffffffffffffffffffffffffffffff160361085f576040517f08c379a000000000000000000000000000000000000000000000000000000000815260040161085690612b2a565b60405180910390fd5b80915050919050565b60008073ffffffffffffffffffffffffffffffffffffffff168273ffffffffffffffffffffffffffffffffffffffff16036108d8576040517f08c379a00000000000000000000000000000000000000000000000000000000081526004016108cf90612bbc565b60405180910390fd5b600360008373ffffffffffffffffffffffffffffffffffffffff1673ffffffffffffffffffffffffffffffffffffffff168152602001908152602001600020549050919050565b610927611765565b61093160006117e3565b565b60098054610940906128f7565b80601f016020809104026020016040519081016040528092919081815260200182805461096c906128f7565b80156109b95780601f1061098e576101008083540402835291602001916109b9565b820191906000526020600020905b81548152906001019060200180831161099c57829003601f168201915b505050505081565b6000600660009054906101000a900473ffffffffffffffffffffffffffffffffffffffff16905090565b6060600180546109fa906128f7565b80601f0160208091040260200160405190810160405280929190818152602001828054610a26906128f7565b8015610a735780601f10610a4857610100808354040283529160200191610a73565b820191906000526020600020905b815481529060010190602001808311610a5657829003601f168201915b5050505050905090565b610a9167255472019bf1fcb360c01b611397565b610a99611765565b610aad67a3dc2903b3ccc21660c01b611397565b610ac1674fd795a1e0c022ac60c01b611397565b610ad567c7ec3e6b08719dbd60c01b611397565b610ae967839b26968bdd8fb560c01b611397565b8181604051610af9929190612c0c565b60405180910390203373ffffffffffffffffffffffffffffffffffffffff167fe6e8eb0d08ce8b2cbce2a34f6868471e13d0980f216d8f1cd54270fdfdcded836009604051610b489190612cbe565b60405180910390a3610b6467a0ac21a5532680dd60c01b611397565b818160099182610b75929190612e82565b505050565b610b8c610b856112d6565b83836118a9565b5050565b610ba1610b9b6112d6565b8361139a565b610be0576040517f08c379a0000000000000000000000000000000000000000000000000000000008152600401610bd790612abe565b60405180910390fd5b610bec84848484611a15565b50505050565b6060610c0867c3abf9c0d6a2924460c01b611397565b610c1c67c9748d4c688623d260c01b611397565b610c3067c44f5877bacc401160c01b611397565b610c44678106c634258e011a60c01b611397565b81610c4f6007611a71565b11610c8f576040517f08c379a0000000000000000000000000000000000000000000000000000000008152600401610c8690612f9e565b60405180910390fd5b610ca367bd5a95e8c462caca60c01b611397565b610cb767c7a65db3067971dd60c01b611397565b610ccb67f97658317862922660c01b611397565b600a60008381526020019081526020016000208054610ce9906128f7565b80601f0160208091040260200160405190810160405280929190818152602001828054610d15906128f7565b8015610d625780601f10610d3757610100808354040283529160200191610d62565b820191906000526020600020905b815481529060010190602001808311610d4557829003601f168201915b50505050509050919050565b610d8267e66b708f2c7c6d1c60c01b611397565b610d8a611765565b610d9e6775acd8d28fdc970560c01b611397565b610db267bac25a83685cce0960c01b611397565b610dc6676fd77555247ca73e60c01b611397565b610dda673cbff4c7c9d7392a60c01b611397565b610dee67c015fd692c39c01b60c01b611397565b6001610dfa6007611a71565b10610e3a576040517f08c379a0000000000000000000000000000000000000000000000000000000008152600401610e319061300a565b60405180910390fd5b610e4e67162e790d8957853160c01b611397565b610e6267f33d681df47fb2de60c01b611397565b610e766793ec44f9eb7310bb60c01b611397565b6000610e826007611a71565b9050610e98672378e0712668bb6260c01b611397565b610eac675b4a43e93f266c7960c01b611397565b610eb66007611a7f565b610eca6759c36e4c00e763bf60c01b611397565b8282600a60008481526020019081526020016000209182610eec929190612e82565b50610f01671603b86e5979404760c01b611397565b610f156735c4d0d5e9285c2360c01b611397565b610f1f8482611a95565b50505050565b6000600560008473ffffffffffffffffffffffffffffffffffffffff1673ffffffffffffffffffffffffffffffffffffffff16815260200190815260200160002060008373ffffffffffffffffffffffffffffffffffffffff1673ffffffffffffffffffffffffffffffffffffffff16815260200190815260200160002060009054906101000a900460ff16905092915050565b610fcd67a38440f4b6ea887e60c01b611397565b80610fe26752aacd0cef61c35960c01b611397565b610ff667cac7d576ff4374d460c01b611397565b61100a672c4e6da31220280160c01b611397565b61101e676f60be4d2eee5f1260c01b611397565b600115157f000000000000000000000000000000000000000000000000000000000000000073ffffffffffffffffffffffffffffffffffffffff1663cf6dac296040518163ffffffff1660e01b8152600401602060405180830381865afa15801561108d573d6000803e3d6000fd5b505050506040513d601f19601f820116820180604052508101906110b1919061303f565b73ffffffffffffffffffffffffffffffffffffffff1663b9209e33836040518263ffffffff1660e01b81526004016110e991906122ea565b602060405180830381865afa158015611106573d6000803e3d6000fd5b505050506040513d601f19601f8201168201806040525081019061112a9190613081565b15151461116c576040517f08c379a0000000000000000000000000000000000000000000000000000000008152600401611163906130fa565b60405180910390fd5b611180674b07de71fe751a3e60c01b611397565b611194670b57b57404eef38660c01b611397565b6111a86732b295327633155b60c01b611397565b6111bc6768e532620b7cfd9b60c01b611397565b6111c4611765565b6111d867558784bdfd26970a60c01b611397565b6111ec67d9c40219151904b460c01b611397565b611200677ad3da250764c04460c01b611397565b61121467fed6ca607d575d2e60c01b611397565b61121d82611ab3565b5050565b60007f01ffc9a7000000000000000000000000000000000000000000000000000000007bffffffffffffffffffffffffffffffffffffffffffffffffffffffff1916827bffffffffffffffffffffffffffffffffffffffffffffffffffffffff1916149050919050565b61129481611b36565b6112d3576040517f08c379a00000000000000000000000000000000000000000000000000000000081526004016112ca90612b2a565b60405180910390fd5b50565b600033905090565b816004600083815260200190815260200160002060006101000a81548173ffffffffffffffffffffffffffffffffffffffff021916908373ffffffffffffffffffffffffffffffffffffffff160217905550808273ffffffffffffffffffffffffffffffffffffffff16611351836107e2565b73ffffffffffffffffffffffffffffffffffffffff167f8c5be1e5ebec7d5bd14f71427d1e84f3dd0314c0f7b2291e5b200ac8c7c3b92560405160405180910390a45050565b50565b6000806113a6836107e2565b90508073ffffffffffffffffffffffffffffffffffffffff168473ffffffffffffffffffffffffffffffffffffffff1614806113e857506113e78185610f25565b5b8061142657508373ffffffffffffffffffffffffffffffffffffffff1661140e846105a9565b73ffffffffffffffffffffffffffffffffffffffff16145b91505092915050565b8273ffffffffffffffffffffffffffffffffffffffff1661144f826107e2565b73ffffffffffffffffffffffffffffffffffffffff16146114a5576040517f08c379a000000000000000000000000000000000000000000000000000000000815260040161149c9061318c565b60405180910390fd5b600073ffffffffffffffffffffffffffffffffffffffff168273ffffffffffffffffffffffffffffffffffffffff1603611514576040517f08c379a000000000000000000000000000000000000000000000000000000000815260040161150b9061321e565b60405180910390fd5b6115218383836001611b77565b8273ffffffffffffffffffffffffffffffffffffffff16611541826107e2565b73ffffffffffffffffffffffffffffffffffffffff1614611597576040517f08c379a000000000000000000000000000000000000000000000000000000000815260040161158e9061318c565b60405180910390fd5b6004600082815260200190815260200160002060006101000a81549073ffffffffffffffffffffffffffffffffffffffff02191690556001600360008573ffffffffffffffffffffffffffffffffffffffff1673ffffffffffffffffffffffffffffffffffffffff168152602001908152602001600020600082825403925050819055506001600360008473ffffffffffffffffffffffffffffffffffffffff1673ffffffffffffffffffffffffffffffffffffffff16815260200190815260200160002060008282540192505081905550816002600083815260200190815260200160002060006101000a81548173ffffffffffffffffffffffffffffffffffffffff021916908373ffffffffffffffffffffffffffffffffffffffff160217905550808273ffffffffffffffffffffffffffffffffffffffff168473ffffffffffffffffffffffffffffffffffffffff167fddf252ad1be2c89b69c2b068fc378daa952ba7f163c4a11628f55a4df523b3ef60405160405180910390a46117238383836001611c9d565b505050565b60006002600083815260200190815260200160002060009054906101000a900473ffffffffffffffffffffffffffffffffffffffff169050919050565b61176d6112d6565b73ffffffffffffffffffffffffffffffffffffffff1661178b6109c1565b73ffffffffffffffffffffffffffffffffffffffff16146117e1576040517f08c379a00000000000000000000000000000000000000000000000000000000081526004016117d89061328a565b60405180910390fd5b565b6000600660009054906101000a900473ffffffffffffffffffffffffffffffffffffffff16905081600660006101000a81548173ffffffffffffffffffffffffffffffffffffffff021916908373ffffffffffffffffffffffffffffffffffffffff1602179055508173ffffffffffffffffffffffffffffffffffffffff168173ffffffffffffffffffffffffffffffffffffffff167f8be0079c531659141344cd1fd0a4f28419497f9722a3daafe3b4186f6b6457e060405160405180910390a35050565b8173ffffffffffffffffffffffffffffffffffffffff168373ffffffffffffffffffffffffffffffffffffffff1603611917576040517f08c379a000000000000000000000000000000000000000000000000000000000815260040161190e906132f6565b60405180910390fd5b80600560008573ffffffffffffffffffffffffffffffffffffffff1673ffffffffffffffffffffffffffffffffffffffff16815260200190815260200160002060008473ffffffffffffffffffffffffffffffffffffffff1673ffffffffffffffffffffffffffffffffffffffff16815260200190815260200160002060006101000a81548160ff0219169083151502179055508173ffffffffffffffffffffffffffffffffffffffff168373ffffffffffffffffffffffffffffffffffffffff167f17307eab39ab6107e8899845ad3d59bd9653f200f220920489ca2b5937696c3183604051611a089190612179565b60405180910390a3505050565b611a2084848461142f565b611a2c84848484611ca3565b611a6b576040517f08c379a0000000000000000000000000000000000000000000000000000000008152600401611a6290613388565b60405180910390fd5b50505050565b600081600001549050919050565b6001816000016000828254019250508190555050565b611aaf828260405180602001604052806000815250611e2a565b5050565b611abb611765565b600073ffffffffffffffffffffffffffffffffffffffff168173ffffffffffffffffffffffffffffffffffffffff1603611b2a576040517f08c379a0000000000000000000000000000000000000000000000000000000008152600401611b219061341a565b60405180910390fd5b611b33816117e3565b50565b60008073ffffffffffffffffffffffffffffffffffffffff16611b5883611728565b73ffffffffffffffffffffffffffffffffffffffff1614159050919050565b6001811115611c9757600073ffffffffffffffffffffffffffffffffffffffff168473ffffffffffffffffffffffffffffffffffffffff1614611c0b5780600360008673ffffffffffffffffffffffffffffffffffffffff1673ffffffffffffffffffffffffffffffffffffffff1681526020019081526020016000206000828254611c039190613469565b925050819055505b600073ffffffffffffffffffffffffffffffffffffffff168373ffffffffffffffffffffffffffffffffffffffff1614611c965780600360008573ffffffffffffffffffffffffffffffffffffffff1673ffffffffffffffffffffffffffffffffffffffff1681526020019081526020016000206000828254611c8e919061349d565b925050819055505b5b50505050565b50505050565b6000611cc48473ffffffffffffffffffffffffffffffffffffffff16611e85565b15611e1d578373ffffffffffffffffffffffffffffffffffffffff1663150b7a02611ced6112d6565b8786866040518563ffffffff1660e01b8152600401611d0f9493929190613526565b6020604051808303816000875af1925050508015611d4b57506040513d601f19601f82011682018060405250810190611d489190613587565b60015b611dcd573d8060008114611d7b576040519150601f19603f3d011682016040523d82523d6000602084013e611d80565b606091505b506000815103611dc5576040517f08c379a0000000000000000000000000000000000000000000000000000000008152600401611dbc90613388565b60405180910390fd5b805181602001fd5b63150b7a0260e01b7bffffffffffffffffffffffffffffffffffffffffffffffffffffffff1916817bffffffffffffffffffffffffffffffffffffffffffffffffffffffff191614915050611e22565b600190505b949350505050565b611e348383611ea8565b611e416000848484611ca3565b611e80576040517f08c379a0000000000000000000000000000000000000000000000000000000008152600401611e7790613388565b60405180910390fd5b505050565b6000808273ffffffffffffffffffffffffffffffffffffffff163b119050919050565b600073ffffffffffffffffffffffffffffffffffffffff168273ffffffffffffffffffffffffffffffffffffffff1603611f17576040517f08c379a0000000000000000000000000000000000000000000000000000000008152600401611f0e90613600565b60405180910390fd5b611f2081611b36565b15611f60576040517f08c379a0000000000000000000000000000000000000000000000000000000008152600401611f579061366c565b60405180910390fd5b611f6e600083836001611b77565b611f7781611b36565b15611fb7576040517f08c379a0000000000000000000000000000000000000000000000000000000008152600401611fae9061366c565b60405180910390fd5b6001600360008473ffffffffffffffffffffffffffffffffffffffff1673ffffffffffffffffffffffffffffffffffffffff16815260200190815260200160002060008282540192505081905550816002600083815260200190815260200160002060006101000a81548173ffffffffffffffffffffffffffffffffffffffff021916908373ffffffffffffffffffffffffffffffffffffffff160217905550808273ffffffffffffffffffffffffffffffffffffffff16600073ffffffffffffffffffffffffffffffffffffffff167fddf252ad1be2c89b69c2b068fc378daa952ba7f163c4a11628f55a4df523b3ef60405160405180910390a46120c1600083836001611c9d565b5050565b6000604051905090565b600080fd5b600080fd5b60007fffffffff0000000000000000000000000000000000000000000000000000000082169050919050565b61210e816120d9565b811461211957600080fd5b50565b60008135905061212b81612105565b92915050565b600060208284031215612147576121466120cf565b5b60006121558482850161211c565b91505092915050565b60008115159050919050565b6121738161215e565b82525050565b600060208201905061218e600083018461216a565b92915050565b600081519050919050565b600082825260208201905092915050565b60005b838110156121ce5780820151818401526020810190506121b3565b60008484015250505050565b6000601f19601f8301169050919050565b60006121f682612194565b612200818561219f565b93506122108185602086016121b0565b612219816121da565b840191505092915050565b6000602082019050818103600083015261223e81846121eb565b905092915050565b6000819050919050565b61225981612246565b811461226457600080fd5b50565b60008135905061227681612250565b92915050565b600060208284031215612292576122916120cf565b5b60006122a084828501612267565b91505092915050565b600073ffffffffffffffffffffffffffffffffffffffff82169050919050565b60006122d4826122a9565b9050919050565b6122e4816122c9565b82525050565b60006020820190506122ff60008301846122db565b92915050565b61230e816122c9565b811461231957600080fd5b50565b60008135905061232b81612305565b92915050565b60008060408385031215612348576123476120cf565b5b60006123568582860161231c565b925050602061236785828601612267565b9150509250929050565b600080fd5b600080fd5b600080fd5b60008083601f84011261239657612395612371565b5b8235905067ffffffffffffffff8111156123b3576123b2612376565b5b6020830191508360018202830111156123cf576123ce61237b565b5b9250929050565b6000806000806000608086880312156123f2576123f16120cf565b5b60006124008882890161231c565b95505060206124118882890161231c565b945050604061242288828901612267565b935050606086013567ffffffffffffffff811115612443576124426120d4565b5b61244f88828901612380565b92509250509295509295909350565b612467816120d9565b82525050565b6000602082019050612482600083018461245e565b92915050565b6000806000606084860312156124a1576124a06120cf565b5b60006124af8682870161231c565b93505060206124c08682870161231c565b92505060406124d186828701612267565b9150509250925092565b6000819050919050565b6124ee816124db565b82525050565b600060208201905061250960008301846124e5565b92915050565b61251881612246565b82525050565b6000602082019050612533600083018461250f565b92915050565b60006020828403121561254f5761254e6120cf565b5b600061255d8482850161231c565b91505092915050565b60008083601f84011261257c5761257b612371565b5b8235905067ffffffffffffffff81111561259957612598612376565b5b6020830191508360018202830111156125b5576125b461237b565b5b9250929050565b600080602083850312156125d3576125d26120cf565b5b600083013567ffffffffffffffff8111156125f1576125f06120d4565b5b6125fd85828601612566565b92509250509250929050565b6126128161215e565b811461261d57600080fd5b50565b60008135905061262f81612609565b92915050565b6000806040838503121561264c5761264b6120cf565b5b600061265a8582860161231c565b925050602061266b85828601612620565b9150509250929050565b600080fd5b7f4e487b7100000000000000000000000000000000000000000000000000000000600052604160045260246000fd5b6126b2826121da565b810181811067ffffffffffffffff821117156126d1576126d061267a565b5b80604052505050565b60006126e46120c5565b90506126f082826126a9565b919050565b600067ffffffffffffffff8211156127105761270f61267a565b5b612719826121da565b9050602081019050919050565b82818337600083830152505050565b6000612748612743846126f5565b6126da565b90508281526020810184848401111561276457612763612675565b5b61276f848285612726565b509392505050565b600082601f83011261278c5761278b612371565b5b813561279c848260208601612735565b91505092915050565b600080600080608085870312156127bf576127be6120cf565b5b60006127cd8782880161231c565b94505060206127de8782880161231c565b93505060406127ef87828801612267565b925050606085013567ffffffffffffffff8111156128105761280f6120d4565b5b61281c87828801612777565b91505092959194509250565b600080600060408486031215612841576128406120cf565b5b600061284f8682870161231c565b935050602084013567ffffffffffffffff8111156128705761286f6120d4565b5b61287c86828701612566565b92509250509250925092565b6000806040838503121561289f5761289e6120cf565b5b60006128ad8582860161231c565b92505060206128be8582860161231c565b9150509250929050565b7f4e487b7100000000000000000000000000000000000000000000000000000000600052602260045260246000fd5b6000600282049050600182168061290f57607f821691505b602082108103612922576129216128c8565b5b50919050565b7f4552433732313a20617070726f76616c20746f2063757272656e74206f776e6560008201527f7200000000000000000000000000000000000000000000000000000000000000602082015250565b600061298460218361219f565b915061298f82612928565b604082019050919050565b600060208201905081810360008301526129b381612977565b9050919050565b7f4552433732313a20617070726f76652063616c6c6572206973206e6f7420746f60008201527f6b656e206f776e6572206f7220617070726f76656420666f7220616c6c000000602082015250565b6000612a16603d8361219f565b9150612a21826129ba565b604082019050919050565b60006020820190508181036000830152612a4581612a09565b9050919050565b7f4552433732313a2063616c6c6572206973206e6f7420746f6b656e206f776e6560008201527f72206f7220617070726f76656400000000000000000000000000000000000000602082015250565b6000612aa8602d8361219f565b9150612ab382612a4c565b604082019050919050565b60006020820190508181036000830152612ad781612a9b565b9050919050565b7f4552433732313a20696e76616c696420746f6b656e2049440000000000000000600082015250565b6000612b1460188361219f565b9150612b1f82612ade565b602082019050919050565b60006020820190508181036000830152612b4381612b07565b9050919050565b7f4552433732313a2061646472657373207a65726f206973206e6f74206120766160008201527f6c6964206f776e65720000000000000000000000000000000000000000000000602082015250565b6000612ba660298361219f565b9150612bb182612b4a565b604082019050919050565b60006020820190508181036000830152612bd581612b99565b9050919050565b600081905092915050565b6000612bf38385612bdc565b9350612c00838584612726565b82840190509392505050565b6000612c19828486612be7565b91508190509392505050565b60008190508160005260206000209050919050565b60008154612c47816128f7565b612c51818661219f565b94506001821660008114612c6c5760018114612c8257612cb5565b60ff198316865281151560200286019350612cb5565b612c8b85612c25565b60005b83811015612cad57815481890152600182019150602081019050612c8e565b808801955050505b50505092915050565b60006020820190508181036000830152612cd88184612c3a565b905092915050565b600082905092915050565b60006020601f8301049050919050565b600082821b905092915050565b600060088302612d387fffffffffffffffffffffffffffffffffffffffffffffffffffffffffffffffff82612cfb565b612d428683612cfb565b95508019841693508086168417925050509392505050565b6000819050919050565b6000612d7f612d7a612d7584612246565b612d5a565b612246565b9050919050565b6000819050919050565b612d9983612d64565b612dad612da582612d86565b848454612d08565b825550505050565b600090565b612dc2612db5565b612dcd818484612d90565b505050565b5b81811015612df157612de6600082612dba565b600181019050612dd3565b5050565b601f821115612e3657612e0781612c25565b612e1084612ceb565b81016020851015612e1f578190505b612e33612e2b85612ceb565b830182612dd2565b50505b505050565b600082821c905092915050565b6000612e5960001984600802612e3b565b1980831691505092915050565b6000612e728383612e48565b9150826002028217905092915050565b612e8c8383612ce0565b67ffffffffffffffff811115612ea557612ea461267a565b5b612eaf82546128f7565b612eba828285612df5565b6000601f831160018114612ee95760008415612ed7578287013590505b612ee18582612e66565b865550612f49565b601f198416612ef786612c25565b60005b82811015612f1f57848901358255600182019150602085019450602081019050612efa565b86831015612f3c5784890135612f38601f891682612e48565b8355505b6001600288020188555050505b50505050505050565b7f746f6b656e20646f6573206e6f74206578697374000000000000000000000000600082015250565b6000612f8860148361219f565b9150612f9382612f52565b602082019050919050565b60006020820190508181036000830152612fb781612f7b565b9050919050565b7f6d617820737570706c7920726561636865640000000000000000000000000000600082015250565b6000612ff460128361219f565b9150612fff82612fbe565b602082019050919050565b6000602082019050818103600083015261302381612fe7565b9050919050565b60008151905061303981612305565b92915050565b600060208284031215613055576130546120cf565b5b60006130638482850161302a565b91505092915050565b60008151905061307b81612609565b92915050565b600060208284031215613097576130966120cf565b5b60006130a58482850161306c565b91505092915050565b7f6e6f742076657269666965640000000000000000000000000000000000000000600082015250565b60006130e4600c8361219f565b91506130ef826130ae565b602082019050919050565b60006020820190508181036000830152613113816130d7565b9050919050565b7f4552433732313a207472616e736665722066726f6d20696e636f72726563742060008201527f6f776e6572000000000000000000000000000000000000000000000000000000602082015250565b600061317660258361219f565b91506131818261311a565b604082019050919050565b600060208201905081810360008301526131a581613169565b9050919050565b7f4552433732313a207472616e7366657220746f20746865207a65726f2061646460008201527f7265737300000000000000000000000000000000000000000000000000000000602082015250565b600061320860248361219f565b9150613213826131ac565b604082019050919050565b60006020820190508181036000830152613237816131fb565b9050919050565b7f4f776e61626c653a2063616c6c6572206973206e6f7420746865206f776e6572600082015250565b600061327460208361219f565b915061327f8261323e565b602082019050919050565b600060208201905081810360008301526132a381613267565b9050919050565b7f4552433732313a20617070726f766520746f2063616c6c657200000000000000600082015250565b60006132e060198361219f565b91506132eb826132aa565b602082019050919050565b6000602082019050818103600083015261330f816132d3565b9050919050565b7f4552433732313a207472616e7366657220746f206e6f6e20455243373231526560008201527f63656976657220696d706c656d656e7465720000000000000000000000000000602082015250565b600061337260328361219f565b915061337d82613316565b604082019050919050565b600060208201905081810360008301526133a181613365565b9050919050565b7f4f776e61626c653a206e6577206f776e657220697320746865207a65726f206160008201527f6464726573730000000000000000000000000000000000000000000000000000602082015250565b600061340460268361219f565b915061340f826133a8565b604082019050919050565b60006020820190508181036000830152613433816133f7565b9050919050565b7f4e487b7100000000000000000000000000000000000000000000000000000000600052601160045260246000fd5b600061347482612246565b915061347f83612246565b92508282039050818111156134975761349661343a565b5b92915050565b60006134a882612246565b91506134b383612246565b92508282019050808211156134cb576134ca61343a565b5b92915050565b600081519050919050565b600082825260208201905092915050565b60006134f8826134d1565b61350281856134dc565b93506135128185602086016121b0565b61351b816121da565b840191505092915050565b600060808201905061353b60008301876122db565b61354860208301866122db565b613555604083018561250f565b818103606083015261356781846134ed565b905095945050505050565b60008151905061358181612105565b92915050565b60006020828403121561359d5761359c6120cf565b5b60006135ab84828501613572565b91505092915050565b7f4552433732313a206d696e7420746f20746865207a65726f2061646472657373600082015250565b60006135ea60208361219f565b91506135f5826135b4565b602082019050919050565b60006020820190508181036000830152613619816135dd565b9050919050565b7f4552433732313a20746f6b656e20616c7265616479206d696e74656400000000600082015250565b6000613656601c8361219f565b915061366182613620565b602082019050919050565b6000602082019050818103600083015261368581613649565b905091905056fea2646970667358221220243e09435b1d35c9d3c67bd3613a30cd7b5152b6eb22ab2287845a3e9dabd0ec64736f6c63430008110033",
  "linkReferences": {},
  "deployedLinkReferences": {}
}