{
  "_format": "hh-sol-artifact-1",
  "contractName": "KopoDocumentHandler",
  "sourceName": "contracts/KopoDocumentHandler.sol",
  "abi": [
    {
      "inputs": [
        {
          "internalType": "address",
          "name": "_addressProvider",
          "type": "address"
        }
      ],
      "stateMutability": "nonpayable",
      "type": "constructor"
    },
    {
      "anonymous": false,
      "inputs": [
        {
          "indexed": true,
          "internalType": "address",
          "name": "owner",
          "type": "address"
        },
        {
          "indexed": true,
          "internalType": "address",
          "name": "approved",
          "type": "address"
        },
        {
          "indexed": true,
          "internalType": "uint256",
          "name": "tokenId",
          "type": "uint256"
        }
      ],
      "name": "Approval",
      "type": "event"
    },
    {
      "anonymous": false,
      "inputs": [
        {
          "indexed": true,
          "internalType": "address",
          "name": "owner",
          "type": "address"
        },
        {
          "indexed": true,
          "internalType": "address",
          "name": "operator",
          "type": "address"
        },
        {
          "indexed": false,
          "internalType": "bool",
          "name": "approved",
          "type": "bool"
        }
      ],
      "name": "ApprovalForAll",
      "type": "event"
    },
    {
      "anonymous": false,
      "inputs": [
        {
          "indexed": false,
          "internalType": "string",
          "name": "_documentCID",
          "type": "string"
        },
        {
          "indexed": false,
          "internalType": "address",
          "name": "_from",
          "type": "address"
        },
        {
          "indexed": true,
          "internalType": "address",
          "name": "_toFolder",
          "type": "address"
        }
      ],
      "name": "TokenRejected",
      "type": "event"
    },
    {
      "anonymous": false,
      "inputs": [
        {
          "indexed": false,
          "internalType": "address",
          "name": "_from",
          "type": "address"
        },
        {
          "indexed": false,
          "internalType": "string",
          "name": "_documentCID",
          "type": "string"
        },
        {
          "indexed": true,
          "internalType": "address",
          "name": "_toOblige",
          "type": "address"
        },
        {
          "indexed": true,
          "internalType": "address",
          "name": "_toFolder",
          "type": "address"
        }
      ],
      "name": "TokenRequested",
      "type": "event"
    },
    {
      "anonymous": false,
      "inputs": [
        {
          "indexed": true,
          "internalType": "address",
          "name": "from",
          "type": "address"
        },
        {
          "indexed": true,
          "internalType": "address",
          "name": "to",
          "type": "address"
        },
        {
          "indexed": true,
          "internalType": "uint256",
          "name": "tokenId",
          "type": "uint256"
        }
      ],
      "name": "Transfer",
      "type": "event"
    },
    {
      "inputs": [
        {
          "internalType": "address",
          "name": "to",
          "type": "address"
        },
        {
          "internalType": "uint256",
          "name": "tokenId",
          "type": "uint256"
        }
      ],
      "name": "approve",
      "outputs": [],
      "stateMutability": "nonpayable",
      "type": "function"
    },
    {
      "inputs": [
        {
          "internalType": "address",
          "name": "owner",
          "type": "address"
        }
      ],
      "name": "balanceOf",
      "outputs": [
        {
          "internalType": "uint256",
          "name": "",
          "type": "uint256"
        }
      ],
      "stateMutability": "view",
      "type": "function"
    },
    {
      "inputs": [
        {
          "internalType": "uint256",
          "name": "tokenId",
          "type": "uint256"
        }
      ],
      "name": "getApproved",
      "outputs": [
        {
          "internalType": "address",
          "name": "",
          "type": "address"
        }
      ],
      "stateMutability": "view",
      "type": "function"
    },
    {
      "inputs": [
        {
          "internalType": "address",
          "name": "owner",
          "type": "address"
        },
        {
          "internalType": "address",
          "name": "operator",
          "type": "address"
        }
      ],
      "name": "isApprovedForAll",
      "outputs": [
        {
          "internalType": "bool",
          "name": "",
          "type": "bool"
        }
      ],
      "stateMutability": "view",
      "type": "function"
    },
    {
      "inputs": [],
      "name": "name",
      "outputs": [
        {
          "internalType": "string",
          "name": "",
          "type": "string"
        }
      ],
      "stateMutability": "view",
      "type": "function"
    },
    {
      "inputs": [
        {
          "internalType": "uint256",
          "name": "tokenId",
          "type": "uint256"
        }
      ],
      "name": "ownerOf",
      "outputs": [
        {
          "internalType": "address",
          "name": "",
          "type": "address"
        }
      ],
      "stateMutability": "view",
      "type": "function"
    },
    {
      "inputs": [
        {
          "internalType": "string",
          "name": "_documentCID",
          "type": "string"
        }
      ],
      "name": "rejectTokenRequest",
      "outputs": [],
      "stateMutability": "nonpayable",
      "type": "function"
    },
    {
      "inputs": [
        {
          "internalType": "string",
          "name": "_documentCID",
          "type": "string"
        },
        {
          "internalType": "address",
          "name": "_toOblige",
          "type": "address"
        },
        {
          "internalType": "address",
          "name": "_toFolder",
          "type": "address"
        }
      ],
      "name": "requestToken",
      "outputs": [],
      "stateMutability": "nonpayable",
      "type": "function"
    },
    {
      "inputs": [
        {
          "internalType": "string",
          "name": "_documentCID",
          "type": "string"
        },
        {
          "internalType": "string",
          "name": "_metadataCID",
          "type": "string"
        }
      ],
      "name": "safeMint",
      "outputs": [],
      "stateMutability": "nonpayable",
      "type": "function"
    },
    {
      "inputs": [
        {
          "internalType": "address",
          "name": "from",
          "type": "address"
        },
        {
          "internalType": "address",
          "name": "to",
          "type": "address"
        },
        {
          "internalType": "uint256",
          "name": "tokenId",
          "type": "uint256"
        }
      ],
      "name": "safeTransferFrom",
      "outputs": [],
      "stateMutability": "nonpayable",
      "type": "function"
    },
    {
      "inputs": [
        {
          "internalType": "address",
          "name": "from",
          "type": "address"
        },
        {
          "internalType": "address",
          "name": "to",
          "type": "address"
        },
        {
          "internalType": "uint256",
          "name": "tokenId",
          "type": "uint256"
        },
        {
          "internalType": "bytes",
          "name": "data",
          "type": "bytes"
        }
      ],
      "name": "safeTransferFrom",
      "outputs": [],
      "stateMutability": "nonpayable",
      "type": "function"
    },
    {
      "inputs": [
        {
          "internalType": "address",
          "name": "operator",
          "type": "address"
        },
        {
          "internalType": "bool",
          "name": "approved",
          "type": "bool"
        }
      ],
      "name": "setApprovalForAll",
      "outputs": [],
      "stateMutability": "nonpayable",
      "type": "function"
    },
    {
      "inputs": [
        {
          "internalType": "bytes4",
          "name": "interfaceId",
          "type": "bytes4"
        }
      ],
      "name": "supportsInterface",
      "outputs": [
        {
          "internalType": "bool",
          "name": "",
          "type": "bool"
        }
      ],
      "stateMutability": "view",
      "type": "function"
    },
    {
      "inputs": [],
      "name": "symbol",
      "outputs": [
        {
          "internalType": "string",
          "name": "",
          "type": "string"
        }
      ],
      "stateMutability": "view",
      "type": "function"
    },
    {
      "inputs": [
        {
          "internalType": "string",
          "name": "",
          "type": "string"
        }
      ],
      "name": "tokenRequests",
      "outputs": [
        {
          "internalType": "address",
          "name": "from",
          "type": "address"
        },
        {
          "internalType": "address",
          "name": "to",
          "type": "address"
        },
        {
          "internalType": "address",
          "name": "folder",
          "type": "address"
        },
        {
          "internalType": "enum KopoDocumentHandler.RequestStatus",
          "name": "status",
          "type": "uint8"
        }
      ],
      "stateMutability": "view",
      "type": "function"
    },
    {
      "inputs": [
        {
          "internalType": "uint256",
          "name": "_tokenId",
          "type": "uint256"
        }
      ],
      "name": "tokenURI",
      "outputs": [
        {
          "internalType": "string",
          "name": "",
          "type": "string"
        }
      ],
      "stateMutability": "view",
      "type": "function"
    },
    {
      "inputs": [
        {
          "internalType": "address",
          "name": "from",
          "type": "address"
        },
        {
          "internalType": "address",
          "name": "to",
          "type": "address"
        },
        {
          "internalType": "uint256",
          "name": "tokenId",
          "type": "uint256"
        }
      ],
      "name": "transferFrom",
      "outputs": [],
      "stateMutability": "nonpayable",
      "type": "function"
    }
  ],
  "bytecode": "0x60a06040523480156200001157600080fd5b50604051620024b5380380620024b58339810160408190526200003491620000bb565b6040518060400160405280601381526020017f4b6f706f446f63756d656e7448616e646c6572000000000000000000000000008152506040518060400160405280600381526020016209688960eb1b815250816000908162000097919062000192565b506001620000a6828262000192565b5050506001600160a01b03166080526200025e565b600060208284031215620000ce57600080fd5b81516001600160a01b0381168114620000e657600080fd5b9392505050565b634e487b7160e01b600052604160045260246000fd5b600181811c908216806200011857607f821691505b6020821081036200013957634e487b7160e01b600052602260045260246000fd5b50919050565b601f8211156200018d57600081815260208120601f850160051c81016020861015620001685750805b601f850160051c820191505b81811015620001895782815560010162000174565b5050505b505050565b81516001600160401b03811115620001ae57620001ae620000ed565b620001c681620001bf845462000103565b846200013f565b602080601f831160018114620001fe5760008415620001e55750858301515b600019600386901b1c1916600185901b17855562000189565b600085815260208120601f198616915b828110156200022f578886015182559484019460019091019084016200020e565b50858210156200024e5787850151600019600388901b60f8161c191681555b5050505050600190811b01905550565b6080516122266200028f600039600081816104ff0152818161062e015281816107cb0152610d9101526122266000f3fe608060405234801561001057600080fd5b506004361061010b5760003560e01c80634fa1f7ae116100a257806395d89b411161007157806395d89b4114610283578063a22cb4651461028b578063b88d4fde1461029e578063c87b56dd146102b1578063e985e9c5146102c457600080fd5b80634fa1f7ae146101d95780636352211e146101ec57806370a08231146101ff5780637e7e29d81461022057600080fd5b80631566f523116100de5780631566f5231461018d57806323b872dd146101a05780632686990c146101b357806342842e0e146101c657600080fd5b806301ffc9a71461011057806306fdde0314610138578063081812fc1461014d578063095ea7b314610178575b600080fd5b61012361011e36600461198e565b6102d7565b60405190151581526020015b60405180910390f35b610140610329565b60405161012f91906119f8565b61016061015b366004611a0b565b6103bb565b6040516001600160a01b03909116815260200161012f565b61018b610186366004611a39565b6103e2565b005b61018b61019b366004611aae565b6104fc565b61018b6101ae366004611b16565b610b65565b61018b6101c1366004611b57565b610b96565b61018b6101d4366004611b16565b610d73565b61018b6101e7366004611b99565b610d8e565b6101606101fa366004611a0b565b610ffb565b61021261020d366004611c05565b61105b565b60405190815260200161012f565b61027361022e366004611cae565b80516020818301810180516008825292820191909301209152805460018201546002909201546001600160a01b0391821692821691811690600160a01b900460ff1684565b60405161012f9493929190611d0d565b6101406110e1565b61018b610299366004611d68565b6110f0565b61018b6102ac366004611da1565b6110ff565b6101406102bf366004611a0b565b611137565b6101236102d2366004611e21565b61123a565b60006001600160e01b031982166380ac58cd60e01b148061030857506001600160e01b03198216635b5e139f60e01b145b8061032357506301ffc9a760e01b6001600160e01b03198316145b92915050565b60606000805461033890611e4f565b80601f016020809104026020016040519081016040528092919081815260200182805461036490611e4f565b80156103b15780601f10610386576101008083540402835291602001916103b1565b820191906000526020600020905b81548152906001019060200180831161039457829003601f168201915b5050505050905090565b60006103c682611268565b506000908152600460205260409020546001600160a01b031690565b60006103ed82610ffb565b9050806001600160a01b0316836001600160a01b03160361045f5760405162461bcd60e51b815260206004820152602160248201527f4552433732313a20617070726f76616c20746f2063757272656e74206f776e656044820152603960f91b60648201526084015b60405180910390fd5b336001600160a01b038216148061047b575061047b813361123a565b6104ed5760405162461bcd60e51b815260206004820152603d60248201527f4552433732313a20617070726f76652063616c6c6572206973206e6f7420746f60448201527f6b656e206f776e6572206f7220617070726f76656420666f7220616c6c0000006064820152608401610456565b6104f783836112ca565b505050565b337f00000000000000000000000000000000000000000000000000000000000000006001600160a01b031663cf6dac296040518163ffffffff1660e01b8152600401602060405180830381865afa15801561055b573d6000803e3d6000fd5b505050506040513d601f19601f8201168201806040525081019061057f9190611e89565b60405163b9209e3360e01b81526001600160a01b038381166004830152919091169063b9209e3390602401602060405180830381865afa1580156105c7573d6000803e3d6000fd5b505050506040513d601f19601f820116820180604052508101906105eb9190611ea6565b151560011461062b5760405162461bcd60e51b815260206004820152600c60248201526b1b9bdd081d995c9a599a595960a21b6044820152606401610456565b827f00000000000000000000000000000000000000000000000000000000000000006001600160a01b031663cf6dac296040518163ffffffff1660e01b8152600401602060405180830381865afa15801561068a573d6000803e3d6000fd5b505050506040513d601f19601f820116820180604052508101906106ae9190611e89565b60405163540f5c2b60e01b81526001600160a01b038381166004830152919091169063540f5c2b90602401602060405180830381865afa1580156106f6573d6000803e3d6000fd5b505050506040513d601f19601f8201168201806040525081019061071a9190611ea6565b15156001146107585760405162461bcd60e51b815260206004820152600a6024820152696e6f74206f626c69676560b01b6044820152606401610456565b826000816001600160a01b0316632a2e506a6040518163ffffffff1660e01b8152600401602060405180830381865afa158015610799573d6000803e3d6000fd5b505050506040513d601f19601f820116820180604052508101906107bd9190611ec3565b9050816001600160a01b03167f00000000000000000000000000000000000000000000000000000000000000006001600160a01b03166346c868086040518163ffffffff1660e01b8152600401602060405180830381865afa158015610827573d6000803e3d6000fd5b505050506040513d601f19601f8201168201806040525081019061084b9190611e89565b6001600160a01b0316636bfac3bd836040518263ffffffff1660e01b815260040161087891815260200190565b602060405180830381865afa158015610895573d6000803e3d6000fd5b505050506040513d601f19601f820116820180604052508101906108b99190611e89565b6001600160a01b03161461090f5760405162461bcd60e51b815260206004820152601760248201527f696e76616c696420666f6c64657220636f6e74726163740000000000000000006044820152606401610456565b8433806001600160a01b0316826001600160a01b0316638da5cb5b6040518163ffffffff1660e01b8152600401602060405180830381865afa158015610959573d6000803e3d6000fd5b505050506040513d601f19601f8201168201806040525081019061097d9190611e89565b6001600160a01b0316146109c65760405162461bcd60e51b815260206004820152601060248201526f3737ba103337b63232b91037bbb732b960811b6044820152606401610456565b60006001600160a01b031660088b8b6040516109e3929190611edc565b908152604051908190036020019020546001600160a01b031614610a3d5760405162461bcd60e51b8152602060048201526011602482015270185b1c9958591e481c995c5d595cdd1959607a1b6044820152606401610456565b604080516080810182523381526001600160a01b038a811660208301528916818301526001606082015290518190600890610a7b908e908e90611edc565b9081526040805160209281900383019020835181546001600160a01b03199081166001600160a01b0392831617835593850151600183018054861691831691909117905591840151600282018054948516919093169081178355606085015191939192916001600160a81b03191617600160a01b836003811115610b0157610b01611cf7565b0217905550905050876001600160a01b0316896001600160a01b03167f8a68583cae60acade1305e82147874052ea1f01bf135f5528052505bf3b83cc8338e8e604051610b5093929190611f15565b60405180910390a35050505050505050505050565b610b6f3382611338565b610b8b5760405162461bcd60e51b815260040161045690611f43565b6104f7838383611397565b336001600160a01b031660088383604051610bb2929190611edc565b908152604051908190036020019020600101546001600160a01b031614610c0f5760405162461bcd60e51b81526020600482015260116024820152706e6f742070726f706572206f626c69676560781b6044820152606401610456565b600160088383604051610c23929190611edc565b9081526040519081900360200190206002015460ff600160a01b909104166003811115610c5257610c52611cf7565b14610c905760405162461bcd60e51b815260206004820152600e60248201526d696e76616c69642073746174757360901b6044820152606401610456565b600260088383604051610ca4929190611edc565b908152604051908190036020019020600201805460ff60a01b1916600160a01b836003811115610cd657610cd6611cf7565b021790555060088282604051610ced929190611edc565b908152604051908190036020018120600201546001600160a01b0316907f0519e7be1aa241b52378a6a08e7f399f732647d5c700b16165281f9f35424b399084908490600890610d409084908490611edc565b90815260405190819003602001812054610d679392916001600160a01b0390911690611f90565b60405180910390a25050565b6104f7838383604051806020016040528060008152506110ff565b337f00000000000000000000000000000000000000000000000000000000000000006001600160a01b031663cf6dac296040518163ffffffff1660e01b8152600401602060405180830381865afa158015610ded573d6000803e3d6000fd5b505050506040513d601f19601f82011682018060405250810190610e119190611e89565b60405163540f5c2b60e01b81526001600160a01b038381166004830152919091169063540f5c2b90602401602060405180830381865afa158015610e59573d6000803e3d6000fd5b505050506040513d601f19601f82011682018060405250810190610e7d9190611ea6565b1515600114610ebb5760405162461bcd60e51b815260206004820152600a6024820152696e6f74206f626c69676560b01b6044820152606401610456565b600160088686604051610ecf929190611edc565b9081526040519081900360200190206002015460ff600160a01b909104166003811115610efe57610efe611cf7565b14610f3c5760405162461bcd60e51b815260206004820152600e60248201526d696e76616c69642073746174757360901b6044820152606401610456565b600360088686604051610f50929190611edc565b908152604051908190036020019020600201805460ff60a01b1916600160a01b836003811115610f8257610f82611cf7565b02179055506000610f9260065490565b9050610fa2600680546001019055565b6000818152600760205260409020610fbb848683612002565b50610ff360088787604051610fd1929190611edc565b908152604051908190036020019020600201546001600160a01b031682611508565b505050505050565b6000818152600260205260408120546001600160a01b0316806103235760405162461bcd60e51b8152602060048201526018602482015277115490cdcc8c4e881a5b9d985b1a59081d1bdad95b88125160421b6044820152606401610456565b60006001600160a01b0382166110c55760405162461bcd60e51b815260206004820152602960248201527f4552433732313a2061646472657373207a65726f206973206e6f7420612076616044820152683634b21037bbb732b960b91b6064820152608401610456565b506001600160a01b031660009081526003602052604090205490565b60606001805461033890611e4f565b6110fb338383611522565b5050565b6111093383611338565b6111255760405162461bcd60e51b815260040161045690611f43565b611131848484846115f0565b50505050565b600081815260076020526040902080546060919061115490611e4f565b905060000361119c5760405162461bcd60e51b81526020600482015260146024820152731d1bdad95b88191bd95cc81b9bdd08195e1a5cdd60621b6044820152606401610456565b600082815260076020526040902080546111b590611e4f565b80601f01602080910402602001604051908101604052809291908181526020018280546111e190611e4f565b801561122e5780601f106112035761010080835404028352916020019161122e565b820191906000526020600020905b81548152906001019060200180831161121157829003601f168201915b50505050509050919050565b6001600160a01b03918216600090815260056020908152604080832093909416825291909152205460ff1690565b6000818152600260205260409020546001600160a01b03166112c75760405162461bcd60e51b8152602060048201526018602482015277115490cdcc8c4e881a5b9d985b1a59081d1bdad95b88125160421b6044820152606401610456565b50565b600081815260046020526040902080546001600160a01b0319166001600160a01b03841690811790915581906112ff82610ffb565b6001600160a01b03167f8c5be1e5ebec7d5bd14f71427d1e84f3dd0314c0f7b2291e5b200ac8c7c3b92560405160405180910390a45050565b60008061134483610ffb565b9050806001600160a01b0316846001600160a01b0316148061136b575061136b818561123a565b8061138f5750836001600160a01b0316611384846103bb565b6001600160a01b0316145b949350505050565b826001600160a01b03166113aa82610ffb565b6001600160a01b0316146113d05760405162461bcd60e51b8152600401610456906120c3565b6001600160a01b0382166114325760405162461bcd60e51b8152602060048201526024808201527f4552433732313a207472616e7366657220746f20746865207a65726f206164646044820152637265737360e01b6064820152608401610456565b61143f8383836001611623565b826001600160a01b031661145282610ffb565b6001600160a01b0316146114785760405162461bcd60e51b8152600401610456906120c3565b600081815260046020908152604080832080546001600160a01b03199081169091556001600160a01b0387811680865260038552838620805460001901905590871680865283862080546001019055868652600290945282852080549092168417909155905184937fddf252ad1be2c89b69c2b068fc378daa952ba7f163c4a11628f55a4df523b3ef91a4505050565b6110fb8282604051806020016040528060008152506116ab565b816001600160a01b0316836001600160a01b0316036115835760405162461bcd60e51b815260206004820152601960248201527f4552433732313a20617070726f766520746f2063616c6c6572000000000000006044820152606401610456565b6001600160a01b03838116600081815260056020908152604080832094871680845294825291829020805460ff191686151590811790915591519182527f17307eab39ab6107e8899845ad3d59bd9653f200f220920489ca2b5937696c31910160405180910390a3505050565b6115fb848484611397565b611607848484846116de565b6111315760405162461bcd60e51b815260040161045690612108565b6001811115611131576001600160a01b03841615611669576001600160a01b03841660009081526003602052604081208054839290611663908490612170565b90915550505b6001600160a01b03831615611131576001600160a01b038316600090815260036020526040812080548392906116a0908490612183565b909155505050505050565b6116b583836117df565b6116c260008484846116de565b6104f75760405162461bcd60e51b815260040161045690612108565b60006001600160a01b0384163b156117d457604051630a85bd0160e11b81526001600160a01b0385169063150b7a0290611722903390899088908890600401612196565b6020604051808303816000875af192505050801561175d575060408051601f3d908101601f1916820190925261175a918101906121d3565b60015b6117ba573d80801561178b576040519150601f19603f3d011682016040523d82523d6000602084013e611790565b606091505b5080516000036117b25760405162461bcd60e51b815260040161045690612108565b805181602001fd5b6001600160e01b031916630a85bd0160e11b14905061138f565b506001949350505050565b6001600160a01b0382166118355760405162461bcd60e51b815260206004820181905260248201527f4552433732313a206d696e7420746f20746865207a65726f20616464726573736044820152606401610456565b6000818152600260205260409020546001600160a01b03161561189a5760405162461bcd60e51b815260206004820152601c60248201527f4552433732313a20746f6b656e20616c7265616479206d696e746564000000006044820152606401610456565b6118a8600083836001611623565b6000818152600260205260409020546001600160a01b03161561190d5760405162461bcd60e51b815260206004820152601c60248201527f4552433732313a20746f6b656e20616c7265616479206d696e746564000000006044820152606401610456565b6001600160a01b038216600081815260036020908152604080832080546001019055848352600290915280822080546001600160a01b0319168417905551839291907fddf252ad1be2c89b69c2b068fc378daa952ba7f163c4a11628f55a4df523b3ef908290a45050565b6001600160e01b0319811681146112c757600080fd5b6000602082840312156119a057600080fd5b81356119ab81611978565b9392505050565b6000815180845260005b818110156119d8576020818501810151868301820152016119bc565b506000602082860101526020601f19601f83011685010191505092915050565b6020815260006119ab60208301846119b2565b600060208284031215611a1d57600080fd5b5035919050565b6001600160a01b03811681146112c757600080fd5b60008060408385031215611a4c57600080fd5b8235611a5781611a24565b946020939093013593505050565b60008083601f840112611a7757600080fd5b50813567ffffffffffffffff811115611a8f57600080fd5b602083019150836020828501011115611aa757600080fd5b9250929050565b60008060008060608587031215611ac457600080fd5b843567ffffffffffffffff811115611adb57600080fd5b611ae787828801611a65565b9095509350506020850135611afb81611a24565b91506040850135611b0b81611a24565b939692955090935050565b600080600060608486031215611b2b57600080fd5b8335611b3681611a24565b92506020840135611b4681611a24565b929592945050506040919091013590565b60008060208385031215611b6a57600080fd5b823567ffffffffffffffff811115611b8157600080fd5b611b8d85828601611a65565b90969095509350505050565b60008060008060408587031215611baf57600080fd5b843567ffffffffffffffff80821115611bc757600080fd5b611bd388838901611a65565b90965094506020870135915080821115611bec57600080fd5b50611bf987828801611a65565b95989497509550505050565b600060208284031215611c1757600080fd5b81356119ab81611a24565b634e487b7160e01b600052604160045260246000fd5b600067ffffffffffffffff80841115611c5357611c53611c22565b604051601f8501601f19908116603f01168101908282118183101715611c7b57611c7b611c22565b81604052809350858152868686011115611c9457600080fd5b858560208301376000602087830101525050509392505050565b600060208284031215611cc057600080fd5b813567ffffffffffffffff811115611cd757600080fd5b8201601f81018413611ce857600080fd5b61138f84823560208401611c38565b634e487b7160e01b600052602160045260246000fd5b6001600160a01b0385811682528481166020830152831660408201526080810160048310611d4b57634e487b7160e01b600052602160045260246000fd5b82606083015295945050505050565b80151581146112c757600080fd5b60008060408385031215611d7b57600080fd5b8235611d8681611a24565b91506020830135611d9681611d5a565b809150509250929050565b60008060008060808587031215611db757600080fd5b8435611dc281611a24565b93506020850135611dd281611a24565b925060408501359150606085013567ffffffffffffffff811115611df557600080fd5b8501601f81018713611e0657600080fd5b611e1587823560208401611c38565b91505092959194509250565b60008060408385031215611e3457600080fd5b8235611e3f81611a24565b91506020830135611d9681611a24565b600181811c90821680611e6357607f821691505b602082108103611e8357634e487b7160e01b600052602260045260246000fd5b50919050565b600060208284031215611e9b57600080fd5b81516119ab81611a24565b600060208284031215611eb857600080fd5b81516119ab81611d5a565b600060208284031215611ed557600080fd5b5051919050565b8183823760009101908152919050565b81835281816020850137506000828201602090810191909152601f909101601f19169091010190565b6001600160a01b0384168152604060208201819052600090611f3a9083018486611eec565b95945050505050565b6020808252602d908201527f4552433732313a2063616c6c6572206973206e6f7420746f6b656e206f776e6560408201526c1c881bdc88185c1c1c9bdd9959609a1b606082015260800190565b604081526000611fa4604083018587611eec565b905060018060a01b0383166020830152949350505050565b601f8211156104f757600081815260208120601f850160051c81016020861015611fe35750805b601f850160051c820191505b81811015610ff357828155600101611fef565b67ffffffffffffffff83111561201a5761201a611c22565b61202e836120288354611e4f565b83611fbc565b6000601f841160018114612062576000851561204a5750838201355b600019600387901b1c1916600186901b1783556120bc565b600083815260209020601f19861690835b828110156120935786850135825560209485019460019092019101612073565b50868210156120b05760001960f88860031b161c19848701351681555b505060018560011b0183555b5050505050565b60208082526025908201527f4552433732313a207472616e736665722066726f6d20696e636f72726563742060408201526437bbb732b960d91b606082015260800190565b60208082526032908201527f4552433732313a207472616e7366657220746f206e6f6e20455243373231526560408201527131b2b4bb32b91034b6b83632b6b2b73a32b960711b606082015260800190565b634e487b7160e01b600052601160045260246000fd5b818103818111156103235761032361215a565b808201808211156103235761032361215a565b6001600160a01b03858116825284166020820152604081018390526080606082018190526000906121c9908301846119b2565b9695505050505050565b6000602082840312156121e557600080fd5b81516119ab8161197856fea2646970667358221220c5d831148eb78b9262b7af826a632ce34bf09fc019ceefa666b5623181f2fce164736f6c63430008110033",
  "linkReferences": {},
  "deployedLinkReferences": {}
}