{
  "_format": "hh-sol-artifact-1",
  "contractName": "KopoDocumentHandler",
  "sourceName": "contracts/KopoDocumentHandler.sol",
  "abi": [
    {
      "inputs": [
        {
          "internalType": "address",
          "name": "_addressProvider",
          "type": "address"
        }
      ],
      "stateMutability": "nonpayable",
      "type": "constructor"
    },
    {
      "anonymous": false,
      "inputs": [
        {
          "indexed": true,
          "internalType": "address",
          "name": "owner",
          "type": "address"
        },
        {
          "indexed": true,
          "internalType": "address",
          "name": "approved",
          "type": "address"
        },
        {
          "indexed": true,
          "internalType": "uint256",
          "name": "tokenId",
          "type": "uint256"
        }
      ],
      "name": "Approval",
      "type": "event"
    },
    {
      "anonymous": false,
      "inputs": [
        {
          "indexed": true,
          "internalType": "address",
          "name": "owner",
          "type": "address"
        },
        {
          "indexed": true,
          "internalType": "address",
          "name": "operator",
          "type": "address"
        },
        {
          "indexed": false,
          "internalType": "bool",
          "name": "approved",
          "type": "bool"
        }
      ],
      "name": "ApprovalForAll",
      "type": "event"
    },
    {
      "anonymous": false,
      "inputs": [
        {
          "indexed": true,
          "internalType": "string",
          "name": "_documentCID",
          "type": "string"
        },
        {
          "indexed": false,
          "internalType": "address",
          "name": "_from",
          "type": "address"
        },
        {
          "indexed": true,
          "internalType": "address",
          "name": "_toFolder",
          "type": "address"
        }
      ],
      "name": "TokenRejected",
      "type": "event"
    },
    {
      "anonymous": false,
      "inputs": [
        {
          "indexed": false,
          "internalType": "address",
          "name": "_from",
          "type": "address"
        },
        {
          "indexed": false,
          "internalType": "string",
          "name": "_documentCID",
          "type": "string"
        },
        {
          "indexed": true,
          "internalType": "address",
          "name": "_toOblige",
          "type": "address"
        },
        {
          "indexed": true,
          "internalType": "address",
          "name": "_toFolder",
          "type": "address"
        }
      ],
      "name": "TokenRequested",
      "type": "event"
    },
    {
      "anonymous": false,
      "inputs": [
        {
          "indexed": true,
          "internalType": "address",
          "name": "from",
          "type": "address"
        },
        {
          "indexed": true,
          "internalType": "address",
          "name": "to",
          "type": "address"
        },
        {
          "indexed": true,
          "internalType": "uint256",
          "name": "tokenId",
          "type": "uint256"
        }
      ],
      "name": "Transfer",
      "type": "event"
    },
    {
      "inputs": [
        {
          "internalType": "address",
          "name": "to",
          "type": "address"
        },
        {
          "internalType": "uint256",
          "name": "tokenId",
          "type": "uint256"
        }
      ],
      "name": "approve",
      "outputs": [],
      "stateMutability": "nonpayable",
      "type": "function"
    },
    {
      "inputs": [
        {
          "internalType": "address",
          "name": "owner",
          "type": "address"
        }
      ],
      "name": "balanceOf",
      "outputs": [
        {
          "internalType": "uint256",
          "name": "",
          "type": "uint256"
        }
      ],
      "stateMutability": "view",
      "type": "function"
    },
    {
      "inputs": [
        {
          "internalType": "uint256",
          "name": "tokenId",
          "type": "uint256"
        }
      ],
      "name": "getApproved",
      "outputs": [
        {
          "internalType": "address",
          "name": "",
          "type": "address"
        }
      ],
      "stateMutability": "view",
      "type": "function"
    },
    {
      "inputs": [
        {
          "internalType": "address",
          "name": "owner",
          "type": "address"
        },
        {
          "internalType": "address",
          "name": "operator",
          "type": "address"
        }
      ],
      "name": "isApprovedForAll",
      "outputs": [
        {
          "internalType": "bool",
          "name": "",
          "type": "bool"
        }
      ],
      "stateMutability": "view",
      "type": "function"
    },
    {
      "inputs": [],
      "name": "name",
      "outputs": [
        {
          "internalType": "string",
          "name": "",
          "type": "string"
        }
      ],
      "stateMutability": "view",
      "type": "function"
    },
    {
      "inputs": [
        {
          "internalType": "uint256",
          "name": "tokenId",
          "type": "uint256"
        }
      ],
      "name": "ownerOf",
      "outputs": [
        {
          "internalType": "address",
          "name": "",
          "type": "address"
        }
      ],
      "stateMutability": "view",
      "type": "function"
    },
    {
      "inputs": [
        {
          "internalType": "string",
          "name": "_documentCID",
          "type": "string"
        }
      ],
      "name": "rejectTokenRequest",
      "outputs": [],
      "stateMutability": "nonpayable",
      "type": "function"
    },
    {
      "inputs": [
        {
          "internalType": "string",
          "name": "_documentCID",
          "type": "string"
        },
        {
          "internalType": "address",
          "name": "_toOblige",
          "type": "address"
        },
        {
          "internalType": "address",
          "name": "_toFolder",
          "type": "address"
        }
      ],
      "name": "requestToken",
      "outputs": [],
      "stateMutability": "nonpayable",
      "type": "function"
    },
    {
      "inputs": [
        {
          "internalType": "string",
          "name": "_documentCID",
          "type": "string"
        },
        {
          "internalType": "string",
          "name": "_metadataCID",
          "type": "string"
        }
      ],
      "name": "safeMint",
      "outputs": [],
      "stateMutability": "nonpayable",
      "type": "function"
    },
    {
      "inputs": [
        {
          "internalType": "address",
          "name": "from",
          "type": "address"
        },
        {
          "internalType": "address",
          "name": "to",
          "type": "address"
        },
        {
          "internalType": "uint256",
          "name": "tokenId",
          "type": "uint256"
        }
      ],
      "name": "safeTransferFrom",
      "outputs": [],
      "stateMutability": "nonpayable",
      "type": "function"
    },
    {
      "inputs": [
        {
          "internalType": "address",
          "name": "from",
          "type": "address"
        },
        {
          "internalType": "address",
          "name": "to",
          "type": "address"
        },
        {
          "internalType": "uint256",
          "name": "tokenId",
          "type": "uint256"
        },
        {
          "internalType": "bytes",
          "name": "data",
          "type": "bytes"
        }
      ],
      "name": "safeTransferFrom",
      "outputs": [],
      "stateMutability": "nonpayable",
      "type": "function"
    },
    {
      "inputs": [
        {
          "internalType": "address",
          "name": "operator",
          "type": "address"
        },
        {
          "internalType": "bool",
          "name": "approved",
          "type": "bool"
        }
      ],
      "name": "setApprovalForAll",
      "outputs": [],
      "stateMutability": "nonpayable",
      "type": "function"
    },
    {
      "inputs": [
        {
          "internalType": "bytes4",
          "name": "interfaceId",
          "type": "bytes4"
        }
      ],
      "name": "supportsInterface",
      "outputs": [
        {
          "internalType": "bool",
          "name": "",
          "type": "bool"
        }
      ],
      "stateMutability": "view",
      "type": "function"
    },
    {
      "inputs": [],
      "name": "symbol",
      "outputs": [
        {
          "internalType": "string",
          "name": "",
          "type": "string"
        }
      ],
      "stateMutability": "view",
      "type": "function"
    },
    {
      "inputs": [
        {
          "internalType": "uint256",
          "name": "_tokenId",
          "type": "uint256"
        }
      ],
      "name": "tokenURI",
      "outputs": [
        {
          "internalType": "string",
          "name": "",
          "type": "string"
        }
      ],
      "stateMutability": "view",
      "type": "function"
    },
    {
      "inputs": [
        {
          "internalType": "address",
          "name": "from",
          "type": "address"
        },
        {
          "internalType": "address",
          "name": "to",
          "type": "address"
        },
        {
          "internalType": "uint256",
          "name": "tokenId",
          "type": "uint256"
        }
      ],
      "name": "transferFrom",
      "outputs": [],
      "stateMutability": "nonpayable",
      "type": "function"
    }
  ],
  "bytecode": "0x60a06040523480156200001157600080fd5b5060405162002305380380620023058339810160408190526200003491620000bb565b6040518060400160405280601381526020017f4b6f706f446f63756d656e7448616e646c6572000000000000000000000000008152506040518060400160405280600381526020016209688960eb1b815250816000908162000097919062000192565b506001620000a6828262000192565b5050506001600160a01b03166080526200025e565b600060208284031215620000ce57600080fd5b81516001600160a01b0381168114620000e657600080fd5b9392505050565b634e487b7160e01b600052604160045260246000fd5b600181811c908216806200011857607f821691505b6020821081036200013957634e487b7160e01b600052602260045260246000fd5b50919050565b601f8211156200018d57600081815260208120601f850160051c81016020861015620001685750805b601f850160051c820191505b81811015620001895782815560010162000174565b5050505b505050565b81516001600160401b03811115620001ae57620001ae620000ed565b620001c681620001bf845462000103565b846200013f565b602080601f831160018114620001fe5760008415620001e55750858301515b600019600386901b1c1916600185901b17855562000189565b600085815260208120601f198616915b828110156200022f578886015182559484019460019091019084016200020e565b50858210156200024e5787850151600019600388901b60f8161c191681555b5050505050600190811b01905550565b6080516120766200028f60003960008181610491015281816105c00152818161075d0152610caa01526120766000f3fe608060405234801561001057600080fd5b50600436106101005760003560e01c80634fa1f7ae11610097578063a22cb46511610066578063a22cb4651461021d578063b88d4fde14610230578063c87b56dd14610243578063e985e9c51461025657600080fd5b80634fa1f7ae146101ce5780636352211e146101e157806370a08231146101f457806395d89b411461021557600080fd5b80631566f523116100d35780631566f5231461018257806323b872dd146101955780632686990c146101a857806342842e0e146101bb57600080fd5b806301ffc9a71461010557806306fdde031461012d578063081812fc14610142578063095ea7b31461016d575b600080fd5b61011861011336600461183e565b610269565b60405190151581526020015b60405180910390f35b6101356102bb565b60405161012491906118a8565b6101556101503660046118bb565b61034d565b6040516001600160a01b039091168152602001610124565b61018061017b3660046118e9565b610374565b005b61018061019036600461195e565b61048e565b6101806101a33660046119c6565b610af7565b6101806101b6366004611a07565b610b28565b6101806101c93660046119c6565b610c8c565b6101806101dc366004611a49565b610ca7565b6101556101ef3660046118bb565b610f14565b610207610202366004611ab5565b610f74565b604051908152602001610124565b610135610ffa565b61018061022b366004611ae0565b611009565b61018061023e366004611b2f565b611018565b6101356102513660046118bb565b611050565b610118610264366004611c0f565b6110ea565b60006001600160e01b031982166380ac58cd60e01b148061029a57506001600160e01b03198216635b5e139f60e01b145b806102b557506301ffc9a760e01b6001600160e01b03198316145b92915050565b6060600080546102ca90611c3d565b80601f01602080910402602001604051908101604052809291908181526020018280546102f690611c3d565b80156103435780601f1061031857610100808354040283529160200191610343565b820191906000526020600020905b81548152906001019060200180831161032657829003601f168201915b5050505050905090565b600061035882611118565b506000908152600460205260409020546001600160a01b031690565b600061037f82610f14565b9050806001600160a01b0316836001600160a01b0316036103f15760405162461bcd60e51b815260206004820152602160248201527f4552433732313a20617070726f76616c20746f2063757272656e74206f776e656044820152603960f91b60648201526084015b60405180910390fd5b336001600160a01b038216148061040d575061040d81336110ea565b61047f5760405162461bcd60e51b815260206004820152603d60248201527f4552433732313a20617070726f76652063616c6c6572206973206e6f7420746f60448201527f6b656e206f776e6572206f7220617070726f76656420666f7220616c6c00000060648201526084016103e8565b610489838361117a565b505050565b337f00000000000000000000000000000000000000000000000000000000000000006001600160a01b031663cf6dac296040518163ffffffff1660e01b8152600401602060405180830381865afa1580156104ed573d6000803e3d6000fd5b505050506040513d601f19601f820116820180604052508101906105119190611c77565b60405163b9209e3360e01b81526001600160a01b038381166004830152919091169063b9209e3390602401602060405180830381865afa158015610559573d6000803e3d6000fd5b505050506040513d601f19601f8201168201806040525081019061057d9190611c94565b15156001146105bd5760405162461bcd60e51b815260206004820152600c60248201526b1b9bdd081d995c9a599a595960a21b60448201526064016103e8565b827f00000000000000000000000000000000000000000000000000000000000000006001600160a01b031663cf6dac296040518163ffffffff1660e01b8152600401602060405180830381865afa15801561061c573d6000803e3d6000fd5b505050506040513d601f19601f820116820180604052508101906106409190611c77565b60405163540f5c2b60e01b81526001600160a01b038381166004830152919091169063540f5c2b90602401602060405180830381865afa158015610688573d6000803e3d6000fd5b505050506040513d601f19601f820116820180604052508101906106ac9190611c94565b15156001146106ea5760405162461bcd60e51b815260206004820152600a6024820152696e6f74206f626c69676560b01b60448201526064016103e8565b826000816001600160a01b0316632a2e506a6040518163ffffffff1660e01b8152600401602060405180830381865afa15801561072b573d6000803e3d6000fd5b505050506040513d601f19601f8201168201806040525081019061074f9190611cb1565b9050816001600160a01b03167f00000000000000000000000000000000000000000000000000000000000000006001600160a01b03166346c868086040518163ffffffff1660e01b8152600401602060405180830381865afa1580156107b9573d6000803e3d6000fd5b505050506040513d601f19601f820116820180604052508101906107dd9190611c77565b6001600160a01b0316636bfac3bd836040518263ffffffff1660e01b815260040161080a91815260200190565b602060405180830381865afa158015610827573d6000803e3d6000fd5b505050506040513d601f19601f8201168201806040525081019061084b9190611c77565b6001600160a01b0316146108a15760405162461bcd60e51b815260206004820152601760248201527f696e76616c696420666f6c64657220636f6e747261637400000000000000000060448201526064016103e8565b8433806001600160a01b0316826001600160a01b0316638da5cb5b6040518163ffffffff1660e01b8152600401602060405180830381865afa1580156108eb573d6000803e3d6000fd5b505050506040513d601f19601f8201168201806040525081019061090f9190611c77565b6001600160a01b0316146109585760405162461bcd60e51b815260206004820152601060248201526f3737ba103337b63232b91037bbb732b960811b60448201526064016103e8565b60006001600160a01b031660088b8b604051610975929190611cca565b908152604051908190036020019020546001600160a01b0316146109cf5760405162461bcd60e51b8152602060048201526011602482015270185b1c9958591e481c995c5d595cdd1959607a1b60448201526064016103e8565b604080516080810182523381526001600160a01b038a811660208301528916818301526001606082015290518190600890610a0d908e908e90611cca565b9081526040805160209281900383019020835181546001600160a01b03199081166001600160a01b0392831617835593850151600183018054861691831691909117905591840151600282018054948516919093169081178355606085015191939192916001600160a81b03191617600160a01b836003811115610a9357610a93611cda565b0217905550905050876001600160a01b0316896001600160a01b03167f8a68583cae60acade1305e82147874052ea1f01bf135f5528052505bf3b83cc8338e8e604051610ae293929190611cf0565b60405180910390a35050505050505050505050565b610b0133826111e8565b610b1d5760405162461bcd60e51b81526004016103e890611d30565b610489838383611247565b336001600160a01b031660088383604051610b44929190611cca565b908152604051908190036020019020600101546001600160a01b031614610ba15760405162461bcd60e51b81526020600482015260116024820152706e6f742070726f706572206f626c69676560781b60448201526064016103e8565b600260088383604051610bb5929190611cca565b908152604051908190036020019020600201805460ff60a01b1916600160a01b836003811115610be757610be7611cda565b021790555060088282604051610bfe929190611cca565b908152604051908190036020018120600201546001600160a01b031690610c289084908490611cca565b60405180910390207f0519e7be1aa241b52378a6a08e7f399f732647d5c700b16165281f9f35424b3960088585604051610c63929190611cca565b90815260405160209181900382018120546001600160a01b031681520160405180910390a35050565b61048983838360405180602001604052806000815250611018565b337f00000000000000000000000000000000000000000000000000000000000000006001600160a01b031663cf6dac296040518163ffffffff1660e01b8152600401602060405180830381865afa158015610d06573d6000803e3d6000fd5b505050506040513d601f19601f82011682018060405250810190610d2a9190611c77565b60405163540f5c2b60e01b81526001600160a01b038381166004830152919091169063540f5c2b90602401602060405180830381865afa158015610d72573d6000803e3d6000fd5b505050506040513d601f19601f82011682018060405250810190610d969190611c94565b1515600114610dd45760405162461bcd60e51b815260206004820152600a6024820152696e6f74206f626c69676560b01b60448201526064016103e8565b600160088686604051610de8929190611cca565b9081526040519081900360200190206002015460ff600160a01b909104166003811115610e1757610e17611cda565b14610e555760405162461bcd60e51b815260206004820152600e60248201526d696e76616c69642073746174757360901b60448201526064016103e8565b600360088686604051610e69929190611cca565b908152604051908190036020019020600201805460ff60a01b1916600160a01b836003811115610e9b57610e9b611cda565b02179055506000610eab60065490565b9050610ebb600680546001019055565b6000818152600760205260409020610ed4848683611dc3565b50610f0c60088787604051610eea929190611cca565b908152604051908190036020019020600201546001600160a01b0316826113b8565b505050505050565b6000818152600260205260408120546001600160a01b0316806102b55760405162461bcd60e51b8152602060048201526018602482015277115490cdcc8c4e881a5b9d985b1a59081d1bdad95b88125160421b60448201526064016103e8565b60006001600160a01b038216610fde5760405162461bcd60e51b815260206004820152602960248201527f4552433732313a2061646472657373207a65726f206973206e6f7420612076616044820152683634b21037bbb732b960b91b60648201526084016103e8565b506001600160a01b031660009081526003602052604090205490565b6060600180546102ca90611c3d565b6110143383836113d2565b5050565b61102233836111e8565b61103e5760405162461bcd60e51b81526004016103e890611d30565b61104a848484846114a0565b50505050565b600081815260076020526040902080546060919061106d90611c3d565b90506000036110b55760405162461bcd60e51b81526020600482015260146024820152731d1bdad95b88191bd95cc81b9bdd08195e1a5cdd60621b60448201526064016103e8565b60008281526007602090815260409182902091516110d4929101611e84565b6040516020818303038152906040529050919050565b6001600160a01b03918216600090815260056020908152604080832093909416825291909152205460ff1690565b6000818152600260205260409020546001600160a01b03166111775760405162461bcd60e51b8152602060048201526018602482015277115490cdcc8c4e881a5b9d985b1a59081d1bdad95b88125160421b60448201526064016103e8565b50565b600081815260046020526040902080546001600160a01b0319166001600160a01b03841690811790915581906111af82610f14565b6001600160a01b03167f8c5be1e5ebec7d5bd14f71427d1e84f3dd0314c0f7b2291e5b200ac8c7c3b92560405160405180910390a45050565b6000806111f483610f14565b9050806001600160a01b0316846001600160a01b0316148061121b575061121b81856110ea565b8061123f5750836001600160a01b03166112348461034d565b6001600160a01b0316145b949350505050565b826001600160a01b031661125a82610f14565b6001600160a01b0316146112805760405162461bcd60e51b81526004016103e890611f13565b6001600160a01b0382166112e25760405162461bcd60e51b8152602060048201526024808201527f4552433732313a207472616e7366657220746f20746865207a65726f206164646044820152637265737360e01b60648201526084016103e8565b6112ef83838360016114d3565b826001600160a01b031661130282610f14565b6001600160a01b0316146113285760405162461bcd60e51b81526004016103e890611f13565b600081815260046020908152604080832080546001600160a01b03199081169091556001600160a01b0387811680865260038552838620805460001901905590871680865283862080546001019055868652600290945282852080549092168417909155905184937fddf252ad1be2c89b69c2b068fc378daa952ba7f163c4a11628f55a4df523b3ef91a4505050565b61101482826040518060200160405280600081525061155b565b816001600160a01b0316836001600160a01b0316036114335760405162461bcd60e51b815260206004820152601960248201527f4552433732313a20617070726f766520746f2063616c6c65720000000000000060448201526064016103e8565b6001600160a01b03838116600081815260056020908152604080832094871680845294825291829020805460ff191686151590811790915591519182527f17307eab39ab6107e8899845ad3d59bd9653f200f220920489ca2b5937696c31910160405180910390a3505050565b6114ab848484611247565b6114b78484848461158e565b61104a5760405162461bcd60e51b81526004016103e890611f58565b600181111561104a576001600160a01b03841615611519576001600160a01b03841660009081526003602052604081208054839290611513908490611fc0565b90915550505b6001600160a01b0383161561104a576001600160a01b03831660009081526003602052604081208054839290611550908490611fd3565b909155505050505050565b611565838361168f565b611572600084848461158e565b6104895760405162461bcd60e51b81526004016103e890611f58565b60006001600160a01b0384163b1561168457604051630a85bd0160e11b81526001600160a01b0385169063150b7a02906115d2903390899088908890600401611fe6565b6020604051808303816000875af192505050801561160d575060408051601f3d908101601f1916820190925261160a91810190612023565b60015b61166a573d80801561163b576040519150601f19603f3d011682016040523d82523d6000602084013e611640565b606091505b5080516000036116625760405162461bcd60e51b81526004016103e890611f58565b805181602001fd5b6001600160e01b031916630a85bd0160e11b14905061123f565b506001949350505050565b6001600160a01b0382166116e55760405162461bcd60e51b815260206004820181905260248201527f4552433732313a206d696e7420746f20746865207a65726f206164647265737360448201526064016103e8565b6000818152600260205260409020546001600160a01b03161561174a5760405162461bcd60e51b815260206004820152601c60248201527f4552433732313a20746f6b656e20616c7265616479206d696e7465640000000060448201526064016103e8565b6117586000838360016114d3565b6000818152600260205260409020546001600160a01b0316156117bd5760405162461bcd60e51b815260206004820152601c60248201527f4552433732313a20746f6b656e20616c7265616479206d696e7465640000000060448201526064016103e8565b6001600160a01b038216600081815260036020908152604080832080546001019055848352600290915280822080546001600160a01b0319168417905551839291907fddf252ad1be2c89b69c2b068fc378daa952ba7f163c4a11628f55a4df523b3ef908290a45050565b6001600160e01b03198116811461117757600080fd5b60006020828403121561185057600080fd5b813561185b81611828565b9392505050565b6000815180845260005b818110156118885760208185018101518683018201520161186c565b506000602082860101526020601f19601f83011685010191505092915050565b60208152600061185b6020830184611862565b6000602082840312156118cd57600080fd5b5035919050565b6001600160a01b038116811461117757600080fd5b600080604083850312156118fc57600080fd5b8235611907816118d4565b946020939093013593505050565b60008083601f84011261192757600080fd5b50813567ffffffffffffffff81111561193f57600080fd5b60208301915083602082850101111561195757600080fd5b9250929050565b6000806000806060858703121561197457600080fd5b843567ffffffffffffffff81111561198b57600080fd5b61199787828801611915565b90955093505060208501356119ab816118d4565b915060408501356119bb816118d4565b939692955090935050565b6000806000606084860312156119db57600080fd5b83356119e6816118d4565b925060208401356119f6816118d4565b929592945050506040919091013590565b60008060208385031215611a1a57600080fd5b823567ffffffffffffffff811115611a3157600080fd5b611a3d85828601611915565b90969095509350505050565b60008060008060408587031215611a5f57600080fd5b843567ffffffffffffffff80821115611a7757600080fd5b611a8388838901611915565b90965094506020870135915080821115611a9c57600080fd5b50611aa987828801611915565b95989497509550505050565b600060208284031215611ac757600080fd5b813561185b816118d4565b801515811461117757600080fd5b60008060408385031215611af357600080fd5b8235611afe816118d4565b91506020830135611b0e81611ad2565b809150509250929050565b634e487b7160e01b600052604160045260246000fd5b60008060008060808587031215611b4557600080fd5b8435611b50816118d4565b93506020850135611b60816118d4565b925060408501359150606085013567ffffffffffffffff80821115611b8457600080fd5b818701915087601f830112611b9857600080fd5b813581811115611baa57611baa611b19565b604051601f8201601f19908116603f01168101908382118183101715611bd257611bd2611b19565b816040528281528a6020848701011115611beb57600080fd5b82602086016020830137600060208483010152809550505050505092959194509250565b60008060408385031215611c2257600080fd5b8235611c2d816118d4565b91506020830135611b0e816118d4565b600181811c90821680611c5157607f821691505b602082108103611c7157634e487b7160e01b600052602260045260246000fd5b50919050565b600060208284031215611c8957600080fd5b815161185b816118d4565b600060208284031215611ca657600080fd5b815161185b81611ad2565b600060208284031215611cc357600080fd5b5051919050565b8183823760009101908152919050565b634e487b7160e01b600052602160045260246000fd5b6001600160a01b03841681526040602082018190528101829052818360608301376000818301606090810191909152601f909201601f1916010192915050565b6020808252602d908201527f4552433732313a2063616c6c6572206973206e6f7420746f6b656e206f776e6560408201526c1c881bdc88185c1c1c9bdd9959609a1b606082015260800190565b601f82111561048957600081815260208120601f850160051c81016020861015611da45750805b601f850160051c820191505b81811015610f0c57828155600101611db0565b67ffffffffffffffff831115611ddb57611ddb611b19565b611def83611de98354611c3d565b83611d7d565b6000601f841160018114611e235760008515611e0b5750838201355b600019600387901b1c1916600186901b178355611e7d565b600083815260209020601f19861690835b82811015611e545786850135825560209485019460019092019101611e34565b5086821015611e715760001960f88860031b161c19848701351681555b505060018560011b0183555b5050505050565b66697066733a2f2f60c81b81526000600760008454611ea281611c3d565b60018281168015611eba5760018114611ed357611f06565b60ff198416888701528215158302880186019450611f06565b8860005260208060002060005b85811015611efb5781548b82018a0152908401908201611ee0565b505050858389010194505b5092979650505050505050565b60208082526025908201527f4552433732313a207472616e736665722066726f6d20696e636f72726563742060408201526437bbb732b960d91b606082015260800190565b60208082526032908201527f4552433732313a207472616e7366657220746f206e6f6e20455243373231526560408201527131b2b4bb32b91034b6b83632b6b2b73a32b960711b606082015260800190565b634e487b7160e01b600052601160045260246000fd5b818103818111156102b5576102b5611faa565b808201808211156102b5576102b5611faa565b6001600160a01b038581168252841660208201526040810183905260806060820181905260009061201990830184611862565b9695505050505050565b60006020828403121561203557600080fd5b815161185b8161182856fea2646970667358221220a91407e822b3a7c316f6b165aaece96c4a4d2e9cac8167b3c69ddb73ebc92aa564736f6c63430008110033",
  "linkReferences": {},
  "deployedLinkReferences": {}
}