{
  "_format": "hh-sol-artifact-1",
  "contractName": "KopoDocumentHandler",
  "sourceName": "contracts/KopoDocumentHandler.sol",
  "abi": [
    {
      "inputs": [
        {
          "internalType": "address",
          "name": "_addressProvider",
          "type": "address"
        }
      ],
      "stateMutability": "nonpayable",
      "type": "constructor"
    },
    {
      "anonymous": false,
      "inputs": [
        {
          "indexed": true,
          "internalType": "address",
          "name": "owner",
          "type": "address"
        },
        {
          "indexed": true,
          "internalType": "address",
          "name": "approved",
          "type": "address"
        },
        {
          "indexed": true,
          "internalType": "uint256",
          "name": "tokenId",
          "type": "uint256"
        }
      ],
      "name": "Approval",
      "type": "event"
    },
    {
      "anonymous": false,
      "inputs": [
        {
          "indexed": true,
          "internalType": "address",
          "name": "owner",
          "type": "address"
        },
        {
          "indexed": true,
          "internalType": "address",
          "name": "operator",
          "type": "address"
        },
        {
          "indexed": false,
          "internalType": "bool",
          "name": "approved",
          "type": "bool"
        }
      ],
      "name": "ApprovalForAll",
      "type": "event"
    },
    {
      "anonymous": false,
      "inputs": [
        {
          "indexed": false,
          "internalType": "string",
          "name": "_documentCID",
          "type": "string"
        },
        {
          "indexed": false,
          "internalType": "address",
          "name": "_from",
          "type": "address"
        },
        {
          "indexed": true,
          "internalType": "address",
          "name": "_toFolder",
          "type": "address"
        }
      ],
      "name": "TokenRejected",
      "type": "event"
    },
    {
      "anonymous": false,
      "inputs": [
        {
          "indexed": false,
          "internalType": "address",
          "name": "_from",
          "type": "address"
        },
        {
          "indexed": false,
          "internalType": "string",
          "name": "_documentCID",
          "type": "string"
        },
        {
          "indexed": true,
          "internalType": "address",
          "name": "_toOblige",
          "type": "address"
        },
        {
          "indexed": true,
          "internalType": "address",
          "name": "_toFolder",
          "type": "address"
        }
      ],
      "name": "TokenRequested",
      "type": "event"
    },
    {
      "anonymous": false,
      "inputs": [
        {
          "indexed": true,
          "internalType": "address",
          "name": "from",
          "type": "address"
        },
        {
          "indexed": true,
          "internalType": "address",
          "name": "to",
          "type": "address"
        },
        {
          "indexed": true,
          "internalType": "uint256",
          "name": "tokenId",
          "type": "uint256"
        }
      ],
      "name": "Transfer",
      "type": "event"
    },
    {
      "inputs": [
        {
          "internalType": "address",
          "name": "to",
          "type": "address"
        },
        {
          "internalType": "uint256",
          "name": "tokenId",
          "type": "uint256"
        }
      ],
      "name": "approve",
      "outputs": [],
      "stateMutability": "nonpayable",
      "type": "function"
    },
    {
      "inputs": [
        {
          "internalType": "address",
          "name": "owner",
          "type": "address"
        }
      ],
      "name": "balanceOf",
      "outputs": [
        {
          "internalType": "uint256",
          "name": "",
          "type": "uint256"
        }
      ],
      "stateMutability": "view",
      "type": "function"
    },
    {
      "inputs": [
        {
          "internalType": "uint256",
          "name": "tokenId",
          "type": "uint256"
        }
      ],
      "name": "getApproved",
      "outputs": [
        {
          "internalType": "address",
          "name": "",
          "type": "address"
        }
      ],
      "stateMutability": "view",
      "type": "function"
    },
    {
      "inputs": [
        {
          "internalType": "address",
          "name": "owner",
          "type": "address"
        },
        {
          "internalType": "address",
          "name": "operator",
          "type": "address"
        }
      ],
      "name": "isApprovedForAll",
      "outputs": [
        {
          "internalType": "bool",
          "name": "",
          "type": "bool"
        }
      ],
      "stateMutability": "view",
      "type": "function"
    },
    {
      "inputs": [],
      "name": "name",
      "outputs": [
        {
          "internalType": "string",
          "name": "",
          "type": "string"
        }
      ],
      "stateMutability": "view",
      "type": "function"
    },
    {
      "inputs": [
        {
          "internalType": "uint256",
          "name": "tokenId",
          "type": "uint256"
        }
      ],
      "name": "ownerOf",
      "outputs": [
        {
          "internalType": "address",
          "name": "",
          "type": "address"
        }
      ],
      "stateMutability": "view",
      "type": "function"
    },
    {
      "inputs": [
        {
          "internalType": "string",
          "name": "_documentCID",
          "type": "string"
        }
      ],
      "name": "rejectTokenRequest",
      "outputs": [],
      "stateMutability": "nonpayable",
      "type": "function"
    },
    {
      "inputs": [
        {
          "internalType": "string",
          "name": "_documentCID",
          "type": "string"
        },
        {
          "internalType": "address",
          "name": "_toOblige",
          "type": "address"
        },
        {
          "internalType": "address",
          "name": "_toFolder",
          "type": "address"
        }
      ],
      "name": "requestToken",
      "outputs": [],
      "stateMutability": "nonpayable",
      "type": "function"
    },
    {
      "inputs": [
        {
          "internalType": "string",
          "name": "_documentCID",
          "type": "string"
        },
        {
          "internalType": "string",
          "name": "_metadataCID",
          "type": "string"
        }
      ],
      "name": "safeMint",
      "outputs": [],
      "stateMutability": "nonpayable",
      "type": "function"
    },
    {
      "inputs": [
        {
          "internalType": "address",
          "name": "from",
          "type": "address"
        },
        {
          "internalType": "address",
          "name": "to",
          "type": "address"
        },
        {
          "internalType": "uint256",
          "name": "tokenId",
          "type": "uint256"
        }
      ],
      "name": "safeTransferFrom",
      "outputs": [],
      "stateMutability": "nonpayable",
      "type": "function"
    },
    {
      "inputs": [
        {
          "internalType": "address",
          "name": "from",
          "type": "address"
        },
        {
          "internalType": "address",
          "name": "to",
          "type": "address"
        },
        {
          "internalType": "uint256",
          "name": "tokenId",
          "type": "uint256"
        },
        {
          "internalType": "bytes",
          "name": "data",
          "type": "bytes"
        }
      ],
      "name": "safeTransferFrom",
      "outputs": [],
      "stateMutability": "nonpayable",
      "type": "function"
    },
    {
      "inputs": [
        {
          "internalType": "address",
          "name": "operator",
          "type": "address"
        },
        {
          "internalType": "bool",
          "name": "approved",
          "type": "bool"
        }
      ],
      "name": "setApprovalForAll",
      "outputs": [],
      "stateMutability": "nonpayable",
      "type": "function"
    },
    {
      "inputs": [
        {
          "internalType": "bytes4",
          "name": "interfaceId",
          "type": "bytes4"
        }
      ],
      "name": "supportsInterface",
      "outputs": [
        {
          "internalType": "bool",
          "name": "",
          "type": "bool"
        }
      ],
      "stateMutability": "view",
      "type": "function"
    },
    {
      "inputs": [],
      "name": "symbol",
      "outputs": [
        {
          "internalType": "string",
          "name": "",
          "type": "string"
        }
      ],
      "stateMutability": "view",
      "type": "function"
    },
    {
      "inputs": [
        {
          "internalType": "string",
          "name": "",
          "type": "string"
        }
      ],
      "name": "tokenRequests",
      "outputs": [
        {
          "internalType": "address",
          "name": "from",
          "type": "address"
        },
        {
          "internalType": "address",
          "name": "to",
          "type": "address"
        },
        {
          "internalType": "address",
          "name": "folder",
          "type": "address"
        },
        {
          "internalType": "enum KopoDocumentHandler.RequestStatus",
          "name": "status",
          "type": "uint8"
        }
      ],
      "stateMutability": "view",
      "type": "function"
    },
    {
      "inputs": [
        {
          "internalType": "uint256",
          "name": "_tokenId",
          "type": "uint256"
        }
      ],
      "name": "tokenURI",
      "outputs": [
        {
          "internalType": "string",
          "name": "",
          "type": "string"
        }
      ],
      "stateMutability": "view",
      "type": "function"
    },
    {
      "inputs": [
        {
          "internalType": "address",
          "name": "from",
          "type": "address"
        },
        {
          "internalType": "address",
          "name": "to",
          "type": "address"
        },
        {
          "internalType": "uint256",
          "name": "tokenId",
          "type": "uint256"
        }
      ],
      "name": "transferFrom",
      "outputs": [],
      "stateMutability": "nonpayable",
      "type": "function"
    }
  ],
  "bytecode": "0x60a06040523480156200001157600080fd5b5060405162004a9838038062004a988339818101604052810190620000379190620001a9565b6040518060400160405280601381526020017f4b6f706f446f63756d656e7448616e646c6572000000000000000000000000008152506040518060400160405280600381526020017f4b444800000000000000000000000000000000000000000000000000000000008152508160009081620000b4919062000455565b508060019081620000c6919062000455565b505050620000e567714859cd424b75af60c01b6200013c60201b60201c565b6200010167464933aaea0af2f560c01b6200013c60201b60201c565b8073ffffffffffffffffffffffffffffffffffffffff1660808173ffffffffffffffffffffffffffffffffffffffff1681525050506200053c565b50565b600080fd5b600073ffffffffffffffffffffffffffffffffffffffff82169050919050565b6000620001718262000144565b9050919050565b620001838162000164565b81146200018f57600080fd5b50565b600081519050620001a38162000178565b92915050565b600060208284031215620001c257620001c16200013f565b5b6000620001d28482850162000192565b91505092915050565b600081519050919050565b7f4e487b7100000000000000000000000000000000000000000000000000000000600052604160045260246000fd5b7f4e487b7100000000000000000000000000000000000000000000000000000000600052602260045260246000fd5b600060028204905060018216806200025d57607f821691505b60208210810362000273576200027262000215565b5b50919050565b60008190508160005260206000209050919050565b60006020601f8301049050919050565b600082821b905092915050565b600060088302620002dd7fffffffffffffffffffffffffffffffffffffffffffffffffffffffffffffffff826200029e565b620002e986836200029e565b95508019841693508086168417925050509392505050565b6000819050919050565b6000819050919050565b600062000336620003306200032a8462000301565b6200030b565b62000301565b9050919050565b6000819050919050565b620003528362000315565b6200036a62000361826200033d565b848454620002ab565b825550505050565b600090565b6200038162000372565b6200038e81848462000347565b505050565b5b81811015620003b657620003aa60008262000377565b60018101905062000394565b5050565b601f8211156200040557620003cf8162000279565b620003da846200028e565b81016020851015620003ea578190505b62000402620003f9856200028e565b83018262000393565b50505b505050565b600082821c905092915050565b60006200042a600019846008026200040a565b1980831691505092915050565b600062000445838362000417565b9150826002028217905092915050565b6200046082620001db565b67ffffffffffffffff8111156200047c576200047b620001e6565b5b62000488825462000244565b62000495828285620003ba565b600060209050601f831160018114620004cd5760008415620004b8578287015190505b620004c4858262000437565b86555062000534565b601f198416620004dd8662000279565b60005b828110156200050757848901518255600182019150602085019450602081019050620004e0565b8683101562000527578489015162000523601f89168262000417565b8355505b6001600288020188555050505b505050505050565b60805161452b6200056d600039600081816106bb015281816108aa01528181610b47015261163b015261452b6000f3fe608060405234801561001057600080fd5b506004361061010b5760003560e01c80634fa1f7ae116100a257806395d89b411161007157806395d89b41146102c9578063a22cb465146102e7578063b88d4fde14610303578063c87b56dd1461031f578063e985e9c51461034f5761010b565b80634fa1f7ae1461021a5780636352211e1461023657806370a08231146102665780637e7e29d8146102965761010b565b80631566f523116100de5780631566f523146101aa57806323b872dd146101c65780632686990c146101e257806342842e0e146101fe5761010b565b806301ffc9a71461011057806306fdde0314610140578063081812fc1461015e578063095ea7b31461018e575b600080fd5b61012a60048036038101906101259190612c36565b61037f565b6040516101379190612c7e565b60405180910390f35b610148610461565b6040516101559190612d29565b60405180910390f35b61017860048036038101906101739190612d81565b6104f3565b6040516101859190612def565b60405180910390f35b6101a860048036038101906101a39190612e36565b610539565b005b6101c460048036038101906101bf9190612edb565b610650565b005b6101e060048036038101906101db9190612f4f565b6111f0565b005b6101fc60048036038101906101f79190612fa2565b611250565b005b61021860048036038101906102139190612f4f565b6115b0565b005b610234600480360381019061022f9190612fef565b6115d0565b005b610250600480360381019061024b9190612d81565b611a36565b60405161025d9190612def565b60405180910390f35b610280600480360381019061027b9190613070565b611abc565b60405161028d91906130ac565b60405180910390f35b6102b060048036038101906102ab91906131f7565b611b73565b6040516102c094939291906132b7565b60405180910390f35b6102d1611c26565b6040516102de9190612d29565b60405180910390f35b61030160048036038101906102fc9190613328565b611cb8565b005b61031d60048036038101906103189190613409565b611cce565b005b61033960048036038101906103349190612d81565b611d30565b6040516103469190612d29565b60405180910390f35b6103696004803603810190610364919061348c565b611e59565b6040516103769190612c7e565b60405180910390f35b60007f80ac58cd000000000000000000000000000000000000000000000000000000007bffffffffffffffffffffffffffffffffffffffffffffffffffffffff1916827bffffffffffffffffffffffffffffffffffffffffffffffffffffffff1916148061044a57507f5b5e139f000000000000000000000000000000000000000000000000000000007bffffffffffffffffffffffffffffffffffffffffffffffffffffffff1916827bffffffffffffffffffffffffffffffffffffffffffffffffffffffff1916145b8061045a575061045982611eed565b5b9050919050565b606060008054610470906134fb565b80601f016020809104026020016040519081016040528092919081815260200182805461049c906134fb565b80156104e95780601f106104be576101008083540402835291602001916104e9565b820191906000526020600020905b8154815290600101906020018083116104cc57829003601f168201915b5050505050905090565b60006104fe82611f57565b6004600083815260200190815260200160002060009054906101000a900473ffffffffffffffffffffffffffffffffffffffff169050919050565b600061054482611a36565b90508073ffffffffffffffffffffffffffffffffffffffff168373ffffffffffffffffffffffffffffffffffffffff16036105b4576040517f08c379a00000000000000000000000000000000000000000000000000000000081526004016105ab9061359e565b60405180910390fd5b8073ffffffffffffffffffffffffffffffffffffffff166105d3611fa2565b73ffffffffffffffffffffffffffffffffffffffff1614806106025750610601816105fc611fa2565b611e59565b5b610641576040517f08c379a000000000000000000000000000000000000000000000000000000000815260040161063890613630565b60405180910390fd5b61064b8383611faa565b505050565b6106646754db82d8b407ce4b60c01b612063565b3361067967a1389765e582d6b560c01b612063565b61068d67542a7144c01398b560c01b612063565b6106a1677cc79b4ec042f45360c01b612063565b6106b5670978c6d5fb7fbaa160c01b612063565b600115157f000000000000000000000000000000000000000000000000000000000000000073ffffffffffffffffffffffffffffffffffffffff1663cf6dac296040518163ffffffff1660e01b8152600401602060405180830381865afa158015610724573d6000803e3d6000fd5b505050506040513d601f19601f820116820180604052508101906107489190613665565b73ffffffffffffffffffffffffffffffffffffffff1663b9209e33836040518263ffffffff1660e01b81526004016107809190612def565b602060405180830381865afa15801561079d573d6000803e3d6000fd5b505050506040513d601f19601f820116820180604052508101906107c191906136a7565b151514610803576040517f08c379a00000000000000000000000000000000000000000000000000000000081526004016107fa90613720565b60405180910390fd5b61081767ce1000320426ff0560c01b612063565b61082b67b9671a1c55e92c0c60c01b612063565b61083f67d462e3de79178b3760c01b612063565b610853676a0135d6ee15a79060c01b612063565b8261086867fb0591abe16a8b9a60c01b612063565b61087c6721d8dd87faa64fa860c01b612063565b61089067ca4e3d1ee70d9de060c01b612063565b6108a467523af764d8150f6060c01b612063565b600115157f000000000000000000000000000000000000000000000000000000000000000073ffffffffffffffffffffffffffffffffffffffff1663cf6dac296040518163ffffffff1660e01b8152600401602060405180830381865afa158015610913573d6000803e3d6000fd5b505050506040513d601f19601f820116820180604052508101906109379190613665565b73ffffffffffffffffffffffffffffffffffffffff1663540f5c2b836040518263ffffffff1660e01b815260040161096f9190612def565b602060405180830381865afa15801561098c573d6000803e3d6000fd5b505050506040513d601f19601f820116820180604052508101906109b091906136a7565b1515146109f2576040517f08c379a00000000000000000000000000000000000000000000000000000000081526004016109e99061378c565b60405180910390fd5b610a0667a423320a89339c2f60c01b612063565b610a1a6722230ec732a85daa60c01b612063565b610a2e67a74dd47713d3883560c01b612063565b610a4267ad4b6244867e609160c01b612063565b82610a5767391b34955bed0e6560c01b612063565b610a6b67200ee943263363cc60c01b612063565b610a7f67fddb15a6e8bc431e60c01b612063565b60008173ffffffffffffffffffffffffffffffffffffffff16632a2e506a6040518163ffffffff1660e01b8152600401602060405180830381865afa158015610acc573d6000803e3d6000fd5b505050506040513d601f19601f82011682018060405250810190610af091906137e2565b9050610b0667637c078cdd50935b60c01b612063565b610b1a676e573f920b9859bd60c01b612063565b610b2e672b668a3f55afaeee60c01b612063565b8173ffffffffffffffffffffffffffffffffffffffff167f000000000000000000000000000000000000000000000000000000000000000073ffffffffffffffffffffffffffffffffffffffff166346c868086040518163ffffffff1660e01b8152600401602060405180830381865afa158015610bb0573d6000803e3d6000fd5b505050506040513d601f19601f82011682018060405250810190610bd49190613665565b73ffffffffffffffffffffffffffffffffffffffff16636bfac3bd836040518263ffffffff1660e01b8152600401610c0c919061381e565b602060405180830381865afa158015610c29573d6000803e3d6000fd5b505050506040513d601f19601f82011682018060405250810190610c4d9190613665565b73ffffffffffffffffffffffffffffffffffffffff1614610ca3576040517f08c379a0000000000000000000000000000000000000000000000000000000008152600401610c9a90613885565b60405180910390fd5b610cb7674865ef8f8de89d5f60c01b612063565b610ccb678b2c8ce6bd14feef60c01b612063565b610cdf6759390c0cba4ea3ea60c01b612063565b610cf3676486a9350a82f16b60c01b612063565b8433610d0967e2a55f698d1e593160c01b612063565b610d1d6722c72f1e7252ac9b60c01b612063565b610d3167f20fd70ca113405860c01b612063565b610d45670714a03e25d294e660c01b612063565b8073ffffffffffffffffffffffffffffffffffffffff168273ffffffffffffffffffffffffffffffffffffffff16638da5cb5b6040518163ffffffff1660e01b8152600401602060405180830381865afa158015610da7573d6000803e3d6000fd5b505050506040513d601f19601f82011682018060405250810190610dcb9190613665565b73ffffffffffffffffffffffffffffffffffffffff1614610e21576040517f08c379a0000000000000000000000000000000000000000000000000000000008152600401610e18906138f1565b60405180910390fd5b610e3567fdb4f4be83fa2a7660c01b612063565b610e4967060618828fb3cace60c01b612063565b610e5d6706568dd7de6b08e560c01b612063565b610e7167d9fe72df8eb58dda60c01b612063565b610e85678f592b909f7b452960c01b612063565b610e996717ba6a374e3c9e8c60c01b612063565b610ead6716f040b07718715b60c01b612063565b600073ffffffffffffffffffffffffffffffffffffffff1660088b8b604051610ed7929190613941565b908152602001604051809103902060000160009054906101000a900473ffffffffffffffffffffffffffffffffffffffff1673ffffffffffffffffffffffffffffffffffffffff1614610f5f576040517f08c379a0000000000000000000000000000000000000000000000000000000008152600401610f56906139a6565b60405180910390fd5b610f7367cc6bd6f95070ec6260c01b612063565b610f876759c47eec0ab76cc260c01b612063565b610f9b6703fa9259b4a0e41060c01b612063565b600060405180608001604052803373ffffffffffffffffffffffffffffffffffffffff1681526020018a73ffffffffffffffffffffffffffffffffffffffff1681526020018973ffffffffffffffffffffffffffffffffffffffff168152602001600160038111156110105761100f613240565b5b81525090506110296765ffd03451a601a860c01b612063565b8060088c8c60405161103c929190613941565b908152602001604051809103902060008201518160000160006101000a81548173ffffffffffffffffffffffffffffffffffffffff021916908373ffffffffffffffffffffffffffffffffffffffff16021790555060208201518160010160006101000a81548173ffffffffffffffffffffffffffffffffffffffff021916908373ffffffffffffffffffffffffffffffffffffffff16021790555060408201518160020160006101000a81548173ffffffffffffffffffffffffffffffffffffffff021916908373ffffffffffffffffffffffffffffffffffffffff16021790555060608201518160020160146101000a81548160ff0219169083600381111561114a57611149613240565b5b02179055509050506111666709390526eb7a830f60c01b612063565b61117a6715edce97c7b3a90f60c01b612063565b8773ffffffffffffffffffffffffffffffffffffffff168973ffffffffffffffffffffffffffffffffffffffff167f8a68583cae60acade1305e82147874052ea1f01bf135f5528052505bf3b83cc8338e8e6040516111db939291906139f3565b60405180910390a35050505050505050505050565b6112016111fb611fa2565b82612066565b611240576040517f08c379a000000000000000000000000000000000000000000000000000000000815260040161123790613a97565b60405180910390fd5b61124b8383836120fb565b505050565b6112646751515001462a1a5b60c01b612063565b611278672b916adf5ca5802d60c01b612063565b61128c67430ee881bf2ec99d60c01b612063565b6112a0676da08710c3aa6ef860c01b612063565b3373ffffffffffffffffffffffffffffffffffffffff16600883836040516112c9929190613941565b908152602001604051809103902060010160009054906101000a900473ffffffffffffffffffffffffffffffffffffffff1673ffffffffffffffffffffffffffffffffffffffff1614611351576040517f08c379a000000000000000000000000000000000000000000000000000000000815260040161134890613b03565b60405180910390fd5b61136567a43fc95604bfa54460c01b612063565b6113796795c8edf12b22cff160c01b612063565b61138d6758f62f1a599ada2960c01b612063565b6113a167558c003d56cd0edd60c01b612063565b600160038111156113b5576113b4613240565b5b600883836040516113c7929190613941565b908152602001604051809103902060020160149054906101000a900460ff1660038111156113f8576113f7613240565b5b14611438576040517f08c379a000000000000000000000000000000000000000000000000000000000815260040161142f90613b6f565b60405180910390fd5b61144c6728b58eeea383f3f960c01b612063565b61146067cfac3e75ebeb0edf60c01b612063565b600260088383604051611474929190613941565b908152602001604051809103902060020160146101000a81548160ff021916908360038111156114a7576114a6613240565b5b02179055506114c0672a95742e68d04a2460c01b612063565b6114d4670473b8583170b13a60c01b612063565b600882826040516114e6929190613941565b908152602001604051809103902060020160009054906101000a900473ffffffffffffffffffffffffffffffffffffffff1673ffffffffffffffffffffffffffffffffffffffff167f0519e7be1aa241b52378a6a08e7f399f732647d5c700b16165281f9f35424b39838360088686604051611563929190613941565b908152602001604051809103902060000160009054906101000a900473ffffffffffffffffffffffffffffffffffffffff166040516115a493929190613b8f565b60405180910390a25050565b6115cb83838360405180602001604052806000815250611cce565b505050565b6115e467216b2b370f82ec7960c01b612063565b336115f967fb0591abe16a8b9a60c01b612063565b61160d6721d8dd87faa64fa860c01b612063565b61162167ca4e3d1ee70d9de060c01b612063565b61163567523af764d8150f6060c01b612063565b600115157f000000000000000000000000000000000000000000000000000000000000000073ffffffffffffffffffffffffffffffffffffffff1663cf6dac296040518163ffffffff1660e01b8152600401602060405180830381865afa1580156116a4573d6000803e3d6000fd5b505050506040513d601f19601f820116820180604052508101906116c89190613665565b73ffffffffffffffffffffffffffffffffffffffff1663540f5c2b836040518263ffffffff1660e01b81526004016117009190612def565b602060405180830381865afa15801561171d573d6000803e3d6000fd5b505050506040513d601f19601f8201168201806040525081019061174191906136a7565b151514611783576040517f08c379a000000000000000000000000000000000000000000000000000000000815260040161177a9061378c565b60405180910390fd5b61179767a423320a89339c2f60c01b612063565b6117ab6722230ec732a85daa60c01b612063565b6117bf6722db9e6be1c61b4f60c01b612063565b6117d3677983f39ec813e2d360c01b612063565b6117e7675babc5301607ee7460c01b612063565b6117fb67df2b278fa135c26660c01b612063565b61180f6798a26d00526b4fb160c01b612063565b6001600381111561182357611822613240565b5b60088686604051611835929190613941565b908152602001604051809103902060020160149054906101000a900460ff16600381111561186657611865613240565b5b146118a6576040517f08c379a000000000000000000000000000000000000000000000000000000000815260040161189d90613b6f565b60405180910390fd5b6118ba67e59c3ff2d681eae260c01b612063565b6118ce673e1b12dbc79b72bf60c01b612063565b6003600886866040516118e2929190613941565b908152602001604051809103902060020160146101000a81548160ff0219169083600381111561191557611914613240565b5b021790555061192e672fe89c6cbe80ba2f60c01b612063565b61194267e00b0f3be705a7bf60c01b612063565b600061194e60066123f4565b90506119646722e6bc3602ada1af60c01b612063565b61197867bbbb8d2c46d3628860c01b612063565b6119826006612402565b6119966715eac8900071a49a60c01b612063565b83836007600084815260200190815260200160002091826119b8929190613d78565b506119cd6751c3ff29ede8a24760c01b612063565b6119e1676daa6842ba94b69560c01b612063565b611a2e600887876040516119f6929190613941565b908152602001604051809103902060020160009054906101000a900473ffffffffffffffffffffffffffffffffffffffff1682612418565b505050505050565b600080611a4283612436565b9050600073ffffffffffffffffffffffffffffffffffffffff168173ffffffffffffffffffffffffffffffffffffffff1603611ab3576040517f08c379a0000000000000000000000000000000000000000000000000000000008152600401611aaa90613e94565b60405180910390fd5b80915050919050565b60008073ffffffffffffffffffffffffffffffffffffffff168273ffffffffffffffffffffffffffffffffffffffff1603611b2c576040517f08c379a0000000000000000000000000000000000000000000000000000000008152600401611b2390613f26565b60405180910390fd5b600360008373ffffffffffffffffffffffffffffffffffffffff1673ffffffffffffffffffffffffffffffffffffffff168152602001908152602001600020549050919050565b6008818051602081018201805184825260208301602085012081835280955050505050506000915090508060000160009054906101000a900473ffffffffffffffffffffffffffffffffffffffff16908060010160009054906101000a900473ffffffffffffffffffffffffffffffffffffffff16908060020160009054906101000a900473ffffffffffffffffffffffffffffffffffffffff16908060020160149054906101000a900460ff16905084565b606060018054611c35906134fb565b80601f0160208091040260200160405190810160405280929190818152602001828054611c61906134fb565b8015611cae5780601f10611c8357610100808354040283529160200191611cae565b820191906000526020600020905b815481529060010190602001808311611c9157829003601f168201915b5050505050905090565b611cca611cc3611fa2565b8383612473565b5050565b611cdf611cd9611fa2565b83612066565b611d1e576040517f08c379a0000000000000000000000000000000000000000000000000000000008152600401611d1590613a97565b60405180910390fd5b611d2a848484846125df565b50505050565b6060611d4667787143cef6c6b79160c01b612063565b611d5a67d1730d400e5ea71860c01b612063565b611d6e6759f54d568db63b8b60c01b612063565b611d826734f48cca28de229760c01b612063565b6000600760008481526020019081526020016000208054611da2906134fb565b905003611de4576040517f08c379a0000000000000000000000000000000000000000000000000000000008152600401611ddb90613f92565b60405180910390fd5b611df86783d56ad69f8cc9bd60c01b612063565b611e0c67bba312a03e51b90b60c01b612063565b611e20677f8c8e6ce31d6a7460c01b612063565b60076000838152602001908152602001600020604051602001611e43919061405b565b6040516020818303038152906040529050919050565b6000600560008473ffffffffffffffffffffffffffffffffffffffff1673ffffffffffffffffffffffffffffffffffffffff16815260200190815260200160002060008373ffffffffffffffffffffffffffffffffffffffff1673ffffffffffffffffffffffffffffffffffffffff16815260200190815260200160002060009054906101000a900460ff16905092915050565b60007f01ffc9a7000000000000000000000000000000000000000000000000000000007bffffffffffffffffffffffffffffffffffffffffffffffffffffffff1916827bffffffffffffffffffffffffffffffffffffffffffffffffffffffff1916149050919050565b611f608161263b565b611f9f576040517f08c379a0000000000000000000000000000000000000000000000000000000008152600401611f9690613e94565b60405180910390fd5b50565b600033905090565b816004600083815260200190815260200160002060006101000a81548173ffffffffffffffffffffffffffffffffffffffff021916908373ffffffffffffffffffffffffffffffffffffffff160217905550808273ffffffffffffffffffffffffffffffffffffffff1661201d83611a36565b73ffffffffffffffffffffffffffffffffffffffff167f8c5be1e5ebec7d5bd14f71427d1e84f3dd0314c0f7b2291e5b200ac8c7c3b92560405160405180910390a45050565b50565b60008061207283611a36565b90508073ffffffffffffffffffffffffffffffffffffffff168473ffffffffffffffffffffffffffffffffffffffff1614806120b457506120b38185611e59565b5b806120f257508373ffffffffffffffffffffffffffffffffffffffff166120da846104f3565b73ffffffffffffffffffffffffffffffffffffffff16145b91505092915050565b8273ffffffffffffffffffffffffffffffffffffffff1661211b82611a36565b73ffffffffffffffffffffffffffffffffffffffff1614612171576040517f08c379a0000000000000000000000000000000000000000000000000000000008152600401612168906140f3565b60405180910390fd5b600073ffffffffffffffffffffffffffffffffffffffff168273ffffffffffffffffffffffffffffffffffffffff16036121e0576040517f08c379a00000000000000000000000000000000000000000000000000000000081526004016121d790614185565b60405180910390fd5b6121ed838383600161267c565b8273ffffffffffffffffffffffffffffffffffffffff1661220d82611a36565b73ffffffffffffffffffffffffffffffffffffffff1614612263576040517f08c379a000000000000000000000000000000000000000000000000000000000815260040161225a906140f3565b60405180910390fd5b6004600082815260200190815260200160002060006101000a81549073ffffffffffffffffffffffffffffffffffffffff02191690556001600360008573ffffffffffffffffffffffffffffffffffffffff1673ffffffffffffffffffffffffffffffffffffffff168152602001908152602001600020600082825403925050819055506001600360008473ffffffffffffffffffffffffffffffffffffffff1673ffffffffffffffffffffffffffffffffffffffff16815260200190815260200160002060008282540192505081905550816002600083815260200190815260200160002060006101000a81548173ffffffffffffffffffffffffffffffffffffffff021916908373ffffffffffffffffffffffffffffffffffffffff160217905550808273ffffffffffffffffffffffffffffffffffffffff168473ffffffffffffffffffffffffffffffffffffffff167fddf252ad1be2c89b69c2b068fc378daa952ba7f163c4a11628f55a4df523b3ef60405160405180910390a46123ef83838360016127a2565b505050565b600081600001549050919050565b6001816000016000828254019250508190555050565b6124328282604051806020016040528060008152506127a8565b5050565b60006002600083815260200190815260200160002060009054906101000a900473ffffffffffffffffffffffffffffffffffffffff169050919050565b8173ffffffffffffffffffffffffffffffffffffffff168373ffffffffffffffffffffffffffffffffffffffff16036124e1576040517f08c379a00000000000000000000000000000000000000000000000000000000081526004016124d8906141f1565b60405180910390fd5b80600560008573ffffffffffffffffffffffffffffffffffffffff1673ffffffffffffffffffffffffffffffffffffffff16815260200190815260200160002060008473ffffffffffffffffffffffffffffffffffffffff1673ffffffffffffffffffffffffffffffffffffffff16815260200190815260200160002060006101000a81548160ff0219169083151502179055508173ffffffffffffffffffffffffffffffffffffffff168373ffffffffffffffffffffffffffffffffffffffff167f17307eab39ab6107e8899845ad3d59bd9653f200f220920489ca2b5937696c31836040516125d29190612c7e565b60405180910390a3505050565b6125ea8484846120fb565b6125f684848484612803565b612635576040517f08c379a000000000000000000000000000000000000000000000000000000000815260040161262c90614283565b60405180910390fd5b50505050565b60008073ffffffffffffffffffffffffffffffffffffffff1661265d83612436565b73ffffffffffffffffffffffffffffffffffffffff1614159050919050565b600181111561279c57600073ffffffffffffffffffffffffffffffffffffffff168473ffffffffffffffffffffffffffffffffffffffff16146127105780600360008673ffffffffffffffffffffffffffffffffffffffff1673ffffffffffffffffffffffffffffffffffffffff168152602001908152602001600020600082825461270891906142d2565b925050819055505b600073ffffffffffffffffffffffffffffffffffffffff168373ffffffffffffffffffffffffffffffffffffffff161461279b5780600360008573ffffffffffffffffffffffffffffffffffffffff1673ffffffffffffffffffffffffffffffffffffffff16815260200190815260200160002060008282546127939190614306565b925050819055505b5b50505050565b50505050565b6127b2838361298a565b6127bf6000848484612803565b6127fe576040517f08c379a00000000000000000000000000000000000000000000000000000000081526004016127f590614283565b60405180910390fd5b505050565b60006128248473ffffffffffffffffffffffffffffffffffffffff16612ba7565b1561297d578373ffffffffffffffffffffffffffffffffffffffff1663150b7a0261284d611fa2565b8786866040518563ffffffff1660e01b815260040161286f949392919061438f565b6020604051808303816000875af19250505080156128ab57506040513d601f19601f820116820180604052508101906128a891906143f0565b60015b61292d573d80600081146128db576040519150601f19603f3d011682016040523d82523d6000602084013e6128e0565b606091505b506000815103612925576040517f08c379a000000000000000000000000000000000000000000000000000000000815260040161291c90614283565b60405180910390fd5b805181602001fd5b63150b7a0260e01b7bffffffffffffffffffffffffffffffffffffffffffffffffffffffff1916817bffffffffffffffffffffffffffffffffffffffffffffffffffffffff191614915050612982565b600190505b949350505050565b600073ffffffffffffffffffffffffffffffffffffffff168273ffffffffffffffffffffffffffffffffffffffff16036129f9576040517f08c379a00000000000000000000000000000000000000000000000000000000081526004016129f090614469565b60405180910390fd5b612a028161263b565b15612a42576040517f08c379a0000000000000000000000000000000000000000000000000000000008152600401612a39906144d5565b60405180910390fd5b612a5060008383600161267c565b612a598161263b565b15612a99576040517f08c379a0000000000000000000000000000000000000000000000000000000008152600401612a90906144d5565b60405180910390fd5b6001600360008473ffffffffffffffffffffffffffffffffffffffff1673ffffffffffffffffffffffffffffffffffffffff16815260200190815260200160002060008282540192505081905550816002600083815260200190815260200160002060006101000a81548173ffffffffffffffffffffffffffffffffffffffff021916908373ffffffffffffffffffffffffffffffffffffffff160217905550808273ffffffffffffffffffffffffffffffffffffffff16600073ffffffffffffffffffffffffffffffffffffffff167fddf252ad1be2c89b69c2b068fc378daa952ba7f163c4a11628f55a4df523b3ef60405160405180910390a4612ba36000838360016127a2565b5050565b6000808273ffffffffffffffffffffffffffffffffffffffff163b119050919050565b6000604051905090565b600080fd5b600080fd5b60007fffffffff0000000000000000000000000000000000000000000000000000000082169050919050565b612c1381612bde565b8114612c1e57600080fd5b50565b600081359050612c3081612c0a565b92915050565b600060208284031215612c4c57612c4b612bd4565b5b6000612c5a84828501612c21565b91505092915050565b60008115159050919050565b612c7881612c63565b82525050565b6000602082019050612c936000830184612c6f565b92915050565b600081519050919050565b600082825260208201905092915050565b60005b83811015612cd3578082015181840152602081019050612cb8565b60008484015250505050565b6000601f19601f8301169050919050565b6000612cfb82612c99565b612d058185612ca4565b9350612d15818560208601612cb5565b612d1e81612cdf565b840191505092915050565b60006020820190508181036000830152612d438184612cf0565b905092915050565b6000819050919050565b612d5e81612d4b565b8114612d6957600080fd5b50565b600081359050612d7b81612d55565b92915050565b600060208284031215612d9757612d96612bd4565b5b6000612da584828501612d6c565b91505092915050565b600073ffffffffffffffffffffffffffffffffffffffff82169050919050565b6000612dd982612dae565b9050919050565b612de981612dce565b82525050565b6000602082019050612e046000830184612de0565b92915050565b612e1381612dce565b8114612e1e57600080fd5b50565b600081359050612e3081612e0a565b92915050565b60008060408385031215612e4d57612e4c612bd4565b5b6000612e5b85828601612e21565b9250506020612e6c85828601612d6c565b9150509250929050565b600080fd5b600080fd5b600080fd5b60008083601f840112612e9b57612e9a612e76565b5b8235905067ffffffffffffffff811115612eb857612eb7612e7b565b5b602083019150836001820283011115612ed457612ed3612e80565b5b9250929050565b60008060008060608587031215612ef557612ef4612bd4565b5b600085013567ffffffffffffffff811115612f1357612f12612bd9565b5b612f1f87828801612e85565b94509450506020612f3287828801612e21565b9250506040612f4387828801612e21565b91505092959194509250565b600080600060608486031215612f6857612f67612bd4565b5b6000612f7686828701612e21565b9350506020612f8786828701612e21565b9250506040612f9886828701612d6c565b9150509250925092565b60008060208385031215612fb957612fb8612bd4565b5b600083013567ffffffffffffffff811115612fd757612fd6612bd9565b5b612fe385828601612e85565b92509250509250929050565b6000806000806040858703121561300957613008612bd4565b5b600085013567ffffffffffffffff81111561302757613026612bd9565b5b61303387828801612e85565b9450945050602085013567ffffffffffffffff81111561305657613055612bd9565b5b61306287828801612e85565b925092505092959194509250565b60006020828403121561308657613085612bd4565b5b600061309484828501612e21565b91505092915050565b6130a681612d4b565b82525050565b60006020820190506130c1600083018461309d565b92915050565b600080fd5b7f4e487b7100000000000000000000000000000000000000000000000000000000600052604160045260246000fd5b61310482612cdf565b810181811067ffffffffffffffff82111715613123576131226130cc565b5b80604052505050565b6000613136612bca565b905061314282826130fb565b919050565b600067ffffffffffffffff821115613162576131616130cc565b5b61316b82612cdf565b9050602081019050919050565b82818337600083830152505050565b600061319a61319584613147565b61312c565b9050828152602081018484840111156131b6576131b56130c7565b5b6131c1848285613178565b509392505050565b600082601f8301126131de576131dd612e76565b5b81356131ee848260208601613187565b91505092915050565b60006020828403121561320d5761320c612bd4565b5b600082013567ffffffffffffffff81111561322b5761322a612bd9565b5b613237848285016131c9565b91505092915050565b7f4e487b7100000000000000000000000000000000000000000000000000000000600052602160045260246000fd5b600481106132805761327f613240565b5b50565b60008190506132918261326f565b919050565b60006132a182613283565b9050919050565b6132b181613296565b82525050565b60006080820190506132cc6000830187612de0565b6132d96020830186612de0565b6132e66040830185612de0565b6132f360608301846132a8565b95945050505050565b61330581612c63565b811461331057600080fd5b50565b600081359050613322816132fc565b92915050565b6000806040838503121561333f5761333e612bd4565b5b600061334d85828601612e21565b925050602061335e85828601613313565b9150509250929050565b600067ffffffffffffffff821115613383576133826130cc565b5b61338c82612cdf565b9050602081019050919050565b60006133ac6133a784613368565b61312c565b9050828152602081018484840111156133c8576133c76130c7565b5b6133d3848285613178565b509392505050565b600082601f8301126133f0576133ef612e76565b5b8135613400848260208601613399565b91505092915050565b6000806000806080858703121561342357613422612bd4565b5b600061343187828801612e21565b945050602061344287828801612e21565b935050604061345387828801612d6c565b925050606085013567ffffffffffffffff81111561347457613473612bd9565b5b613480878288016133db565b91505092959194509250565b600080604083850312156134a3576134a2612bd4565b5b60006134b185828601612e21565b92505060206134c285828601612e21565b9150509250929050565b7f4e487b7100000000000000000000000000000000000000000000000000000000600052602260045260246000fd5b6000600282049050600182168061351357607f821691505b602082108103613526576135256134cc565b5b50919050565b7f4552433732313a20617070726f76616c20746f2063757272656e74206f776e6560008201527f7200000000000000000000000000000000000000000000000000000000000000602082015250565b6000613588602183612ca4565b91506135938261352c565b604082019050919050565b600060208201905081810360008301526135b78161357b565b9050919050565b7f4552433732313a20617070726f76652063616c6c6572206973206e6f7420746f60008201527f6b656e206f776e6572206f7220617070726f76656420666f7220616c6c000000602082015250565b600061361a603d83612ca4565b9150613625826135be565b604082019050919050565b600060208201905081810360008301526136498161360d565b9050919050565b60008151905061365f81612e0a565b92915050565b60006020828403121561367b5761367a612bd4565b5b600061368984828501613650565b91505092915050565b6000815190506136a1816132fc565b92915050565b6000602082840312156136bd576136bc612bd4565b5b60006136cb84828501613692565b91505092915050565b7f6e6f742076657269666965640000000000000000000000000000000000000000600082015250565b600061370a600c83612ca4565b9150613715826136d4565b602082019050919050565b60006020820190508181036000830152613739816136fd565b9050919050565b7f6e6f74206f626c69676500000000000000000000000000000000000000000000600082015250565b6000613776600a83612ca4565b915061378182613740565b602082019050919050565b600060208201905081810360008301526137a581613769565b9050919050565b6000819050919050565b6137bf816137ac565b81146137ca57600080fd5b50565b6000815190506137dc816137b6565b92915050565b6000602082840312156137f8576137f7612bd4565b5b6000613806848285016137cd565b91505092915050565b613818816137ac565b82525050565b6000602082019050613833600083018461380f565b92915050565b7f696e76616c696420666f6c64657220636f6e7472616374000000000000000000600082015250565b600061386f601783612ca4565b915061387a82613839565b602082019050919050565b6000602082019050818103600083015261389e81613862565b9050919050565b7f6e6f7420666f6c646572206f776e657200000000000000000000000000000000600082015250565b60006138db601083612ca4565b91506138e6826138a5565b602082019050919050565b6000602082019050818103600083015261390a816138ce565b9050919050565b600081905092915050565b60006139288385613911565b9350613935838584613178565b82840190509392505050565b600061394e82848661391c565b91508190509392505050565b7f616c726561647920726571756573746564000000000000000000000000000000600082015250565b6000613990601183612ca4565b915061399b8261395a565b602082019050919050565b600060208201905081810360008301526139bf81613983565b9050919050565b60006139d28385612ca4565b93506139df838584613178565b6139e883612cdf565b840190509392505050565b6000604082019050613a086000830186612de0565b8181036020830152613a1b8184866139c6565b9050949350505050565b7f4552433732313a2063616c6c6572206973206e6f7420746f6b656e206f776e6560008201527f72206f7220617070726f76656400000000000000000000000000000000000000602082015250565b6000613a81602d83612ca4565b9150613a8c82613a25565b604082019050919050565b60006020820190508181036000830152613ab081613a74565b9050919050565b7f6e6f742070726f706572206f626c696765000000000000000000000000000000600082015250565b6000613aed601183612ca4565b9150613af882613ab7565b602082019050919050565b60006020820190508181036000830152613b1c81613ae0565b9050919050565b7f696e76616c696420737461747573000000000000000000000000000000000000600082015250565b6000613b59600e83612ca4565b9150613b6482613b23565b602082019050919050565b60006020820190508181036000830152613b8881613b4c565b9050919050565b60006040820190508181036000830152613baa8185876139c6565b9050613bb96020830184612de0565b949350505050565b600082905092915050565b60008190508160005260206000209050919050565b60006020601f8301049050919050565b600082821b905092915050565b600060088302613c2e7fffffffffffffffffffffffffffffffffffffffffffffffffffffffffffffffff82613bf1565b613c388683613bf1565b95508019841693508086168417925050509392505050565b6000819050919050565b6000613c75613c70613c6b84612d4b565b613c50565b612d4b565b9050919050565b6000819050919050565b613c8f83613c5a565b613ca3613c9b82613c7c565b848454613bfe565b825550505050565b600090565b613cb8613cab565b613cc3818484613c86565b505050565b5b81811015613ce757613cdc600082613cb0565b600181019050613cc9565b5050565b601f821115613d2c57613cfd81613bcc565b613d0684613be1565b81016020851015613d15578190505b613d29613d2185613be1565b830182613cc8565b50505b505050565b600082821c905092915050565b6000613d4f60001984600802613d31565b1980831691505092915050565b6000613d688383613d3e565b9150826002028217905092915050565b613d828383613bc1565b67ffffffffffffffff811115613d9b57613d9a6130cc565b5b613da582546134fb565b613db0828285613ceb565b6000601f831160018114613ddf5760008415613dcd578287013590505b613dd78582613d5c565b865550613e3f565b601f198416613ded86613bcc565b60005b82811015613e1557848901358255600182019150602085019450602081019050613df0565b86831015613e325784890135613e2e601f891682613d3e565b8355505b6001600288020188555050505b50505050505050565b7f4552433732313a20696e76616c696420746f6b656e2049440000000000000000600082015250565b6000613e7e601883612ca4565b9150613e8982613e48565b602082019050919050565b60006020820190508181036000830152613ead81613e71565b9050919050565b7f4552433732313a2061646472657373207a65726f206973206e6f74206120766160008201527f6c6964206f776e65720000000000000000000000000000000000000000000000602082015250565b6000613f10602983612ca4565b9150613f1b82613eb4565b604082019050919050565b60006020820190508181036000830152613f3f81613f03565b9050919050565b7f746f6b656e20646f6573206e6f74206578697374000000000000000000000000600082015250565b6000613f7c601483612ca4565b9150613f8782613f46565b602082019050919050565b60006020820190508181036000830152613fab81613f6f565b9050919050565b7f697066733a2f2f00000000000000000000000000000000000000000000000000815250565b60008154613fe5816134fb565b613fef8186613911565b9450600182166000811461400a576001811461401f57614052565b60ff1983168652811515820286019350614052565b61402885613bcc565b60005b8381101561404a5781548189015260018201915060208101905061402b565b838801955050505b50505092915050565b600061406682613fb2565b6007820191506140768284613fd8565b915081905092915050565b7f4552433732313a207472616e736665722066726f6d20696e636f72726563742060008201527f6f776e6572000000000000000000000000000000000000000000000000000000602082015250565b60006140dd602583612ca4565b91506140e882614081565b604082019050919050565b6000602082019050818103600083015261410c816140d0565b9050919050565b7f4552433732313a207472616e7366657220746f20746865207a65726f2061646460008201527f7265737300000000000000000000000000000000000000000000000000000000602082015250565b600061416f602483612ca4565b915061417a82614113565b604082019050919050565b6000602082019050818103600083015261419e81614162565b9050919050565b7f4552433732313a20617070726f766520746f2063616c6c657200000000000000600082015250565b60006141db601983612ca4565b91506141e6826141a5565b602082019050919050565b6000602082019050818103600083015261420a816141ce565b9050919050565b7f4552433732313a207472616e7366657220746f206e6f6e20455243373231526560008201527f63656976657220696d706c656d656e7465720000000000000000000000000000602082015250565b600061426d603283612ca4565b915061427882614211565b604082019050919050565b6000602082019050818103600083015261429c81614260565b9050919050565b7f4e487b7100000000000000000000000000000000000000000000000000000000600052601160045260246000fd5b60006142dd82612d4b565b91506142e883612d4b565b9250828203905081811115614300576142ff6142a3565b5b92915050565b600061431182612d4b565b915061431c83612d4b565b9250828201905080821115614334576143336142a3565b5b92915050565b600081519050919050565b600082825260208201905092915050565b60006143618261433a565b61436b8185614345565b935061437b818560208601612cb5565b61438481612cdf565b840191505092915050565b60006080820190506143a46000830187612de0565b6143b16020830186612de0565b6143be604083018561309d565b81810360608301526143d08184614356565b905095945050505050565b6000815190506143ea81612c0a565b92915050565b60006020828403121561440657614405612bd4565b5b6000614414848285016143db565b91505092915050565b7f4552433732313a206d696e7420746f20746865207a65726f2061646472657373600082015250565b6000614453602083612ca4565b915061445e8261441d565b602082019050919050565b6000602082019050818103600083015261448281614446565b9050919050565b7f4552433732313a20746f6b656e20616c7265616479206d696e74656400000000600082015250565b60006144bf601c83612ca4565b91506144ca82614489565b602082019050919050565b600060208201905081810360008301526144ee816144b2565b905091905056fea26469706673582212207528c71b3c55469cbdabbde41564bc0df65d1deb0ee64457776fba4d85bbb2b864736f6c63430008110033",
  "linkReferences": {},
  "deployedLinkReferences": {}
}