{
  "_format": "hh-sol-artifact-1",
  "contractName": "KopoRolesManager",
  "sourceName": "contracts/KopoRolesManager.sol",
  "abi": [
    {
      "inputs": [],
      "stateMutability": "nonpayable",
      "type": "constructor"
    },
    {
      "anonymous": false,
      "inputs": [
        {
          "indexed": false,
          "internalType": "address",
          "name": "adminAddress",
          "type": "address"
        }
      ],
      "name": "AdminAdded",
      "type": "event"
    },
    {
      "anonymous": false,
      "inputs": [
        {
          "indexed": false,
          "internalType": "address",
          "name": "userAddress",
          "type": "address"
        }
      ],
      "name": "UserBlacklisted",
      "type": "event"
    },
    {
      "anonymous": false,
      "inputs": [
        {
          "indexed": false,
          "internalType": "address",
          "name": "userAddress",
          "type": "address"
        },
        {
          "indexed": false,
          "internalType": "enum KopoRolesManager.rolesList",
          "name": "previousRole",
          "type": "uint8"
        },
        {
          "indexed": false,
          "internalType": "enum KopoRolesManager.rolesList",
          "name": "newRole",
          "type": "uint8"
        }
      ],
      "name": "UserRoleUpdated",
      "type": "event"
    },
    {
      "anonymous": false,
      "inputs": [
        {
          "indexed": false,
          "internalType": "address",
          "name": "userAddress",
          "type": "address"
        }
      ],
      "name": "UserVerified",
      "type": "event"
    },
    {
      "inputs": [
        {
          "internalType": "address",
          "name": "_address",
          "type": "address"
        }
      ],
      "name": "blacklistUser",
      "outputs": [],
      "stateMutability": "nonpayable",
      "type": "function"
    },
    {
      "inputs": [
        {
          "internalType": "address",
          "name": "_address",
          "type": "address"
        }
      ],
      "name": "getUserBlacklistedStatus",
      "outputs": [
        {
          "internalType": "bool",
          "name": "",
          "type": "bool"
        }
      ],
      "stateMutability": "view",
      "type": "function"
    },
    {
      "inputs": [
        {
          "internalType": "address",
          "name": "_address",
          "type": "address"
        }
      ],
      "name": "getUserRole",
      "outputs": [
        {
          "internalType": "enum KopoRolesManager.rolesList",
          "name": "",
          "type": "uint8"
        }
      ],
      "stateMutability": "view",
      "type": "function"
    },
    {
      "inputs": [
        {
          "internalType": "address",
          "name": "_address",
          "type": "address"
        }
      ],
      "name": "getUserVerifiedStatus",
      "outputs": [
        {
          "internalType": "bool",
          "name": "",
          "type": "bool"
        }
      ],
      "stateMutability": "view",
      "type": "function"
    },
    {
      "inputs": [
        {
          "internalType": "address",
          "name": "_address",
          "type": "address"
        }
      ],
      "name": "isBeneficiaire",
      "outputs": [
        {
          "internalType": "bool",
          "name": "",
          "type": "bool"
        }
      ],
      "stateMutability": "view",
      "type": "function"
    },
    {
      "inputs": [
        {
          "internalType": "address",
          "name": "_address",
          "type": "address"
        }
      ],
      "name": "isNonOblige",
      "outputs": [
        {
          "internalType": "bool",
          "name": "",
          "type": "bool"
        }
      ],
      "stateMutability": "view",
      "type": "function"
    },
    {
      "inputs": [
        {
          "internalType": "address",
          "name": "_address",
          "type": "address"
        }
      ],
      "name": "isOblige",
      "outputs": [
        {
          "internalType": "bool",
          "name": "",
          "type": "bool"
        }
      ],
      "stateMutability": "view",
      "type": "function"
    },
    {
      "inputs": [
        {
          "internalType": "address",
          "name": "_address",
          "type": "address"
        }
      ],
      "name": "isRGE",
      "outputs": [
        {
          "internalType": "bool",
          "name": "",
          "type": "bool"
        }
      ],
      "stateMutability": "view",
      "type": "function"
    },
    {
      "inputs": [
        {
          "internalType": "address",
          "name": "_addr",
          "type": "address"
        }
      ],
      "name": "isVerified",
      "outputs": [
        {
          "internalType": "bool",
          "name": "",
          "type": "bool"
        }
      ],
      "stateMutability": "view",
      "type": "function"
    },
    {
      "inputs": [
        {
          "internalType": "address",
          "name": "_address",
          "type": "address"
        }
      ],
      "name": "setRoleAdmin",
      "outputs": [],
      "stateMutability": "nonpayable",
      "type": "function"
    },
    {
      "inputs": [
        {
          "internalType": "address",
          "name": "_address",
          "type": "address"
        },
        {
          "internalType": "uint256",
          "name": "_role",
          "type": "uint256"
        }
      ],
      "name": "updateUserRole",
      "outputs": [],
      "stateMutability": "nonpayable",
      "type": "function"
    },
    {
      "inputs": [
        {
          "internalType": "address",
          "name": "_address",
          "type": "address"
        }
      ],
      "name": "verifyUser",
      "outputs": [],
      "stateMutability": "nonpayable",
      "type": "function"
    }
  ],
  "bytecode": "0x608060405234801561001057600080fd5b503360009081526020819052604090208054600160a21b60ff60a01b19909116179055610ad2806100426000396000f3fe608060405234801561001057600080fd5b50600436106100b45760003560e01c8063b9cdd0d711610071578063b9cdd0d714610193578063c1ab93db146101a6578063c4e7ec0f146101b9578063d691fba5146101ec578063e7647cf0146101ff578063fcbca4561461021257600080fd5b806327820851146100b95780634d81312014610102578063540f5c2b14610117578063b0da57ab1461013a578063b3be55291461016d578063b9209e3314610180575b600080fd5b6100ec6100c7366004610964565b6001600160a01b0316600090815260208190526040902054600160a01b900460ff1690565b6040516100f991906109be565b60405180910390f35b610115610110366004610964565b610225565b005b61012a610125366004610964565b610392565b60405190151581526020016100f9565b61012a610148366004610964565b6001600160a01b0316600090815260208190526040902054600160a81b900460ff1690565b61011561017b366004610964565b6103e0565b61012a61018e366004610964565b61054f565b61012a6101a1366004610964565b610583565b61012a6101b4366004610964565b61058c565b61012a6101c7366004610964565b6001600160a01b0316600090815260208190526040902054600160b01b900460ff1690565b6101156101fa3660046109d2565b610595565b61012a61020d366004610964565b6107d8565b610115610220366004610964565b6107e0565b600433600090815260208190526040902054600160a01b900460ff16600481111561025257610252610986565b148015610276575033600090815260208190526040902054600160b01b900460ff16155b61029b5760405162461bcd60e51b8152600401610292906109fc565b60405180910390fd5b806001600160a01b0381166102c25760405162461bcd60e51b815260040161029290610a33565b6001600160a01b038216600090815260208190526040902054600160a81b900460ff16156103325760405162461bcd60e51b815260206004820181905260248201527f54686973206164647265737320697320616c72656164792076657269666965646044820152606401610292565b6001600160a01b03821660008181526020818152604091829020805460ff60a81b1916600160a81b17905590519182527fa6625d2d26e786e2f473111bea4b2fcdbbf1863d883a2359989ce3a103d2972a91015b60405180910390a15050565b600060025b6001600160a01b038316600090815260208190526040902054600160a01b900460ff1660048111156103cb576103cb610986565b036103d857506001919050565b506000919050565b600433600090815260208190526040902054600160a01b900460ff16600481111561040d5761040d610986565b148015610431575033600090815260208190526040902054600160b01b900460ff16155b61044d5760405162461bcd60e51b8152600401610292906109fc565b806001600160a01b0381166104745760405162461bcd60e51b815260040161029290610a33565b60046001600160a01b038316600090815260208190526040902054600160a01b900460ff1660048111156104aa576104aa610986565b036104f75760405162461bcd60e51b815260206004820181905260248201527f54686973206164647265737320697320616c726561647920616e2061646d696e6044820152606401610292565b6001600160a01b03821660008181526020818152604091829020805460ff60a01b1916600160a21b17905590519182527f44d6d25963f097ad14f29f06854a01f575648a1ef82f30e562ccd3889717e3399101610386565b6001600160a01b038116600090815260208190526040812054600160a81b900460ff1615156001036103d857506001919050565b60006003610397565b60006001610397565b600433600090815260208190526040902054600160a01b900460ff1660048111156105c2576105c2610986565b1480156105e6575033600090815260208190526040902054600160b01b900460ff16155b6106025760405162461bcd60e51b8152600401610292906109fc565b80600481111561061457610614610986565b600481111561062557610625610986565b6001600160a01b038316600090815260208190526040902054600160a01b900460ff16600481111561065957610659610986565b036106b15760405162461bcd60e51b815260206004820152602260248201527f5468697320616464726573732068617320616c7265616479207468697320726f6044820152616c6560f01b6064820152608401610292565b600481106107015760405162461bcd60e51b815260206004820152601d60248201527f596f752063616e27742075706461746520746f207468697320726f6c650000006044820152606401610292565b6001600160a01b038216600090815260208190526040902054600160a01b900460ff1681600481111561073657610736610986565b6001600160a01b0384166000908152602081905260409020805460ff60a01b1916600160a01b83600481111561076e5761076e610986565b02179055506001600160a01b038316600090815260208190526040908190205490517f4fa2901831bcf00bf6aa89b5bbe7a61f2e7f65874dc55ed1fe95ba7bc22f3e33916107cb9186918591600160a01b90910460ff1690610a6a565b60405180910390a1505050565b600080610397565b600433600090815260208190526040902054600160a01b900460ff16600481111561080d5761080d610986565b148015610831575033600090815260208190526040902054600160b01b900460ff16155b61084d5760405162461bcd60e51b8152600401610292906109fc565b806001600160a01b0381166108745760405162461bcd60e51b815260040161029290610a33565b6001600160a01b038216600090815260208190526040902054600160b01b900460ff16156108f05760405162461bcd60e51b815260206004820152602360248201527f54686973206164647265737320697320616c726561647920626c61636b6c69736044820152621d195960ea1b6064820152608401610292565b6001600160a01b03821660008181526020818152604091829020805460ff60b01b1916600160b01b17905590519182527f7f8b7dc89dae85811a7a85800b892b5816ad5d381c856f1b56490f8fc470c9cb9101610386565b80356001600160a01b038116811461095f57600080fd5b919050565b60006020828403121561097657600080fd5b61097f82610948565b9392505050565b634e487b7160e01b600052602160045260246000fd5b600581106109ba57634e487b7160e01b600052602160045260246000fd5b9052565b602081016109cc828461099c565b92915050565b600080604083850312156109e557600080fd5b6109ee83610948565b946020939093013593505050565b6020808252601a908201527f596f75277265206e6f7420616e206163746976652061646d696e000000000000604082015260600190565b6020808252601a908201527f4164647265737320302063616e27742062652075706461746564000000000000604082015260600190565b6001600160a01b038416815260608101610a87602083018561099c565b610a94604083018461099c565b94935050505056fea2646970667358221220c20f8e4b1a656629d150f72ff17ba3647220cff17d15e75253fa4725c5d6d5dc64736f6c63430008110033",
  "linkReferences": {},
  "deployedLinkReferences": {}
}