{
  "_format": "hh-sol-artifact-1",
  "contractName": "KopoRolesManager",
  "sourceName": "contracts/KopoRolesManager.sol",
  "abi": [
    {
      "inputs": [],
      "stateMutability": "nonpayable",
      "type": "constructor"
    },
    {
      "anonymous": false,
      "inputs": [
        {
          "indexed": false,
          "internalType": "address",
          "name": "adminAddress",
          "type": "address"
        }
      ],
      "name": "AdminAdded",
      "type": "event"
    },
    {
      "anonymous": false,
      "inputs": [
        {
          "indexed": false,
          "internalType": "address",
          "name": "userAddress",
          "type": "address"
        }
      ],
      "name": "UserBlacklisted",
      "type": "event"
    },
    {
      "anonymous": false,
      "inputs": [
        {
          "indexed": false,
          "internalType": "address",
          "name": "userAddress",
          "type": "address"
        },
        {
          "indexed": false,
          "internalType": "enum KopoRolesManager.rolesList",
          "name": "previousRole",
          "type": "uint8"
        },
        {
          "indexed": false,
          "internalType": "enum KopoRolesManager.rolesList",
          "name": "newRole",
          "type": "uint8"
        }
      ],
      "name": "UserRoleUpdated",
      "type": "event"
    },
    {
      "anonymous": false,
      "inputs": [
        {
          "indexed": false,
          "internalType": "address",
          "name": "userAddress",
          "type": "address"
        }
      ],
      "name": "UserVerified",
      "type": "event"
    },
    {
      "inputs": [
        {
          "internalType": "address",
          "name": "_address",
          "type": "address"
        }
      ],
      "name": "blacklistUser",
      "outputs": [],
      "stateMutability": "nonpayable",
      "type": "function"
    },
    {
      "inputs": [
        {
          "internalType": "address",
          "name": "_address",
          "type": "address"
        }
      ],
      "name": "getUserBlacklistedStatus",
      "outputs": [
        {
          "internalType": "bool",
          "name": "",
          "type": "bool"
        }
      ],
      "stateMutability": "view",
      "type": "function"
    },
    {
      "inputs": [
        {
          "internalType": "address",
          "name": "_address",
          "type": "address"
        }
      ],
      "name": "getUserRole",
      "outputs": [
        {
          "internalType": "enum KopoRolesManager.rolesList",
          "name": "",
          "type": "uint8"
        }
      ],
      "stateMutability": "view",
      "type": "function"
    },
    {
      "inputs": [
        {
          "internalType": "address",
          "name": "_address",
          "type": "address"
        }
      ],
      "name": "getUserVerifiedStatus",
      "outputs": [
        {
          "internalType": "bool",
          "name": "",
          "type": "bool"
        }
      ],
      "stateMutability": "view",
      "type": "function"
    },
    {
      "inputs": [
        {
          "internalType": "address",
          "name": "_address",
          "type": "address"
        }
      ],
      "name": "isBeneficiaire",
      "outputs": [
        {
          "internalType": "bool",
          "name": "",
          "type": "bool"
        }
      ],
      "stateMutability": "view",
      "type": "function"
    },
    {
      "inputs": [
        {
          "internalType": "address",
          "name": "_address",
          "type": "address"
        }
      ],
      "name": "isNonOblige",
      "outputs": [
        {
          "internalType": "bool",
          "name": "",
          "type": "bool"
        }
      ],
      "stateMutability": "view",
      "type": "function"
    },
    {
      "inputs": [
        {
          "internalType": "address",
          "name": "_address",
          "type": "address"
        }
      ],
      "name": "isOblige",
      "outputs": [
        {
          "internalType": "bool",
          "name": "",
          "type": "bool"
        }
      ],
      "stateMutability": "view",
      "type": "function"
    },
    {
      "inputs": [
        {
          "internalType": "address",
          "name": "_address",
          "type": "address"
        }
      ],
      "name": "isRGE",
      "outputs": [
        {
          "internalType": "bool",
          "name": "",
          "type": "bool"
        }
      ],
      "stateMutability": "view",
      "type": "function"
    },
    {
      "inputs": [
        {
          "internalType": "address",
          "name": "_addr",
          "type": "address"
        }
      ],
      "name": "isVerified",
      "outputs": [
        {
          "internalType": "bool",
          "name": "",
          "type": "bool"
        }
      ],
      "stateMutability": "view",
      "type": "function"
    },
    {
      "inputs": [
        {
          "internalType": "address",
          "name": "_address",
          "type": "address"
        }
      ],
      "name": "setRoleAdmin",
      "outputs": [],
      "stateMutability": "nonpayable",
      "type": "function"
    },
    {
      "inputs": [
        {
          "internalType": "address",
          "name": "_address",
          "type": "address"
        },
        {
          "internalType": "uint256",
          "name": "_role",
          "type": "uint256"
        }
      ],
      "name": "updateUserRole",
      "outputs": [],
      "stateMutability": "nonpayable",
      "type": "function"
    },
    {
      "inputs": [
        {
          "internalType": "address",
          "name": "_address",
          "type": "address"
        }
      ],
      "name": "verifyUser",
      "outputs": [],
      "stateMutability": "nonpayable",
      "type": "function"
    }
  ],
  "bytecode": "0x60806040523480156200001157600080fd5b506200002e67e9954e4d3205c60a60c01b620000bd60201b60201c565b6200004a6703e4a0903c19a2ed60c01b620000bd60201b60201c565b60046000803373ffffffffffffffffffffffffffffffffffffffff1673ffffffffffffffffffffffffffffffffffffffff16815260200190815260200160002060000160146101000a81548160ff02191690836004811115620000b257620000b1620000c0565b5b0217905550620000ef565b50565b7f4e487b7100000000000000000000000000000000000000000000000000000000600052602160045260246000fd5b61234e80620000ff6000396000f3fe608060405234801561001057600080fd5b50600436106100b45760003560e01c8063b9cdd0d711610071578063b9cdd0d7146101b1578063c1ab93db146101e1578063c4e7ec0f14610211578063d691fba514610241578063e7647cf01461025d578063fcbca4561461028d576100b4565b806327820851146100b95780634d813120146100e9578063540f5c2b14610105578063b0da57ab14610135578063b3be552914610165578063b9209e3314610181575b600080fd5b6100d360048036038101906100ce9190611dfb565b6102a9565b6040516100e09190611e9f565b60405180910390f35b61010360048036038101906100fe9190611dfb565b61033d565b005b61011f600480360381019061011a9190611dfb565b6107c9565b60405161012c9190611ed5565b60405180910390f35b61014f600480360381019061014a9190611dfb565b61090c565b60405161015c9190611ed5565b60405180910390f35b61017f600480360381019061017a9190611dfb565b6109a0565b005b61019b60048036038101906101969190611dfb565b610e5b565b6040516101a89190611ed5565b60405180910390f35b6101cb60048036038101906101c69190611dfb565b610f7e565b6040516101d89190611ed5565b60405180910390f35b6101fb60048036038101906101f69190611dfb565b6110c1565b6040516102089190611ed5565b60405180910390f35b61022b60048036038101906102269190611dfb565b611204565b6040516102389190611ed5565b60405180910390f35b61025b60048036038101906102569190611f26565b611298565b005b61027760048036038101906102729190611dfb565b6117c7565b6040516102849190611ed5565b60405180910390f35b6102a760048036038101906102a29190611dfb565b611909565b005b60006102bf67344b487fd118439660c01b611d95565b6102d36708e20d32557b86c860c01b611d95565b6102e76705bfb68bb385b1cb60c01b611d95565b6000808373ffffffffffffffffffffffffffffffffffffffff1673ffffffffffffffffffffffffffffffffffffffff16815260200190815260200160002060000160149054906101000a900460ff169050919050565b610351671f88cbe0894826c060c01b611d95565b610365670584ef347f5ad5ea60c01b611d95565b6103796744b92f2f875da49e60c01b611d95565b61038d676afd7ab18fc6aa7060c01b611d95565b6103a167378ea3c74af760db60c01b611d95565b6004808111156103b4576103b3611e28565b5b6000803373ffffffffffffffffffffffffffffffffffffffff1673ffffffffffffffffffffffffffffffffffffffff16815260200190815260200160002060000160149054906101000a900460ff16600481111561041557610414611e28565b5b1480156104745750600015156000803373ffffffffffffffffffffffffffffffffffffffff1673ffffffffffffffffffffffffffffffffffffffff16815260200190815260200160002060000160169054906101000a900460ff161515145b6104b3576040517f08c379a00000000000000000000000000000000000000000000000000000000081526004016104aa90611fc3565b60405180910390fd5b6104c767a6be2a38f2c9761160c01b611d95565b6104db6760c4704d07507c3360c01b611d95565b6104ef67e418fa545b0b4d7f60c01b611d95565b61050367531c29fee1b99e6f60c01b611d95565b8061051867b01d8913f42b76d460c01b611d95565b61052c6792f44595a219317660c01b611d95565b610540675361115a6d4e219b60c01b611d95565b610554678ae0a2c7dd788d9660c01b611d95565b600073ffffffffffffffffffffffffffffffffffffffff168173ffffffffffffffffffffffffffffffffffffffff16036105c3576040517f08c379a00000000000000000000000000000000000000000000000000000000081526004016105ba9061202f565b60405180910390fd5b6105d7678fbc862199bbaab760c01b611d95565b6105eb678a964203914cfd7960c01b611d95565b6105ff678f70e3b02321392a60c01b611d95565b61061367de444eea2e09d19e60c01b611d95565b61062767ac1b240a7aa9ccda60c01b611d95565b61063b6714372766da0dae7160c01b611d95565b61064f675dd0322d54959d0d60c01b611d95565b600015156000808473ffffffffffffffffffffffffffffffffffffffff1673ffffffffffffffffffffffffffffffffffffffff16815260200190815260200160002060000160159054906101000a900460ff161515146106e4576040517f08c379a00000000000000000000000000000000000000000000000000000000081526004016106db9061209b565b60405180910390fd5b6106f8679573312b8ccbafc760c01b611d95565b61070c6711b111d5f142a3e760c01b611d95565b60016000808473ffffffffffffffffffffffffffffffffffffffff1673ffffffffffffffffffffffffffffffffffffffff16815260200190815260200160002060000160156101000a81548160ff02191690831515021790555061077a67592300ee7512f28e60c01b611d95565b61078e67788551806180c48860c01b611d95565b7fa6625d2d26e786e2f473111bea4b2fcdbbf1863d883a2359989ce3a103d2972a826040516107bd91906120ca565b60405180910390a15050565b60006107df6742ad3330e66fed7360c01b611d95565b6107f36778c186ebfcedf15d60c01b611d95565b61080767b2250da05746163760c01b611d95565b6002600481111561081b5761081a611e28565b5b6000808473ffffffffffffffffffffffffffffffffffffffff1673ffffffffffffffffffffffffffffffffffffffff16815260200190815260200160002060000160149054906101000a900460ff16600481111561087c5761087b611e28565b5b036108c657610895673941242a6e76680c60c01b611d95565b6108a9671de3ed147bd3864e60c01b611d95565b6108bd677cb0848b7df24a6c60c01b611d95565b60019050610907565b6108da6784978dc32865d7c160c01b611d95565b6108ee6719e3210d7fee0c4260c01b611d95565b61090267bfa3d2c5f030a73a60c01b611d95565b600090505b919050565b600061092267fac4e47f471e203160c01b611d95565b6109366733f9fffdbde3672260c01b611d95565b61094a6774755059224a7a3b60c01b611d95565b6000808373ffffffffffffffffffffffffffffffffffffffff1673ffffffffffffffffffffffffffffffffffffffff16815260200190815260200160002060000160159054906101000a900460ff169050919050565b6109b46724254b14d6cbfebc60c01b611d95565b6109c8670584ef347f5ad5ea60c01b611d95565b6109dc6744b92f2f875da49e60c01b611d95565b6109f0676afd7ab18fc6aa7060c01b611d95565b610a0467378ea3c74af760db60c01b611d95565b600480811115610a1757610a16611e28565b5b6000803373ffffffffffffffffffffffffffffffffffffffff1673ffffffffffffffffffffffffffffffffffffffff16815260200190815260200160002060000160149054906101000a900460ff166004811115610a7857610a77611e28565b5b148015610ad75750600015156000803373ffffffffffffffffffffffffffffffffffffffff1673ffffffffffffffffffffffffffffffffffffffff16815260200190815260200160002060000160169054906101000a900460ff161515145b610b16576040517f08c379a0000000000000000000000000000000000000000000000000000000008152600401610b0d90611fc3565b60405180910390fd5b610b2a67a6be2a38f2c9761160c01b611d95565b610b3e6760c4704d07507c3360c01b611d95565b610b526730c68369ac43577d60c01b611d95565b610b6667abb55fc6fbc9535460c01b611d95565b80610b7b67b01d8913f42b76d460c01b611d95565b610b8f6792f44595a219317660c01b611d95565b610ba3675361115a6d4e219b60c01b611d95565b610bb7678ae0a2c7dd788d9660c01b611d95565b600073ffffffffffffffffffffffffffffffffffffffff168173ffffffffffffffffffffffffffffffffffffffff1603610c26576040517f08c379a0000000000000000000000000000000000000000000000000000000008152600401610c1d9061202f565b60405180910390fd5b610c3a678fbc862199bbaab760c01b611d95565b610c4e678a964203914cfd7960c01b611d95565b610c626782f54b5dd9a0990e60c01b611d95565b610c7667e1047f7c8e16afbf60c01b611d95565b610c8a673abcc88b2cce36eb60c01b611d95565b610c9e6774b76ca533472e7260c01b611d95565b610cb2670d122fe3ca7c52e460c01b611d95565b600480811115610cc557610cc4611e28565b5b6000808473ffffffffffffffffffffffffffffffffffffffff1673ffffffffffffffffffffffffffffffffffffffff16815260200190815260200160002060000160149054906101000a900460ff166004811115610d2657610d25611e28565b5b03610d66576040517f08c379a0000000000000000000000000000000000000000000000000000000008152600401610d5d90612131565b60405180910390fd5b610d7a67987924dc534744af60c01b611d95565b610d8e67297489f76809079f60c01b611d95565b60046000808473ffffffffffffffffffffffffffffffffffffffff1673ffffffffffffffffffffffffffffffffffffffff16815260200190815260200160002060000160146101000a81548160ff02191690836004811115610df357610df2611e28565b5b0217905550610e0c671dd46f518d5830de60c01b611d95565b610e2067d9e0e8532a9093c460c01b611d95565b7f44d6d25963f097ad14f29f06854a01f575648a1ef82f30e562ccd3889717e33982604051610e4f91906120ca565b60405180910390a15050565b6000610e71677b69d2a8441bf63c60c01b611d95565b610e8567ccb55efb1c07241260c01b611d95565b610e9967c7c8dd0e75a4265160c01b611d95565b600115156000808473ffffffffffffffffffffffffffffffffffffffff1673ffffffffffffffffffffffffffffffffffffffff16815260200190815260200160002060000160159054906101000a900460ff16151503610f3857610f076702e0322613bc9e8c60c01b611d95565b610f1b67f98a09536f31610b60c01b611d95565b610f2f6733bee356a4d6511a60c01b611d95565b60019050610f79565b610f4c67c2158605da08a62c60c01b611d95565b610f60670ad1473e17e5daee60c01b611d95565b610f746781d88b50c8f8b3d260c01b611d95565b600090505b919050565b6000610f94671d09acb5b6459a1560c01b611d95565b610fa867614a5e1bb44bce7460c01b611d95565b610fbc6774d960d9e1b3095960c01b611d95565b60036004811115610fd057610fcf611e28565b5b6000808473ffffffffffffffffffffffffffffffffffffffff1673ffffffffffffffffffffffffffffffffffffffff16815260200190815260200160002060000160149054906101000a900460ff16600481111561103157611030611e28565b5b0361107b5761104a67b745b419f11c224760c01b611d95565b61105e67adea828d9040edf160c01b611d95565b6110726708acd454fa9dfd1e60c01b611d95565b600190506110bc565b61108f67d112c77859b966fb60c01b611d95565b6110a3672346c490bc5d6e6b60c01b611d95565b6110b7677f856097501a1a7c60c01b611d95565b600090505b919050565b60006110d7679f9f7e7c68fffd3360c01b611d95565b6110eb671985c1ea0fc44c0460c01b611d95565b6110ff67f10a10ab8862e8c460c01b611d95565b6001600481111561111357611112611e28565b5b6000808473ffffffffffffffffffffffffffffffffffffffff1673ffffffffffffffffffffffffffffffffffffffff16815260200190815260200160002060000160149054906101000a900460ff16600481111561117457611173611e28565b5b036111be5761118d67b14aaacdb123998960c01b611d95565b6111a1679b7f7615a5687afc60c01b611d95565b6111b567ed21b887f46fd46d60c01b611d95565b600190506111ff565b6111d267424b46c4d2d48e4560c01b611d95565b6111e667696b996a2a05ddd960c01b611d95565b6111fa67841f095e4011abf260c01b611d95565b600090505b919050565b600061121a67abb8d830518d4b1260c01b611d95565b61122e670a930d67f78368ad60c01b611d95565b61124267f9df60aaabc4e9e460c01b611d95565b6000808373ffffffffffffffffffffffffffffffffffffffff1673ffffffffffffffffffffffffffffffffffffffff16815260200190815260200160002060000160169054906101000a900460ff169050919050565b6112ac677672c0350729391160c01b611d95565b6112c0670584ef347f5ad5ea60c01b611d95565b6112d46744b92f2f875da49e60c01b611d95565b6112e8676afd7ab18fc6aa7060c01b611d95565b6112fc67378ea3c74af760db60c01b611d95565b60048081111561130f5761130e611e28565b5b6000803373ffffffffffffffffffffffffffffffffffffffff1673ffffffffffffffffffffffffffffffffffffffff16815260200190815260200160002060000160149054906101000a900460ff1660048111156113705761136f611e28565b5b1480156113cf5750600015156000803373ffffffffffffffffffffffffffffffffffffffff1673ffffffffffffffffffffffffffffffffffffffff16815260200190815260200160002060000160169054906101000a900460ff161515145b61140e576040517f08c379a000000000000000000000000000000000000000000000000000000000815260040161140590611fc3565b60405180910390fd5b61142267a6be2a38f2c9761160c01b611d95565b6114366760c4704d07507c3360c01b611d95565b61144a678b4e8cdefb97291760c01b611d95565b61145e673b2180fb59ecf27260c01b611d95565b611472670a7c2d357a933d7b60c01b611d95565b6114866743780f311d614d6d60c01b611d95565b61149a67cb3606add2de997c60c01b611d95565b8060048111156114ad576114ac611e28565b5b60048111156114bf576114be611e28565b5b6000808473ffffffffffffffffffffffffffffffffffffffff1673ffffffffffffffffffffffffffffffffffffffff16815260200190815260200160002060000160149054906101000a900460ff1660048111156115205761151f611e28565b5b03611560576040517f08c379a0000000000000000000000000000000000000000000000000000000008152600401611557906121c3565b60405180910390fd5b61157467bcda892aa301f4cd60c01b611d95565b611588678836adf4850c005260c01b611d95565b61159c67e0b34c14a22a7c4560c01b611d95565b6115b0678910150d42b813e060c01b611d95565b600481106115f3576040517f08c379a00000000000000000000000000000000000000000000000000000000081526004016115ea9061222f565b60405180910390fd5b61160767ae21f89fe77b511c60c01b611d95565b61161b678d2718d7a38c001b60c01b611d95565b61162f67d90944aadbb903ca60c01b611d95565b60008060008473ffffffffffffffffffffffffffffffffffffffff1673ffffffffffffffffffffffffffffffffffffffff16815260200190815260200160002060000160149054906101000a900460ff16905061169667481e4ecf987d41dc60c01b611d95565b8160048111156116a9576116a8611e28565b5b6000808573ffffffffffffffffffffffffffffffffffffffff1673ffffffffffffffffffffffffffffffffffffffff16815260200190815260200160002060000160146101000a81548160ff0219169083600481111561170c5761170b611e28565b5b021790555061172567a224fc73bc31d0fd60c01b611d95565b61173967f66c86844858d2df60c01b611d95565b7f4fa2901831bcf00bf6aa89b5bbe7a61f2e7f65874dc55ed1fe95ba7bc22f3e3383826000808773ffffffffffffffffffffffffffffffffffffffff1673ffffffffffffffffffffffffffffffffffffffff16815260200190815260200160002060000160149054906101000a900460ff166040516117ba9392919061224f565b60405180910390a1505050565b60006117dd674bbaf83b54de3f4760c01b611d95565b6117f1677b77b6059f7e430a60c01b611d95565b6118046679b70489df69e260c01b611d95565b6000600481111561181857611817611e28565b5b6000808473ffffffffffffffffffffffffffffffffffffffff1673ffffffffffffffffffffffffffffffffffffffff16815260200190815260200160002060000160149054906101000a900460ff16600481111561187957611878611e28565b5b036118c35761189267451b4317a66255ff60c01b611d95565b6118a6676e9e91c45cae69d760c01b611d95565b6118ba678a7fef73df02eed360c01b611d95565b60019050611904565b6118d767a33c4c358733937660c01b611d95565b6118eb674d20d38882a711b960c01b611d95565b6118ff679848e682bbe476bb60c01b611d95565b600090505b919050565b61191d67518ce40249f7dd1260c01b611d95565b611931670584ef347f5ad5ea60c01b611d95565b6119456744b92f2f875da49e60c01b611d95565b611959676afd7ab18fc6aa7060c01b611d95565b61196d67378ea3c74af760db60c01b611d95565b6004808111156119805761197f611e28565b5b6000803373ffffffffffffffffffffffffffffffffffffffff1673ffffffffffffffffffffffffffffffffffffffff16815260200190815260200160002060000160149054906101000a900460ff1660048111156119e1576119e0611e28565b5b148015611a405750600015156000803373ffffffffffffffffffffffffffffffffffffffff1673ffffffffffffffffffffffffffffffffffffffff16815260200190815260200160002060000160169054906101000a900460ff161515145b611a7f576040517f08c379a0000000000000000000000000000000000000000000000000000000008152600401611a7690611fc3565b60405180910390fd5b611a9367a6be2a38f2c9761160c01b611d95565b611aa76760c4704d07507c3360c01b611d95565b611abb674375f847ed643cd560c01b611d95565b611acf67871ddcefb008dc6560c01b611d95565b80611ae467b01d8913f42b76d460c01b611d95565b611af86792f44595a219317660c01b611d95565b611b0c675361115a6d4e219b60c01b611d95565b611b20678ae0a2c7dd788d9660c01b611d95565b600073ffffffffffffffffffffffffffffffffffffffff168173ffffffffffffffffffffffffffffffffffffffff1603611b8f576040517f08c379a0000000000000000000000000000000000000000000000000000000008152600401611b869061202f565b60405180910390fd5b611ba3678fbc862199bbaab760c01b611d95565b611bb7678a964203914cfd7960c01b611d95565b611bcb676d8db43b7b6c462160c01b611d95565b611bdf674a441b5760bebc9060c01b611d95565b611bf3674d9afcddb296f8be60c01b611d95565b611c07675fe0223c4ccbde3860c01b611d95565b611c1b673de26405d6827e5260c01b611d95565b600015156000808473ffffffffffffffffffffffffffffffffffffffff1673ffffffffffffffffffffffffffffffffffffffff16815260200190815260200160002060000160169054906101000a900460ff16151514611cb0576040517f08c379a0000000000000000000000000000000000000000000000000000000008152600401611ca7906122f8565b60405180910390fd5b611cc467433b917e93fa846c60c01b611d95565b611cd867d68219a1e2b097a260c01b611d95565b60016000808473ffffffffffffffffffffffffffffffffffffffff1673ffffffffffffffffffffffffffffffffffffffff16815260200190815260200160002060000160166101000a81548160ff021916908315150217905550611d4667486893031ce234ba60c01b611d95565b611d5a67a6ff0e9f0722e88c60c01b611d95565b7f7f8b7dc89dae85811a7a85800b892b5816ad5d381c856f1b56490f8fc470c9cb82604051611d8991906120ca565b60405180910390a15050565b50565b600080fd5b600073ffffffffffffffffffffffffffffffffffffffff82169050919050565b6000611dc882611d9d565b9050919050565b611dd881611dbd565b8114611de357600080fd5b50565b600081359050611df581611dcf565b92915050565b600060208284031215611e1157611e10611d98565b5b6000611e1f84828501611de6565b91505092915050565b7f4e487b7100000000000000000000000000000000000000000000000000000000600052602160045260246000fd5b60058110611e6857611e67611e28565b5b50565b6000819050611e7982611e57565b919050565b6000611e8982611e6b565b9050919050565b611e9981611e7e565b82525050565b6000602082019050611eb46000830184611e90565b92915050565b60008115159050919050565b611ecf81611eba565b82525050565b6000602082019050611eea6000830184611ec6565b92915050565b6000819050919050565b611f0381611ef0565b8114611f0e57600080fd5b50565b600081359050611f2081611efa565b92915050565b60008060408385031215611f3d57611f3c611d98565b5b6000611f4b85828601611de6565b9250506020611f5c85828601611f11565b9150509250929050565b600082825260208201905092915050565b7f596f75277265206e6f7420616e206163746976652061646d696e000000000000600082015250565b6000611fad601a83611f66565b9150611fb882611f77565b602082019050919050565b60006020820190508181036000830152611fdc81611fa0565b9050919050565b7f4164647265737320302063616e27742062652075706461746564000000000000600082015250565b6000612019601a83611f66565b915061202482611fe3565b602082019050919050565b600060208201905081810360008301526120488161200c565b9050919050565b7f54686973206164647265737320697320616c7265616479207665726966696564600082015250565b6000612085602083611f66565b91506120908261204f565b602082019050919050565b600060208201905081810360008301526120b481612078565b9050919050565b6120c481611dbd565b82525050565b60006020820190506120df60008301846120bb565b92915050565b7f54686973206164647265737320697320616c726561647920616e2061646d696e600082015250565b600061211b602083611f66565b9150612126826120e5565b602082019050919050565b6000602082019050818103600083015261214a8161210e565b9050919050565b7f5468697320616464726573732068617320616c7265616479207468697320726f60008201527f6c65000000000000000000000000000000000000000000000000000000000000602082015250565b60006121ad602283611f66565b91506121b882612151565b604082019050919050565b600060208201905081810360008301526121dc816121a0565b9050919050565b7f596f752063616e27742075706461746520746f207468697320726f6c65000000600082015250565b6000612219601d83611f66565b9150612224826121e3565b602082019050919050565b600060208201905081810360008301526122488161220c565b9050919050565b600060608201905061226460008301866120bb565b6122716020830185611e90565b61227e6040830184611e90565b949350505050565b7f54686973206164647265737320697320616c726561647920626c61636b6c697360008201527f7465640000000000000000000000000000000000000000000000000000000000602082015250565b60006122e2602383611f66565b91506122ed82612286565b604082019050919050565b60006020820190508181036000830152612311816122d5565b905091905056fea2646970667358221220891068ecda4520fecdba3a55f6439d407a2228f87bf40a633e60f923159e39d264736f6c63430008110033",
  "linkReferences": {},
  "deployedLinkReferences": {}
}