{
  "_format": "hh-sol-artifact-1",
  "contractName": "KopoAddressProvider_testonly",
  "sourceName": "contracts/KopoAddressProvider_testonly.sol",
  "abi": [
    {
      "anonymous": false,
      "inputs": [
        {
          "indexed": false,
          "internalType": "uint8",
          "name": "version",
          "type": "uint8"
        }
      ],
      "name": "Initialized",
      "type": "event"
    },
    {
      "anonymous": false,
      "inputs": [
        {
          "indexed": true,
          "internalType": "address",
          "name": "previousOwner",
          "type": "address"
        },
        {
          "indexed": true,
          "internalType": "address",
          "name": "newOwner",
          "type": "address"
        }
      ],
      "name": "OwnershipTransferred",
      "type": "event"
    },
    {
      "anonymous": false,
      "inputs": [
        {
          "indexed": true,
          "internalType": "address",
          "name": "_previousAddress",
          "type": "address"
        },
        {
          "indexed": true,
          "internalType": "address",
          "name": "_newAddress",
          "type": "address"
        }
      ],
      "name": "documentHandlerContractUpdated",
      "type": "event"
    },
    {
      "anonymous": false,
      "inputs": [
        {
          "indexed": true,
          "internalType": "address",
          "name": "_previousAddress",
          "type": "address"
        },
        {
          "indexed": true,
          "internalType": "address",
          "name": "_newAddress",
          "type": "address"
        }
      ],
      "name": "folderFactoryContractUpdated",
      "type": "event"
    },
    {
      "anonymous": false,
      "inputs": [
        {
          "indexed": true,
          "internalType": "address",
          "name": "_previousAddress",
          "type": "address"
        },
        {
          "indexed": true,
          "internalType": "address",
          "name": "_newAddress",
          "type": "address"
        }
      ],
      "name": "rolesContractUpdated",
      "type": "event"
    },
    {
      "anonymous": false,
      "inputs": [
        {
          "indexed": true,
          "internalType": "address",
          "name": "_previousAddress",
          "type": "address"
        },
        {
          "indexed": true,
          "internalType": "address",
          "name": "_newAddress",
          "type": "address"
        }
      ],
      "name": "testingContractUpdated",
      "type": "event"
    },
    {
      "inputs": [],
      "name": "documentHandlerContractAddress",
      "outputs": [
        {
          "internalType": "address",
          "name": "",
          "type": "address"
        }
      ],
      "stateMutability": "view",
      "type": "function"
    },
    {
      "inputs": [],
      "name": "folderFactoryContractAddress",
      "outputs": [
        {
          "internalType": "address",
          "name": "",
          "type": "address"
        }
      ],
      "stateMutability": "view",
      "type": "function"
    },
    {
      "inputs": [],
      "name": "owner",
      "outputs": [
        {
          "internalType": "address",
          "name": "",
          "type": "address"
        }
      ],
      "stateMutability": "view",
      "type": "function"
    },
    {
      "inputs": [],
      "name": "renounceOwnership",
      "outputs": [],
      "stateMutability": "nonpayable",
      "type": "function"
    },
    {
      "inputs": [],
      "name": "rolesManagerContractAddress",
      "outputs": [
        {
          "internalType": "address",
          "name": "",
          "type": "address"
        }
      ],
      "stateMutability": "view",
      "type": "function"
    },
    {
      "inputs": [
        {
          "internalType": "address",
          "name": "_contractAddress",
          "type": "address"
        }
      ],
      "name": "setDocumentHandlerContractAddress",
      "outputs": [],
      "stateMutability": "nonpayable",
      "type": "function"
    },
    {
      "inputs": [
        {
          "internalType": "address",
          "name": "_contractAddress",
          "type": "address"
        }
      ],
      "name": "setFolderFactoryContractAddress",
      "outputs": [],
      "stateMutability": "nonpayable",
      "type": "function"
    },
    {
      "inputs": [
        {
          "internalType": "address",
          "name": "_contractAddress",
          "type": "address"
        }
      ],
      "name": "setRolesManagerContractAddress",
      "outputs": [],
      "stateMutability": "nonpayable",
      "type": "function"
    },
    {
      "inputs": [
        {
          "internalType": "address",
          "name": "_contractAddress",
          "type": "address"
        }
      ],
      "name": "setTestingContractAddress",
      "outputs": [],
      "stateMutability": "nonpayable",
      "type": "function"
    },
    {
      "inputs": [],
      "name": "testingContractAddress",
      "outputs": [
        {
          "internalType": "address",
          "name": "",
          "type": "address"
        }
      ],
      "stateMutability": "view",
      "type": "function"
    },
    {
      "inputs": [
        {
          "internalType": "address",
          "name": "newOwner",
          "type": "address"
        }
      ],
      "name": "transferOwnership",
      "outputs": [],
      "stateMutability": "nonpayable",
      "type": "function"
    }
  ],
  "bytecode": "0x608060405234801561001057600080fd5b50610592806100206000396000f3fe608060405234801561001057600080fd5b50600436106100a95760003560e01c80638da5cb5b116100715780638da5cb5b14610120578063997e44cb146101315780639dab1cb114610144578063c8985dac14610157578063cf6dac291461016a578063f2fde38b1461017d57600080fd5b806305d2d01e146100ae57806322e78e63146100c357806346c86808146100d6578063715018a6146101055780638b6fef061461010d575b600080fd5b6100c16100bc3660046104ea565b610190565b005b6100c16100d13660046104ea565b61021f565b6065546100e9906001600160a01b031681565b6040516001600160a01b03909116815260200160405180910390f35b6100c16102a5565b6100c161011b3660046104ea565b6102b9565b6033546001600160a01b03166100e9565b6100c161013f3660046104ea565b61033f565b6067546100e9906001600160a01b031681565b6068546100e9906001600160a01b031681565b6066546100e9906001600160a01b031681565b6100c161018b3660046104ea565b6103c5565b61019861043e565b60016001600160a01b0382163b1515146101cd5760405162461bcd60e51b81526004016101c49061051a565b60405180910390fd5b606580546001600160a01b038381166001600160a01b0319831681179093556040519116919082907f3434ba06bb81ddc5dd23ae42a7a9e6cf4a53e1f289d71f2edc2de24df01368ef90600090a35050565b61022761043e565b60016001600160a01b0382163b1515146102535760405162461bcd60e51b81526004016101c49061051a565b606880546001600160a01b038381166001600160a01b0319831681179093556040519116919082907f063462fa24b0df303c0145dc2c741f577300387a39d64fa960d7d9060a9f3ec090600090a35050565b6102ad61043e565b6102b76000610498565b565b6102c161043e565b60016001600160a01b0382163b1515146102ed5760405162461bcd60e51b81526004016101c49061051a565b606680546001600160a01b038381166001600160a01b0319831681179093556040519116919082907fde42902a3f8e0fda2128b809ac05fc17e8eb65f26d8cc4a5f5863c4e775bc16990600090a35050565b61034761043e565b60016001600160a01b0382163b1515146103735760405162461bcd60e51b81526004016101c49061051a565b606780546001600160a01b038381166001600160a01b0319831681179093556040519116919082907fa2ca9c9cd41179fe4d4e9c84827ba437b838df42dbdb78597412ca564b0f208190600090a35050565b6103cd61043e565b6001600160a01b0381166104325760405162461bcd60e51b815260206004820152602660248201527f4f776e61626c653a206e6577206f776e657220697320746865207a65726f206160448201526564647265737360d01b60648201526084016101c4565b61043b81610498565b50565b6033546001600160a01b031633146102b75760405162461bcd60e51b815260206004820181905260248201527f4f776e61626c653a2063616c6c6572206973206e6f7420746865206f776e657260448201526064016101c4565b603380546001600160a01b038381166001600160a01b0319831681179093556040519116919082907f8be0079c531659141344cd1fd0a4f28419497f9722a3daafe3b4186f6b6457e090600090a35050565b6000602082840312156104fc57600080fd5b81356001600160a01b038116811461051357600080fd5b9392505050565b60208082526022908201527f5f636f6e747261637441646472657373206973206e6f74206120636f6e74726160408201526118dd60f21b60608201526080019056fea2646970667358221220fdc1545a686cdd317ea036440d619e04d5d977bd9ed7907d2b37fd910281e30d64736f6c63430008110033",
  "linkReferences": {},
  "deployedLinkReferences": {}
}