{
  "_format": "hh-sol-artifact-1",
  "contractName": "KopoAddressProvider_testonly",
  "sourceName": "contracts/KopoAddressProvider_testonly.sol",
  "abi": [
    {
      "anonymous": false,
      "inputs": [
        {
          "indexed": false,
          "internalType": "uint8",
          "name": "version",
          "type": "uint8"
        }
      ],
      "name": "Initialized",
      "type": "event"
    },
    {
      "anonymous": false,
      "inputs": [
        {
          "indexed": true,
          "internalType": "address",
          "name": "previousOwner",
          "type": "address"
        },
        {
          "indexed": true,
          "internalType": "address",
          "name": "newOwner",
          "type": "address"
        }
      ],
      "name": "OwnershipTransferred",
      "type": "event"
    },
    {
      "anonymous": false,
      "inputs": [
        {
          "indexed": true,
          "internalType": "address",
          "name": "_previousAddress",
          "type": "address"
        },
        {
          "indexed": true,
          "internalType": "address",
          "name": "_newAddress",
          "type": "address"
        }
      ],
      "name": "documentHandlerContractUpdated",
      "type": "event"
    },
    {
      "anonymous": false,
      "inputs": [
        {
          "indexed": true,
          "internalType": "address",
          "name": "_previousAddress",
          "type": "address"
        },
        {
          "indexed": true,
          "internalType": "address",
          "name": "_newAddress",
          "type": "address"
        }
      ],
      "name": "folderFactoryContractUpdated",
      "type": "event"
    },
    {
      "anonymous": false,
      "inputs": [
        {
          "indexed": true,
          "internalType": "address",
          "name": "_previousAddress",
          "type": "address"
        },
        {
          "indexed": true,
          "internalType": "address",
          "name": "_newAddress",
          "type": "address"
        }
      ],
      "name": "rolesContractUpdated",
      "type": "event"
    },
    {
      "anonymous": false,
      "inputs": [
        {
          "indexed": true,
          "internalType": "address",
          "name": "_previousAddress",
          "type": "address"
        },
        {
          "indexed": true,
          "internalType": "address",
          "name": "_newAddress",
          "type": "address"
        }
      ],
      "name": "testingContractUpdated",
      "type": "event"
    },
    {
      "inputs": [],
      "name": "documentHandlerContractAddress",
      "outputs": [
        {
          "internalType": "address",
          "name": "",
          "type": "address"
        }
      ],
      "stateMutability": "view",
      "type": "function"
    },
    {
      "inputs": [],
      "name": "folderFactoryContractAddress",
      "outputs": [
        {
          "internalType": "address",
          "name": "",
          "type": "address"
        }
      ],
      "stateMutability": "view",
      "type": "function"
    },
    {
      "inputs": [],
      "name": "owner",
      "outputs": [
        {
          "internalType": "address",
          "name": "",
          "type": "address"
        }
      ],
      "stateMutability": "view",
      "type": "function"
    },
    {
      "inputs": [],
      "name": "renounceOwnership",
      "outputs": [],
      "stateMutability": "nonpayable",
      "type": "function"
    },
    {
      "inputs": [],
      "name": "rolesManagerContractAddress",
      "outputs": [
        {
          "internalType": "address",
          "name": "",
          "type": "address"
        }
      ],
      "stateMutability": "view",
      "type": "function"
    },
    {
      "inputs": [
        {
          "internalType": "address",
          "name": "_contractAddress",
          "type": "address"
        }
      ],
      "name": "setDocumentHandlerContractAddress",
      "outputs": [],
      "stateMutability": "nonpayable",
      "type": "function"
    },
    {
      "inputs": [
        {
          "internalType": "address",
          "name": "_contractAddress",
          "type": "address"
        }
      ],
      "name": "setFolderFactoryContractAddress",
      "outputs": [],
      "stateMutability": "nonpayable",
      "type": "function"
    },
    {
      "inputs": [
        {
          "internalType": "address",
          "name": "_contractAddress",
          "type": "address"
        }
      ],
      "name": "setRolesManagerContractAddress",
      "outputs": [],
      "stateMutability": "nonpayable",
      "type": "function"
    },
    {
      "inputs": [
        {
          "internalType": "address",
          "name": "_contractAddress",
          "type": "address"
        }
      ],
      "name": "setTestingContractAddress",
      "outputs": [],
      "stateMutability": "nonpayable",
      "type": "function"
    },
    {
      "inputs": [],
      "name": "testingContractAddress",
      "outputs": [
        {
          "internalType": "address",
          "name": "",
          "type": "address"
        }
      ],
      "stateMutability": "view",
      "type": "function"
    },
    {
      "inputs": [
        {
          "internalType": "address",
          "name": "newOwner",
          "type": "address"
        }
      ],
      "name": "transferOwnership",
      "outputs": [],
      "stateMutability": "nonpayable",
      "type": "function"
    }
  ],
  "bytecode": "0x608060405234801561001057600080fd5b50610ff2806100206000396000f3fe608060405234801561001057600080fd5b50600436106100a95760003560e01c80638da5cb5b116100715780638da5cb5b1461012a578063997e44cb146101485780639dab1cb114610164578063c8985dac14610182578063cf6dac29146101a0578063f2fde38b146101be576100a9565b806305d2d01e146100ae57806322e78e63146100ca57806346c86808146100e6578063715018a6146101045780638b6fef061461010e575b600080fd5b6100c860048036038101906100c39190610dc4565b6101da565b005b6100e460048036038101906100df9190610dc4565b610409565b005b6100ee610638565b6040516100fb9190610e00565b60405180910390f35b61010c61065e565b005b61012860048036038101906101239190610dc4565b610672565b005b6101326108a1565b60405161013f9190610e00565b60405180910390f35b610162600480360381019061015d9190610dc4565b6108cb565b005b61016c610afa565b6040516101799190610e00565b60405180910390f35b61018a610b20565b6040516101979190610e00565b60405180910390f35b6101a8610b46565b6040516101b59190610e00565b60405180910390f35b6101d860048036038101906101d39190610dc4565b610b6c565b005b6101ee6781fab61bcc23857860c01b610bef565b6101f6610bf2565b61020a67e07881344cbdf4f960c01b610bef565b61021e6712017072398e95cb60c01b610bef565b61023267e57ec5c2d1d7252f60c01b610bef565b610246670d227c93a1033a8660c01b610bef565b61025a678279aae306572cb160c01b610bef565b6001151561026782610c70565b1515146102a9576040517f08c379a00000000000000000000000000000000000000000000000000000000081526004016102a090610e9e565b60405180910390fd5b6102bd67fc281087dfda738760c01b610bef565b6102d16781cd7ccea0aebc0f60c01b610bef565b6102e567f75613db7872b6ad60c01b610bef565b6000606560009054906101000a900473ffffffffffffffffffffffffffffffffffffffff16905061032067ca365dfb883eca5060c01b610bef565b81606560006101000a81548173ffffffffffffffffffffffffffffffffffffffff021916908373ffffffffffffffffffffffffffffffffffffffff160217905550610375673578d7d7be4412e460c01b610bef565b61038967336bef4edd36ad2c60c01b610bef565b606560009054906101000a900473ffffffffffffffffffffffffffffffffffffffff1673ffffffffffffffffffffffffffffffffffffffff168173ffffffffffffffffffffffffffffffffffffffff167f3434ba06bb81ddc5dd23ae42a7a9e6cf4a53e1f289d71f2edc2de24df01368ef60405160405180910390a35050565b61041d6767cbb9ee6753d9f360c01b610bef565b610425610bf2565b61043967ca21024ba604e7c460c01b610bef565b61044d67d88b641a30fb196f60c01b610bef565b61046167320ca636231ae4f860c01b610bef565b61047567e460410c9db6c07260c01b610bef565b6104896705a3f7fb861f9e7060c01b610bef565b6001151561049682610c70565b1515146104d8576040517f08c379a00000000000000000000000000000000000000000000000000000000081526004016104cf90610e9e565b60405180910390fd5b6104ec677108b2fac986369a60c01b610bef565b6105006719bb2df97509e12960c01b610bef565b610514672dee67e14540005d60c01b610bef565b6000606860009054906101000a900473ffffffffffffffffffffffffffffffffffffffff16905061054f6754841591f20e882060c01b610bef565b81606860006101000a81548173ffffffffffffffffffffffffffffffffffffffff021916908373ffffffffffffffffffffffffffffffffffffffff1602179055506105a467fe6fa51f77da440960c01b610bef565b6105b867fc0a97ed11b0a97e60c01b610bef565b606860009054906101000a900473ffffffffffffffffffffffffffffffffffffffff1673ffffffffffffffffffffffffffffffffffffffff168173ffffffffffffffffffffffffffffffffffffffff167f063462fa24b0df303c0145dc2c741f577300387a39d64fa960d7d9060a9f3ec060405160405180910390a35050565b606560009054906101000a900473ffffffffffffffffffffffffffffffffffffffff1681565b610666610bf2565b6106706000610c93565b565b610686678460e9b37bdaeaa960c01b610bef565b61068e610bf2565b6106a26752a2cefba470878b60c01b610bef565b6106b6676ad27d03d650977260c01b610bef565b6106ca6775af6f6aaa84a87a60c01b610bef565b6106de677933ca149021f7d460c01b610bef565b6106f267cf1f7368a3cbc6ea60c01b610bef565b600115156106ff82610c70565b151514610741576040517f08c379a000000000000000000000000000000000000000000000000000000000815260040161073890610e9e565b60405180910390fd5b6107556783307d411749a2f160c01b610bef565b610769673d36a7c3773e94b060c01b610bef565b61077d67c7ea5ff2ba3f005460c01b610bef565b6000606660009054906101000a900473ffffffffffffffffffffffffffffffffffffffff1690506107b867ae89042d6f4da36860c01b610bef565b81606660006101000a81548173ffffffffffffffffffffffffffffffffffffffff021916908373ffffffffffffffffffffffffffffffffffffffff16021790555061080d679de3405a0796a98060c01b610bef565b61082167cac80f722b3c250b60c01b610bef565b606660009054906101000a900473ffffffffffffffffffffffffffffffffffffffff1673ffffffffffffffffffffffffffffffffffffffff168173ffffffffffffffffffffffffffffffffffffffff167fde42902a3f8e0fda2128b809ac05fc17e8eb65f26d8cc4a5f5863c4e775bc16960405160405180910390a35050565b6000603360009054906101000a900473ffffffffffffffffffffffffffffffffffffffff16905090565b6108df67900196be43fe9ca360c01b610bef565b6108e7610bf2565b6108fb672f1dc4b19ada95fc60c01b610bef565b61090f67e551ae93a14637cf60c01b610bef565b610923676009c262eeb4bc2160c01b610bef565b61093767260c0459ed6e618c60c01b610bef565b61094b67827b1dbd20a2828360c01b610bef565b6001151561095882610c70565b15151461099a576040517f08c379a000000000000000000000000000000000000000000000000000000000815260040161099190610e9e565b60405180910390fd5b6109ae673a7657de1bcb1c5c60c01b610bef565b6109c267e90f4af07027358460c01b610bef565b6109d667db3abd1a9b5ffe7160c01b610bef565b6000606760009054906101000a900473ffffffffffffffffffffffffffffffffffffffff169050610a1167a0912c98e681490a60c01b610bef565b81606760006101000a81548173ffffffffffffffffffffffffffffffffffffffff021916908373ffffffffffffffffffffffffffffffffffffffff160217905550610a666778a809f15ac955dd60c01b610bef565b610a7a675702a1d3c8abd77c60c01b610bef565b606760009054906101000a900473ffffffffffffffffffffffffffffffffffffffff1673ffffffffffffffffffffffffffffffffffffffff168173ffffffffffffffffffffffffffffffffffffffff167fa2ca9c9cd41179fe4d4e9c84827ba437b838df42dbdb78597412ca564b0f208160405160405180910390a35050565b606760009054906101000a900473ffffffffffffffffffffffffffffffffffffffff1681565b606860009054906101000a900473ffffffffffffffffffffffffffffffffffffffff1681565b606660009054906101000a900473ffffffffffffffffffffffffffffffffffffffff1681565b610b74610bf2565b600073ffffffffffffffffffffffffffffffffffffffff168173ffffffffffffffffffffffffffffffffffffffff1603610be3576040517f08c379a0000000000000000000000000000000000000000000000000000000008152600401610bda90610f30565b60405180910390fd5b610bec81610c93565b50565b50565b610bfa610d59565b73ffffffffffffffffffffffffffffffffffffffff16610c186108a1565b73ffffffffffffffffffffffffffffffffffffffff1614610c6e576040517f08c379a0000000000000000000000000000000000000000000000000000000008152600401610c6590610f9c565b60405180910390fd5b565b6000808273ffffffffffffffffffffffffffffffffffffffff163b119050919050565b6000603360009054906101000a900473ffffffffffffffffffffffffffffffffffffffff16905081603360006101000a81548173ffffffffffffffffffffffffffffffffffffffff021916908373ffffffffffffffffffffffffffffffffffffffff1602179055508173ffffffffffffffffffffffffffffffffffffffff168173ffffffffffffffffffffffffffffffffffffffff167f8be0079c531659141344cd1fd0a4f28419497f9722a3daafe3b4186f6b6457e060405160405180910390a35050565b600033905090565b600080fd5b600073ffffffffffffffffffffffffffffffffffffffff82169050919050565b6000610d9182610d66565b9050919050565b610da181610d86565b8114610dac57600080fd5b50565b600081359050610dbe81610d98565b92915050565b600060208284031215610dda57610dd9610d61565b5b6000610de884828501610daf565b91505092915050565b610dfa81610d86565b82525050565b6000602082019050610e156000830184610df1565b92915050565b600082825260208201905092915050565b7f5f636f6e747261637441646472657373206973206e6f74206120636f6e74726160008201527f6374000000000000000000000000000000000000000000000000000000000000602082015250565b6000610e88602283610e1b565b9150610e9382610e2c565b604082019050919050565b60006020820190508181036000830152610eb781610e7b565b9050919050565b7f4f776e61626c653a206e6577206f776e657220697320746865207a65726f206160008201527f6464726573730000000000000000000000000000000000000000000000000000602082015250565b6000610f1a602683610e1b565b9150610f2582610ebe565b604082019050919050565b60006020820190508181036000830152610f4981610f0d565b9050919050565b7f4f776e61626c653a2063616c6c6572206973206e6f7420746865206f776e6572600082015250565b6000610f86602083610e1b565b9150610f9182610f50565b602082019050919050565b60006020820190508181036000830152610fb581610f79565b905091905056fea2646970667358221220a7e0897763b2bb7edd9e758a42b5310f7e5bedca250591ec4f0f32f7a197c88664736f6c63430008110033",
  "linkReferences": {},
  "deployedLinkReferences": {}
}