{
  "_format": "hh-sol-artifact-1",
  "contractName": "KopoAddressProvider",
  "sourceName": "contracts/KopoAddressProvider.sol",
  "abi": [
    {
      "anonymous": false,
      "inputs": [
        {
          "indexed": false,
          "internalType": "uint8",
          "name": "version",
          "type": "uint8"
        }
      ],
      "name": "Initialized",
      "type": "event"
    },
    {
      "anonymous": false,
      "inputs": [
        {
          "indexed": true,
          "internalType": "address",
          "name": "previousOwner",
          "type": "address"
        },
        {
          "indexed": true,
          "internalType": "address",
          "name": "newOwner",
          "type": "address"
        }
      ],
      "name": "OwnershipTransferred",
      "type": "event"
    },
    {
      "anonymous": false,
      "inputs": [
        {
          "indexed": true,
          "internalType": "address",
          "name": "_previousAddress",
          "type": "address"
        },
        {
          "indexed": true,
          "internalType": "address",
          "name": "_newAddress",
          "type": "address"
        }
      ],
      "name": "documentHandlerContractUpdated",
      "type": "event"
    },
    {
      "anonymous": false,
      "inputs": [
        {
          "indexed": true,
          "internalType": "address",
          "name": "_previousAddress",
          "type": "address"
        },
        {
          "indexed": true,
          "internalType": "address",
          "name": "_newAddress",
          "type": "address"
        }
      ],
      "name": "folderFactoryContractUpdated",
      "type": "event"
    },
    {
      "anonymous": false,
      "inputs": [
        {
          "indexed": true,
          "internalType": "address",
          "name": "_previousAddress",
          "type": "address"
        },
        {
          "indexed": true,
          "internalType": "address",
          "name": "_newAddress",
          "type": "address"
        }
      ],
      "name": "rolesContractUpdated",
      "type": "event"
    },
    {
      "inputs": [],
      "name": "documentHandlerContractAddress",
      "outputs": [
        {
          "internalType": "address",
          "name": "",
          "type": "address"
        }
      ],
      "stateMutability": "view",
      "type": "function"
    },
    {
      "inputs": [],
      "name": "folderFactoryContractAddress",
      "outputs": [
        {
          "internalType": "address",
          "name": "",
          "type": "address"
        }
      ],
      "stateMutability": "view",
      "type": "function"
    },
    {
      "inputs": [],
      "name": "initialize",
      "outputs": [],
      "stateMutability": "nonpayable",
      "type": "function"
    },
    {
      "inputs": [],
      "name": "owner",
      "outputs": [
        {
          "internalType": "address",
          "name": "",
          "type": "address"
        }
      ],
      "stateMutability": "view",
      "type": "function"
    },
    {
      "inputs": [],
      "name": "renounceOwnership",
      "outputs": [],
      "stateMutability": "nonpayable",
      "type": "function"
    },
    {
      "inputs": [],
      "name": "rolesManagerContractAddress",
      "outputs": [
        {
          "internalType": "address",
          "name": "",
          "type": "address"
        }
      ],
      "stateMutability": "view",
      "type": "function"
    },
    {
      "inputs": [
        {
          "internalType": "address",
          "name": "_contractAddress",
          "type": "address"
        }
      ],
      "name": "setDocumentHandlerContractAddress",
      "outputs": [],
      "stateMutability": "nonpayable",
      "type": "function"
    },
    {
      "inputs": [
        {
          "internalType": "address",
          "name": "_contractAddress",
          "type": "address"
        }
      ],
      "name": "setFolderFactoryContractAddress",
      "outputs": [],
      "stateMutability": "nonpayable",
      "type": "function"
    },
    {
      "inputs": [
        {
          "internalType": "address",
          "name": "_contractAddress",
          "type": "address"
        }
      ],
      "name": "setRolesManagerContractAddress",
      "outputs": [],
      "stateMutability": "nonpayable",
      "type": "function"
    },
    {
      "inputs": [
        {
          "internalType": "address",
          "name": "newOwner",
          "type": "address"
        }
      ],
      "name": "transferOwnership",
      "outputs": [],
      "stateMutability": "nonpayable",
      "type": "function"
    }
  ],
  "bytecode": "0x608060405234801561001057600080fd5b5061114f806100206000396000f3fe608060405234801561001057600080fd5b506004361061009e5760003560e01c80638da5cb5b116100665780638da5cb5b1461010d578063997e44cb1461012b5780639dab1cb114610147578063cf6dac2914610165578063f2fde38b146101835761009e565b806305d2d01e146100a357806346c86808146100bf578063715018a6146100dd5780638129fc1c146100e75780638b6fef06146100f1575b600080fd5b6100bd60048036038101906100b89190610d90565b61019f565b005b6100c76103ce565b6040516100d49190610dcc565b60405180910390f35b6100e56103f4565b005b6100ef610408565b005b61010b60048036038101906101069190610d90565b6105aa565b005b6101156107d9565b6040516101229190610dcc565b60405180910390f35b61014560048036038101906101409190610d90565b610803565b005b61014f610a32565b60405161015c9190610dcc565b60405180910390f35b61016d610a58565b60405161017a9190610dcc565b60405180910390f35b61019d60048036038101906101989190610d90565b610a7e565b005b6101b36767ff05fc7772e0a260c01b610b01565b6101bb610b04565b6101cf67b1d9930593f55fba60c01b610b01565b6101e367c3412a36ad82734f60c01b610b01565b6101f767e719a239e8a07d9260c01b610b01565b61020b670c06f87919ae200b60c01b610b01565b61021f67dc09598c3ba8f61b60c01b610b01565b6001151561022c82610b82565b15151461026e576040517f08c379a000000000000000000000000000000000000000000000000000000000815260040161026590610e6a565b60405180910390fd5b610282675bdacbc3c49d293a60c01b610b01565b61029667bcb1558f47149d4660c01b610b01565b6102aa6713ffcf835c1ca78360c01b610b01565b6000606560009054906101000a900473ffffffffffffffffffffffffffffffffffffffff1690506102e5678a9967eff38d42e160c01b610b01565b81606560006101000a81548173ffffffffffffffffffffffffffffffffffffffff021916908373ffffffffffffffffffffffffffffffffffffffff16021790555061033a676ed8bd12a9b8ee5160c01b610b01565b61034e676c43b19826c1761460c01b610b01565b606560009054906101000a900473ffffffffffffffffffffffffffffffffffffffff1673ffffffffffffffffffffffffffffffffffffffff168173ffffffffffffffffffffffffffffffffffffffff167f3434ba06bb81ddc5dd23ae42a7a9e6cf4a53e1f289d71f2edc2de24df01368ef60405160405180910390a35050565b606560009054906101000a900473ffffffffffffffffffffffffffffffffffffffff1681565b6103fc610b04565b6104066000610ba5565b565b61041c67ccd5417aa2f3569f60c01b610b01565b60008060019054906101000a900460ff1615905080801561044d5750600160008054906101000a900460ff1660ff16105b8061047a575061045c30610b82565b1580156104795750600160008054906101000a900460ff1660ff16145b5b6104b9576040517f08c379a00000000000000000000000000000000000000000000000000000000081526004016104b090610efc565b60405180910390fd5b60016000806101000a81548160ff021916908360ff16021790555080156104f6576001600060016101000a81548160ff0219169083151502179055505b61050a67a03aa899651f4f9160c01b610b01565b61051e678b9e560c3d04a3da60c01b610b01565b61053267c6d37324e10490bb60c01b610b01565b6105466798b609da65190f1260c01b610b01565b61054e610c6b565b80156105a75760008060016101000a81548160ff0219169083151502179055507f7f26b83ff96e1f2b6a682f133852f6798a09c465da95921460cefb3847402498600160405161059e9190610f6e565b60405180910390a15b50565b6105be6782c8736226c9634260c01b610b01565b6105c6610b04565b6105da67171b575e97f3903660c01b610b01565b6105ee6729ff9467897e701160c01b610b01565b61060267daada6f2b1786e9660c01b610b01565b61061667a285a748e0252a4560c01b610b01565b61062a67d7a51841ba9721bc60c01b610b01565b6001151561063782610b82565b151514610679576040517f08c379a000000000000000000000000000000000000000000000000000000000815260040161067090610e6a565b60405180910390fd5b61068d67c8c82deb0feb36c160c01b610b01565b6106a167ac05dadb2a183dd460c01b610b01565b6106b5670788e73c46aed90960c01b610b01565b6000606660009054906101000a900473ffffffffffffffffffffffffffffffffffffffff1690506106f067af4395043afaa05160c01b610b01565b81606660006101000a81548173ffffffffffffffffffffffffffffffffffffffff021916908373ffffffffffffffffffffffffffffffffffffffff1602179055506107456742bf9b0305182c4360c01b610b01565b610759678d6bce967ed6fb1860c01b610b01565b606660009054906101000a900473ffffffffffffffffffffffffffffffffffffffff1673ffffffffffffffffffffffffffffffffffffffff168173ffffffffffffffffffffffffffffffffffffffff167fde42902a3f8e0fda2128b809ac05fc17e8eb65f26d8cc4a5f5863c4e775bc16960405160405180910390a35050565b6000603360009054906101000a900473ffffffffffffffffffffffffffffffffffffffff16905090565b610817677b072853139c5fdc60c01b610b01565b61081f610b04565b61083367326705302762b85c60c01b610b01565b61084767188d2a7301c2a1bc60c01b610b01565b61085b67a580ba079a7b4c7d60c01b610b01565b61086f673c2080e26a01ddb260c01b610b01565b610883679e5b955fb5d47fef60c01b610b01565b6001151561089082610b82565b1515146108d2576040517f08c379a00000000000000000000000000000000000000000000000000000000081526004016108c990610e6a565b60405180910390fd5b6108e66748ec805d8f6b55c560c01b610b01565b6108fa671b5d1ef9457d0cbd60c01b610b01565b61090e67fb6de08dc44265b360c01b610b01565b6000606760009054906101000a900473ffffffffffffffffffffffffffffffffffffffff16905061094967cc9acb5014b5f9ae60c01b610b01565b81606760006101000a81548173ffffffffffffffffffffffffffffffffffffffff021916908373ffffffffffffffffffffffffffffffffffffffff16021790555061099e676e54ca1202e7983160c01b610b01565b6109b267b8e28a74d758670860c01b610b01565b606760009054906101000a900473ffffffffffffffffffffffffffffffffffffffff1673ffffffffffffffffffffffffffffffffffffffff168173ffffffffffffffffffffffffffffffffffffffff167fa2ca9c9cd41179fe4d4e9c84827ba437b838df42dbdb78597412ca564b0f208160405160405180910390a35050565b606760009054906101000a900473ffffffffffffffffffffffffffffffffffffffff1681565b606660009054906101000a900473ffffffffffffffffffffffffffffffffffffffff1681565b610a86610b04565b600073ffffffffffffffffffffffffffffffffffffffff168173ffffffffffffffffffffffffffffffffffffffff1603610af5576040517f08c379a0000000000000000000000000000000000000000000000000000000008152600401610aec90610ffb565b60405180910390fd5b610afe81610ba5565b50565b50565b610b0c610cc4565b73ffffffffffffffffffffffffffffffffffffffff16610b2a6107d9565b73ffffffffffffffffffffffffffffffffffffffff1614610b80576040517f08c379a0000000000000000000000000000000000000000000000000000000008152600401610b7790611067565b60405180910390fd5b565b6000808273ffffffffffffffffffffffffffffffffffffffff163b119050919050565b6000603360009054906101000a900473ffffffffffffffffffffffffffffffffffffffff16905081603360006101000a81548173ffffffffffffffffffffffffffffffffffffffff021916908373ffffffffffffffffffffffffffffffffffffffff1602179055508173ffffffffffffffffffffffffffffffffffffffff168173ffffffffffffffffffffffffffffffffffffffff167f8be0079c531659141344cd1fd0a4f28419497f9722a3daafe3b4186f6b6457e060405160405180910390a35050565b600060019054906101000a900460ff16610cba576040517f08c379a0000000000000000000000000000000000000000000000000000000008152600401610cb1906110f9565b60405180910390fd5b610cc2610ccc565b565b600033905090565b600060019054906101000a900460ff16610d1b576040517f08c379a0000000000000000000000000000000000000000000000000000000008152600401610d12906110f9565b60405180910390fd5b610d2b610d26610cc4565b610ba5565b565b600080fd5b600073ffffffffffffffffffffffffffffffffffffffff82169050919050565b6000610d5d82610d32565b9050919050565b610d6d81610d52565b8114610d7857600080fd5b50565b600081359050610d8a81610d64565b92915050565b600060208284031215610da657610da5610d2d565b5b6000610db484828501610d7b565b91505092915050565b610dc681610d52565b82525050565b6000602082019050610de16000830184610dbd565b92915050565b600082825260208201905092915050565b7f5f636f6e747261637441646472657373206973206e6f74206120636f6e74726160008201527f6374000000000000000000000000000000000000000000000000000000000000602082015250565b6000610e54602283610de7565b9150610e5f82610df8565b604082019050919050565b60006020820190508181036000830152610e8381610e47565b9050919050565b7f496e697469616c697a61626c653a20636f6e747261637420697320616c72656160008201527f647920696e697469616c697a6564000000000000000000000000000000000000602082015250565b6000610ee6602e83610de7565b9150610ef182610e8a565b604082019050919050565b60006020820190508181036000830152610f1581610ed9565b9050919050565b6000819050919050565b600060ff82169050919050565b6000819050919050565b6000610f58610f53610f4e84610f1c565b610f33565b610f26565b9050919050565b610f6881610f3d565b82525050565b6000602082019050610f836000830184610f5f565b92915050565b7f4f776e61626c653a206e6577206f776e657220697320746865207a65726f206160008201527f6464726573730000000000000000000000000000000000000000000000000000602082015250565b6000610fe5602683610de7565b9150610ff082610f89565b604082019050919050565b6000602082019050818103600083015261101481610fd8565b9050919050565b7f4f776e61626c653a2063616c6c6572206973206e6f7420746865206f776e6572600082015250565b6000611051602083610de7565b915061105c8261101b565b602082019050919050565b6000602082019050818103600083015261108081611044565b9050919050565b7f496e697469616c697a61626c653a20636f6e7472616374206973206e6f74206960008201527f6e697469616c697a696e67000000000000000000000000000000000000000000602082015250565b60006110e3602b83610de7565b91506110ee82611087565b604082019050919050565b60006020820190508181036000830152611112816110d6565b905091905056fea2646970667358221220647be0843e7ea2c25dab587fdb8e890019d30d7953187bc99b8081f4fecdb8e064736f6c63430008110033",
  "linkReferences": {},
  "deployedLinkReferences": {}
}