{
  "_format": "hh-sol-artifact-1",
  "contractName": "KopoAddressProvider",
  "sourceName": "contracts/KopoAddressProvider.sol",
  "abi": [
    {
      "anonymous": false,
      "inputs": [
        {
          "indexed": false,
          "internalType": "uint8",
          "name": "version",
          "type": "uint8"
        }
      ],
      "name": "Initialized",
      "type": "event"
    },
    {
      "anonymous": false,
      "inputs": [
        {
          "indexed": true,
          "internalType": "address",
          "name": "previousOwner",
          "type": "address"
        },
        {
          "indexed": true,
          "internalType": "address",
          "name": "newOwner",
          "type": "address"
        }
      ],
      "name": "OwnershipTransferred",
      "type": "event"
    },
    {
      "anonymous": false,
      "inputs": [
        {
          "indexed": true,
          "internalType": "address",
          "name": "_previousAddress",
          "type": "address"
        },
        {
          "indexed": true,
          "internalType": "address",
          "name": "_newAddress",
          "type": "address"
        }
      ],
      "name": "documentHandlerContractUpdated",
      "type": "event"
    },
    {
      "anonymous": false,
      "inputs": [
        {
          "indexed": true,
          "internalType": "address",
          "name": "_previousAddress",
          "type": "address"
        },
        {
          "indexed": true,
          "internalType": "address",
          "name": "_newAddress",
          "type": "address"
        }
      ],
      "name": "folderFactoryContractUpdated",
      "type": "event"
    },
    {
      "anonymous": false,
      "inputs": [
        {
          "indexed": true,
          "internalType": "address",
          "name": "_previousAddress",
          "type": "address"
        },
        {
          "indexed": true,
          "internalType": "address",
          "name": "_newAddress",
          "type": "address"
        }
      ],
      "name": "rolesContractUpdated",
      "type": "event"
    },
    {
      "inputs": [],
      "name": "documentHandlerContractAddress",
      "outputs": [
        {
          "internalType": "address",
          "name": "",
          "type": "address"
        }
      ],
      "stateMutability": "view",
      "type": "function"
    },
    {
      "inputs": [],
      "name": "folderFactoryContractAddress",
      "outputs": [
        {
          "internalType": "address",
          "name": "",
          "type": "address"
        }
      ],
      "stateMutability": "view",
      "type": "function"
    },
    {
      "inputs": [],
      "name": "initialize",
      "outputs": [],
      "stateMutability": "nonpayable",
      "type": "function"
    },
    {
      "inputs": [],
      "name": "owner",
      "outputs": [
        {
          "internalType": "address",
          "name": "",
          "type": "address"
        }
      ],
      "stateMutability": "view",
      "type": "function"
    },
    {
      "inputs": [],
      "name": "renounceOwnership",
      "outputs": [],
      "stateMutability": "nonpayable",
      "type": "function"
    },
    {
      "inputs": [],
      "name": "rolesManagerContractAddress",
      "outputs": [
        {
          "internalType": "address",
          "name": "",
          "type": "address"
        }
      ],
      "stateMutability": "view",
      "type": "function"
    },
    {
      "inputs": [
        {
          "internalType": "address",
          "name": "_contractAddress",
          "type": "address"
        }
      ],
      "name": "setDocumentHandlerContractAddress",
      "outputs": [],
      "stateMutability": "nonpayable",
      "type": "function"
    },
    {
      "inputs": [
        {
          "internalType": "address",
          "name": "_contractAddress",
          "type": "address"
        }
      ],
      "name": "setFolderFactoryContractAddress",
      "outputs": [],
      "stateMutability": "nonpayable",
      "type": "function"
    },
    {
      "inputs": [
        {
          "internalType": "address",
          "name": "_contractAddress",
          "type": "address"
        }
      ],
      "name": "setRolesManagerContractAddress",
      "outputs": [],
      "stateMutability": "nonpayable",
      "type": "function"
    },
    {
      "inputs": [
        {
          "internalType": "address",
          "name": "newOwner",
          "type": "address"
        }
      ],
      "name": "transferOwnership",
      "outputs": [],
      "stateMutability": "nonpayable",
      "type": "function"
    }
  ],
  "bytecode": "0x608060405234801561001057600080fd5b50610696806100206000396000f3fe608060405234801561001057600080fd5b506004361061009e5760003560e01c80638da5cb5b116100665780638da5cb5b1461010a578063997e44cb1461011b5780639dab1cb11461012e578063cf6dac2914610141578063f2fde38b1461015457600080fd5b806305d2d01e146100a357806346c86808146100b8578063715018a6146100e75780638129fc1c146100ef5780638b6fef06146100f7575b600080fd5b6100b66100b13660046105a3565b610167565b005b6065546100cb906001600160a01b031681565b6040516001600160a01b03909116815260200160405180910390f35b6100b66101f6565b6100b661020a565b6100b66101053660046105a3565b61031b565b6033546001600160a01b03166100cb565b6100b66101293660046105a3565b6103a1565b6067546100cb906001600160a01b031681565b6066546100cb906001600160a01b031681565b6100b66101623660046105a3565b610427565b61016f61049d565b60016001600160a01b0382163b1515146101a45760405162461bcd60e51b815260040161019b906105d3565b60405180910390fd5b606580546001600160a01b038381166001600160a01b0319831681179093556040519116919082907f3434ba06bb81ddc5dd23ae42a7a9e6cf4a53e1f289d71f2edc2de24df01368ef90600090a35050565b6101fe61049d565b61020860006104f7565b565b600054610100900460ff161580801561022a5750600054600160ff909116105b806102445750303b158015610244575060005460ff166001145b6102a75760405162461bcd60e51b815260206004820152602e60248201527f496e697469616c697a61626c653a20636f6e747261637420697320616c72656160448201526d191e481a5b9a5d1a585b1a5e995960921b606482015260840161019b565b6000805460ff1916600117905580156102ca576000805461ff0019166101001790555b6102d2610549565b8015610318576000805461ff0019169055604051600181527f7f26b83ff96e1f2b6a682f133852f6798a09c465da95921460cefb38474024989060200160405180910390a15b50565b61032361049d565b60016001600160a01b0382163b15151461034f5760405162461bcd60e51b815260040161019b906105d3565b606680546001600160a01b038381166001600160a01b0319831681179093556040519116919082907fde42902a3f8e0fda2128b809ac05fc17e8eb65f26d8cc4a5f5863c4e775bc16990600090a35050565b6103a961049d565b60016001600160a01b0382163b1515146103d55760405162461bcd60e51b815260040161019b906105d3565b606780546001600160a01b038381166001600160a01b0319831681179093556040519116919082907fa2ca9c9cd41179fe4d4e9c84827ba437b838df42dbdb78597412ca564b0f208190600090a35050565b61042f61049d565b6001600160a01b0381166104945760405162461bcd60e51b815260206004820152602660248201527f4f776e61626c653a206e6577206f776e657220697320746865207a65726f206160448201526564647265737360d01b606482015260840161019b565b610318816104f7565b6033546001600160a01b031633146102085760405162461bcd60e51b815260206004820181905260248201527f4f776e61626c653a2063616c6c6572206973206e6f7420746865206f776e6572604482015260640161019b565b603380546001600160a01b038381166001600160a01b0319831681179093556040519116919082907f8be0079c531659141344cd1fd0a4f28419497f9722a3daafe3b4186f6b6457e090600090a35050565b600054610100900460ff166105705760405162461bcd60e51b815260040161019b90610615565b610208600054610100900460ff1661059a5760405162461bcd60e51b815260040161019b90610615565b610208336104f7565b6000602082840312156105b557600080fd5b81356001600160a01b03811681146105cc57600080fd5b9392505050565b60208082526022908201527f5f636f6e747261637441646472657373206973206e6f74206120636f6e74726160408201526118dd60f21b606082015260800190565b6020808252602b908201527f496e697469616c697a61626c653a20636f6e7472616374206973206e6f74206960408201526a6e697469616c697a696e6760a81b60608201526080019056fea2646970667358221220e7eaeb21318d7bc814a8bf8f123eff280ad774bc0a8793dc34ab22510504970864736f6c63430008110033",
  "linkReferences": {},
  "deployedLinkReferences": {}
}