{
  "_format": "hh-sol-artifact-1",
  "contractName": "KopoFolderFactory",
  "sourceName": "contracts/KopoFolderFactory.sol",
  "abi": [
    {
      "inputs": [
        {
          "internalType": "address",
          "name": "_addressProvider",
          "type": "address"
        }
      ],
      "stateMutability": "nonpayable",
      "type": "constructor"
    },
    {
      "anonymous": false,
      "inputs": [
        {
          "indexed": true,
          "internalType": "address",
          "name": "_from",
          "type": "address"
        },
        {
          "indexed": true,
          "internalType": "address",
          "name": "_contract",
          "type": "address"
        },
        {
          "indexed": true,
          "internalType": "bytes32",
          "name": "_folderId",
          "type": "bytes32"
        }
      ],
      "name": "NewFolder",
      "type": "event"
    },
    {
      "inputs": [
        {
          "internalType": "uint256",
          "name": "_amount",
          "type": "uint256"
        }
      ],
      "name": "batchCreateFolders",
      "outputs": [],
      "stateMutability": "nonpayable",
      "type": "function"
    },
    {
      "inputs": [],
      "name": "createFolder",
      "outputs": [],
      "stateMutability": "nonpayable",
      "type": "function"
    },
    {
      "inputs": [
        {
          "internalType": "uint256",
          "name": "_nonce",
          "type": "uint256"
        }
      ],
      "name": "createFolderWithNonce",
      "outputs": [],
      "stateMutability": "nonpayable",
      "type": "function"
    },
    {
      "inputs": [
        {
          "internalType": "bytes32",
          "name": "",
          "type": "bytes32"
        }
      ],
      "name": "registeredFolders",
      "outputs": [
        {
          "internalType": "address",
          "name": "",
          "type": "address"
        }
      ],
      "stateMutability": "view",
      "type": "function"
    }
  ],
  "bytecode": "0x60a060405234801561001057600080fd5b5060405161258138038061258183398101604081905261002f91610040565b6001600160a01b0316608052610070565b60006020828403121561005257600080fd5b81516001600160a01b038116811461006957600080fd5b9392505050565b6080516124e261009f6000396000818160c9015281816101ef0152818161032f01526104f901526124e26000f3fe608060405234801561001057600080fd5b506004361061004c5760003560e01c80633802915a146100515780636bfac3bd14610066578063899964d3146100ab578063c22ef51d146100be575b600080fd5b61006461005f36600461061e565b6100c6565b005b61008f61007436600461061e565b6000602081905290815260409020546001600160a01b031681565b6040516001600160a01b03909116815260200160405180910390f35b6100646100b936600461061e565b6101ec565b61006461032c565b337f00000000000000000000000000000000000000000000000000000000000000006001600160a01b031663cf6dac296040518163ffffffff1660e01b8152600401602060405180830381865afa158015610125573d6000803e3d6000fd5b505050506040513d601f19601f820116820180604052508101906101499190610637565b60405163b9209e3360e01b81526001600160a01b038381166004830152919091169063b9209e3390602401602060405180830381865afa158015610191573d6000803e3d6000fd5b505050506040513d601f19601f820116820180604052508101906101b59190610667565b15156001146101df5760405162461bcd60e51b81526004016101d690610689565b60405180910390fd5b6101e882610449565b5050565b337f00000000000000000000000000000000000000000000000000000000000000006001600160a01b031663cf6dac296040518163ffffffff1660e01b8152600401602060405180830381865afa15801561024b573d6000803e3d6000fd5b505050506040513d601f19601f8201168201806040525081019061026f9190610637565b60405163b9209e3360e01b81526001600160a01b038381166004830152919091169063b9209e3390602401602060405180830381865afa1580156102b7573d6000803e3d6000fd5b505050506040513d601f19601f820116820180604052508101906102db9190610667565b15156001146102fc5760405162461bcd60e51b81526004016101d690610689565b81610306816106c5565b9250505b600182610316816106de565b935011156101e85761032782610449565b61030a565b337f00000000000000000000000000000000000000000000000000000000000000006001600160a01b031663cf6dac296040518163ffffffff1660e01b8152600401602060405180830381865afa15801561038b573d6000803e3d6000fd5b505050506040513d601f19601f820116820180604052508101906103af9190610637565b60405163b9209e3360e01b81526001600160a01b038381166004830152919091169063b9209e3390602401602060405180830381865afa1580156103f7573d6000803e3d6000fd5b505050506040513d601f19601f8201168201806040525081019061041b9190610667565b151560011461043c5760405162461bcd60e51b81526004016101d690610689565b6104466000610449565b50565b6040516bffffffffffffffffffffffff1933606090811b8216602084015230901b1660348201524260488201526068810182905260009060880160408051601f1981840301815291815281516020928301206000818152928390529120549091506001600160a01b0316156104f55760405162461bcd60e51b8152602060048201526012602482015271185b1c9958591e481c9959da5cdd195c995960721b60448201526064016101d6565b60007f00000000000000000000000000000000000000000000000000000000000000008260405161052590610611565b6001600160a01b0390921682526020820152604001604051809103906000f080158015610556573d6000803e3d6000fd5b506000838152602081905260409081902080546001600160a01b0319166001600160a01b038416908117909155905163f2fde38b60e01b81523360048201529192509063f2fde38b90602401600060405180830381600087803b1580156105bc57600080fd5b505af11580156105d0573d6000803e3d6000fd5b50506040518492506001600160a01b038416915033907fb254d1d67349512fcc10151ed34ba7814d5dbc50c6d7f796af7c10f09562b9c990600090a4505050565b611db7806106f683390190565b60006020828403121561063057600080fd5b5035919050565b60006020828403121561064957600080fd5b81516001600160a01b038116811461066057600080fd5b9392505050565b60006020828403121561067957600080fd5b8151801515811461066057600080fd5b6020808252600c908201526b1b9bdd081d995c9a599a595960a21b604082015260600190565b634e487b7160e01b600052601160045260246000fd5b6000600182016106d7576106d76106af565b5060010190565b6000816106ed576106ed6106af565b50600019019056fe60a06040523480156200001157600080fd5b5060405162001db738038062001db7833981016040819052620000349162000122565b6040518060400160405280601181526020017025b7b837a337b63232b92430b7323632b960791b815250604051806040016040528060038152602001620968c960eb1b81525081600090816200008b919062000203565b5060016200009a828262000203565b505050620000b7620000b1620000cc60201b60201c565b620000d0565b6008556001600160a01b0316608052620002cf565b3390565b600680546001600160a01b038381166001600160a01b0319831681179093556040519116919082907f8be0079c531659141344cd1fd0a4f28419497f9722a3daafe3b4186f6b6457e090600090a35050565b600080604083850312156200013657600080fd5b82516001600160a01b03811681146200014e57600080fd5b6020939093015192949293505050565b634e487b7160e01b600052604160045260246000fd5b600181811c908216806200018957607f821691505b602082108103620001aa57634e487b7160e01b600052602260045260246000fd5b50919050565b601f821115620001fe57600081815260208120601f850160051c81016020861015620001d95750805b601f850160051c820191505b81811015620001fa57828155600101620001e5565b5050505b505050565b81516001600160401b038111156200021f576200021f6200015e565b620002378162000230845462000174565b84620001b0565b602080601f8311600181146200026f5760008415620002565750858301515b600019600386901b1c1916600185901b178555620001fa565b600085815260208120601f198616915b82811015620002a0578886015182559484019460019091019084016200027f565b5085821015620002bf5787850151600019600388901b60f8161c191681555b5050505050600190811b01905550565b608051611acc620002eb60003960006109860152611acc6000f3fe608060405234801561001057600080fd5b50600436106101425760003560e01c8063715018a6116100b8578063a22cb4651161007c578063a22cb465146102a3578063b88d4fde146102b6578063c87b56dd146102c9578063d204c45e146102dc578063e985e9c5146102ef578063f2fde38b1461030257600080fd5b8063715018a614610267578063731ad4121461026f5780638da5cb5b1461027757806395d89b41146102885780639f0cb4ff1461029057600080fd5b806323b872dd1161010a57806323b872dd146101fc5780632a2e506a1461020f57806332cb6b0c1461022657806342842e0e1461022e5780636352211e1461024157806370a082311461025457600080fd5b806301ffc9a71461014757806306fdde031461016f578063081812fc14610184578063095ea7b3146101af578063150b7a02146101c4575b600080fd5b61015a61015536600461130b565b610315565b60405190151581526020015b60405180910390f35b610177610367565b6040516101669190611375565b610197610192366004611388565b6103f9565b6040516001600160a01b039091168152602001610166565b6101c26101bd3660046113b6565b610420565b005b6101e36101d236600461142b565b630a85bd0160e11b95945050505050565b6040516001600160e01b03199091168152602001610166565b6101c261020a36600461149e565b61053a565b61021860085481565b604051908152602001610166565b610218600181565b6101c261023c36600461149e565b61056b565b61019761024f366004611388565b610586565b6102186102623660046114df565b6105e6565b6101c261066c565b610177610680565b6006546001600160a01b0316610197565b61017761070e565b6101c261029e3660046114fc565b61071d565b6101c26102b136600461154c565b61078c565b6101c26102c436600461159b565b61079b565b6101776102d7366004611388565b6107d3565b6101c26102ea36600461167b565b6108c1565b61015a6102fd3660046116d0565b610955565b6101c26103103660046114df565b610983565b60006001600160e01b031982166380ac58cd60e01b148061034657506001600160e01b03198216635b5e139f60e01b145b8061036157506301ffc9a760e01b6001600160e01b03198316145b92915050565b606060008054610376906116fe565b80601f01602080910402602001604051908101604052809291908181526020018280546103a2906116fe565b80156103ef5780601f106103c4576101008083540402835291602001916103ef565b820191906000526020600020905b8154815290600101906020018083116103d257829003601f168201915b5050505050905090565b600061040482610ac3565b506000908152600460205260409020546001600160a01b031690565b600061042b82610586565b9050806001600160a01b0316836001600160a01b03160361049d5760405162461bcd60e51b815260206004820152602160248201527f4552433732313a20617070726f76616c20746f2063757272656e74206f776e656044820152603960f91b60648201526084015b60405180910390fd5b336001600160a01b03821614806104b957506104b98133610955565b61052b5760405162461bcd60e51b815260206004820152603d60248201527f4552433732313a20617070726f76652063616c6c6572206973206e6f7420746f60448201527f6b656e206f776e6572206f7220617070726f76656420666f7220616c6c0000006064820152608401610494565b6105358383610b25565b505050565b6105443382610b93565b6105605760405162461bcd60e51b815260040161049490611738565b610535838383610bf2565b6105358383836040518060200160405280600081525061079b565b6000818152600260205260408120546001600160a01b0316806103615760405162461bcd60e51b8152602060048201526018602482015277115490cdcc8c4e881a5b9d985b1a59081d1bdad95b88125160421b6044820152606401610494565b60006001600160a01b0382166106505760405162461bcd60e51b815260206004820152602960248201527f4552433732313a2061646472657373207a65726f206973206e6f7420612076616044820152683634b21037bbb732b960b91b6064820152608401610494565b506001600160a01b031660009081526003602052604090205490565b610674610d63565b61067e6000610dbd565b565b6009805461068d906116fe565b80601f01602080910402602001604051908101604052809291908181526020018280546106b9906116fe565b80156107065780601f106106db57610100808354040283529160200191610706565b820191906000526020600020905b8154815290600101906020018083116106e957829003601f168201915b505050505081565b606060018054610376906116fe565b610725610d63565b8181604051610735929190611785565b6040518091039020336001600160a01b03167fe6e8eb0d08ce8b2cbce2a34f6868471e13d0980f216d8f1cd54270fdfdcded8360096040516107779190611795565b60405180910390a3600961053582848361186e565b610797338383610e0f565b5050565b6107a53383610b93565b6107c15760405162461bcd60e51b815260040161049490611738565b6107cd84848484610edd565b50505050565b6060816107df60075490565b116108235760405162461bcd60e51b81526020600482015260146024820152731d1bdad95b88191bd95cc81b9bdd08195e1a5cdd60621b6044820152606401610494565b6000828152600a60205260409020805461083c906116fe565b80601f0160208091040260200160405190810160405280929190818152602001828054610868906116fe565b80156108b55780601f1061088a576101008083540402835291602001916108b5565b820191906000526020600020905b81548152906001019060200180831161089857829003601f168201915b50505050509050919050565b6108c9610d63565b60016108d460075490565b106109165760405162461bcd60e51b81526020600482015260126024820152711b585e081cdd5c1c1b1e481c995858da195960721b6044820152606401610494565b600061092160075490565b9050610931600780546001019055565b6000818152600a6020526040902061094a83858361186e565b506107cd8482610f10565b6001600160a01b03918216600090815260056020908152604080832093909416825291909152205460ff1690565b807f00000000000000000000000000000000000000000000000000000000000000006001600160a01b031663cf6dac296040518163ffffffff1660e01b8152600401602060405180830381865afa1580156109e2573d6000803e3d6000fd5b505050506040513d601f19601f82011682018060405250810190610a06919061192f565b60405163b9209e3360e01b81526001600160a01b038381166004830152919091169063b9209e3390602401602060405180830381865afa158015610a4e573d6000803e3d6000fd5b505050506040513d601f19601f82011682018060405250810190610a72919061194c565b1515600114610ab25760405162461bcd60e51b815260206004820152600c60248201526b1b9bdd081d995c9a599a595960a21b6044820152606401610494565b610aba610d63565b61079782610f2a565b6000818152600260205260409020546001600160a01b0316610b225760405162461bcd60e51b8152602060048201526018602482015277115490cdcc8c4e881a5b9d985b1a59081d1bdad95b88125160421b6044820152606401610494565b50565b600081815260046020526040902080546001600160a01b0319166001600160a01b0384169081179091558190610b5a82610586565b6001600160a01b03167f8c5be1e5ebec7d5bd14f71427d1e84f3dd0314c0f7b2291e5b200ac8c7c3b92560405160405180910390a45050565b600080610b9f83610586565b9050806001600160a01b0316846001600160a01b03161480610bc65750610bc68185610955565b80610bea5750836001600160a01b0316610bdf846103f9565b6001600160a01b0316145b949350505050565b826001600160a01b0316610c0582610586565b6001600160a01b031614610c2b5760405162461bcd60e51b815260040161049490611969565b6001600160a01b038216610c8d5760405162461bcd60e51b8152602060048201526024808201527f4552433732313a207472616e7366657220746f20746865207a65726f206164646044820152637265737360e01b6064820152608401610494565b610c9a8383836001610fa0565b826001600160a01b0316610cad82610586565b6001600160a01b031614610cd35760405162461bcd60e51b815260040161049490611969565b600081815260046020908152604080832080546001600160a01b03199081169091556001600160a01b0387811680865260038552838620805460001901905590871680865283862080546001019055868652600290945282852080549092168417909155905184937fddf252ad1be2c89b69c2b068fc378daa952ba7f163c4a11628f55a4df523b3ef91a4505050565b6006546001600160a01b0316331461067e5760405162461bcd60e51b815260206004820181905260248201527f4f776e61626c653a2063616c6c6572206973206e6f7420746865206f776e65726044820152606401610494565b600680546001600160a01b038381166001600160a01b0319831681179093556040519116919082907f8be0079c531659141344cd1fd0a4f28419497f9722a3daafe3b4186f6b6457e090600090a35050565b816001600160a01b0316836001600160a01b031603610e705760405162461bcd60e51b815260206004820152601960248201527f4552433732313a20617070726f766520746f2063616c6c6572000000000000006044820152606401610494565b6001600160a01b03838116600081815260056020908152604080832094871680845294825291829020805460ff191686151590811790915591519182527f17307eab39ab6107e8899845ad3d59bd9653f200f220920489ca2b5937696c31910160405180910390a3505050565b610ee8848484610bf2565b610ef484848484611028565b6107cd5760405162461bcd60e51b8152600401610494906119ae565b610797828260405180602001604052806000815250611129565b610f32610d63565b6001600160a01b038116610f975760405162461bcd60e51b815260206004820152602660248201527f4f776e61626c653a206e6577206f776e657220697320746865207a65726f206160448201526564647265737360d01b6064820152608401610494565b610b2281610dbd565b60018111156107cd576001600160a01b03841615610fe6576001600160a01b03841660009081526003602052604081208054839290610fe0908490611a16565b90915550505b6001600160a01b038316156107cd576001600160a01b0383166000908152600360205260408120805483929061101d908490611a29565b909155505050505050565b60006001600160a01b0384163b1561111e57604051630a85bd0160e11b81526001600160a01b0385169063150b7a029061106c903390899088908890600401611a3c565b6020604051808303816000875af19250505080156110a7575060408051601f3d908101601f191682019092526110a491810190611a79565b60015b611104573d8080156110d5576040519150601f19603f3d011682016040523d82523d6000602084013e6110da565b606091505b5080516000036110fc5760405162461bcd60e51b8152600401610494906119ae565b805181602001fd5b6001600160e01b031916630a85bd0160e11b149050610bea565b506001949350505050565b611133838361115c565b6111406000848484611028565b6105355760405162461bcd60e51b8152600401610494906119ae565b6001600160a01b0382166111b25760405162461bcd60e51b815260206004820181905260248201527f4552433732313a206d696e7420746f20746865207a65726f20616464726573736044820152606401610494565b6000818152600260205260409020546001600160a01b0316156112175760405162461bcd60e51b815260206004820152601c60248201527f4552433732313a20746f6b656e20616c7265616479206d696e746564000000006044820152606401610494565b611225600083836001610fa0565b6000818152600260205260409020546001600160a01b03161561128a5760405162461bcd60e51b815260206004820152601c60248201527f4552433732313a20746f6b656e20616c7265616479206d696e746564000000006044820152606401610494565b6001600160a01b038216600081815260036020908152604080832080546001019055848352600290915280822080546001600160a01b0319168417905551839291907fddf252ad1be2c89b69c2b068fc378daa952ba7f163c4a11628f55a4df523b3ef908290a45050565b6001600160e01b031981168114610b2257600080fd5b60006020828403121561131d57600080fd5b8135611328816112f5565b9392505050565b6000815180845260005b8181101561135557602081850181015186830182015201611339565b506000602082860101526020601f19601f83011685010191505092915050565b602081526000611328602083018461132f565b60006020828403121561139a57600080fd5b5035919050565b6001600160a01b0381168114610b2257600080fd5b600080604083850312156113c957600080fd5b82356113d4816113a1565b946020939093013593505050565b60008083601f8401126113f457600080fd5b50813567ffffffffffffffff81111561140c57600080fd5b60208301915083602082850101111561142457600080fd5b9250929050565b60008060008060006080868803121561144357600080fd5b853561144e816113a1565b9450602086013561145e816113a1565b935060408601359250606086013567ffffffffffffffff81111561148157600080fd5b61148d888289016113e2565b969995985093965092949392505050565b6000806000606084860312156114b357600080fd5b83356114be816113a1565b925060208401356114ce816113a1565b929592945050506040919091013590565b6000602082840312156114f157600080fd5b8135611328816113a1565b6000806020838503121561150f57600080fd5b823567ffffffffffffffff81111561152657600080fd5b611532858286016113e2565b90969095509350505050565b8015158114610b2257600080fd5b6000806040838503121561155f57600080fd5b823561156a816113a1565b9150602083013561157a8161153e565b809150509250929050565b634e487b7160e01b600052604160045260246000fd5b600080600080608085870312156115b157600080fd5b84356115bc816113a1565b935060208501356115cc816113a1565b925060408501359150606085013567ffffffffffffffff808211156115f057600080fd5b818701915087601f83011261160457600080fd5b81358181111561161657611616611585565b604051601f8201601f19908116603f0116810190838211818310171561163e5761163e611585565b816040528281528a602084870101111561165757600080fd5b82602086016020830137600060208483010152809550505050505092959194509250565b60008060006040848603121561169057600080fd5b833561169b816113a1565b9250602084013567ffffffffffffffff8111156116b757600080fd5b6116c3868287016113e2565b9497909650939450505050565b600080604083850312156116e357600080fd5b82356116ee816113a1565b9150602083013561157a816113a1565b600181811c9082168061171257607f821691505b60208210810361173257634e487b7160e01b600052602260045260246000fd5b50919050565b6020808252602d908201527f4552433732313a2063616c6c6572206973206e6f7420746f6b656e206f776e6560408201526c1c881bdc88185c1c1c9bdd9959609a1b606082015260800190565b8183823760009101908152919050565b60006020808352600084546117a9816116fe565b808487015260406001808416600081146117ca57600181146117e457611812565b60ff1985168984015283151560051b890183019550611812565b896000528660002060005b8581101561180a5781548b82018601529083019088016117ef565b8a0184019650505b509398975050505050505050565b601f82111561053557600081815260208120601f850160051c810160208610156118475750805b601f850160051c820191505b8181101561186657828155600101611853565b505050505050565b67ffffffffffffffff83111561188657611886611585565b61189a8361189483546116fe565b83611820565b6000601f8411600181146118ce57600085156118b65750838201355b600019600387901b1c1916600186901b178355611928565b600083815260209020601f19861690835b828110156118ff57868501358255602094850194600190920191016118df565b508682101561191c5760001960f88860031b161c19848701351681555b505060018560011b0183555b5050505050565b60006020828403121561194157600080fd5b8151611328816113a1565b60006020828403121561195e57600080fd5b81516113288161153e565b60208082526025908201527f4552433732313a207472616e736665722066726f6d20696e636f72726563742060408201526437bbb732b960d91b606082015260800190565b60208082526032908201527f4552433732313a207472616e7366657220746f206e6f6e20455243373231526560408201527131b2b4bb32b91034b6b83632b6b2b73a32b960711b606082015260800190565b634e487b7160e01b600052601160045260246000fd5b8181038181111561036157610361611a00565b8082018082111561036157610361611a00565b6001600160a01b0385811682528416602082015260408101839052608060608201819052600090611a6f9083018461132f565b9695505050505050565b600060208284031215611a8b57600080fd5b8151611328816112f556fea2646970667358221220cc3481ce957ae27739f7ec7e50eca963ad80a8d921052eb916394c9f97c8b78764736f6c63430008110033a2646970667358221220b917abd6843f7081740879bb8d59bb34ae09107fc44756e439b48ad6ad459ced64736f6c63430008110033",
  "linkReferences": {},
  "deployedLinkReferences": {}
}